:0600000000F0DDEF12F03C
:1006000000010000000A00000064000000E8030090
:100610000010270000A086010040420F008096983D
:100620000000E1F50500CA9A3B00803FCDCC3DD7E4
:10063000233C12833AB7D138C62737388635C0D61F
:1006400033CC2B32708930E7DB2EE53C1E42A20D05
:1006500000803F00204100C842007A44401C4650C0
:10066000C34724744997184BBCBE4C6B6E4E0315A0
:100670005079AD60F349717430203D20252E3266EB
:1006800020200A007430203D20256420200A00002C
:10069000FFFF490E556E000E566E83EF07F0FFFF09
:1006A000250E6818D8B40AD045C0D9FF46C0DAFF75
:1006B00068C0DFFF454A462A83EF07F0FFFF000EC0
:1006C000586E000E576E47C0F6FF48C0F7FF08008F
:1006D000FFFFF5502E0AD8A432D0588C474A482A3A
:1006E000000E646E000E636E1DD0FFFF63C00FF03E
:1006F00064C010F0000E126E0A0E116E71EC12F052
:1007000047C0F6FF48C0F7FF0800FFFFF5500F266F
:10071000000E1022D00E0F24636EFF0E1020646EA8
:10072000474A482AFFFF47C0F6FF48C0F7FF0800C6
:10073000FFFFF550C4EC12F0D8A00BD0D6D7FFFFC6
:10074000000E646E000E636E588803D0FFFF58845D
:1007500018D0FFFF47C0F6FF48C0F7FF474A482AB6
:100760000800FFFFF5CF68F06850000AD8B4DAD36C
:10077000640AD8B406D0020AD8B4E8D70F0AD8A4BD
:10078000C2D3FFFF070E5814D8B4EAD258A804D039
:10079000000E646E060E636EFFFF55C0D9FF56C093
:1007A000DAFFDECF65F0DECF66F0DDCF67F0030E57
:1007B0005526000E562267AE10D065C001F066C007
:1007C00002F067C003F086EC12F001C065F002C0D1
:1007D00066F003C067F0030E5712FFFF000E5A6E5B
:1007E000000E596E655066106710D8B487D0820E1F
:1007F0004C6EFF0E4D6E65C04EF066C04FF067C088
:1008000050F068C051F0100E06D0FFFFD890513262
:1008100050324F324E32FFFFE82EF7D74E504C2465
:10082000596E000E4D205A6E5906D8A05A0659C06E
:100830000FF05AC010F0000E126E030E116E71EC24
:1008400012F00FC059F010C05AF059C007F05AC04A
:1008500008F0000E0A6E0A0E096E79EC10F007C05F
:1008600059F008C05AF05AAE03D05906D8A05A061B
:10087000FFFF595000089BEC07F024C05BF025C037
:100880005CF026C05DF05BC015F05CC016F05DC08A
:1008900017F065C018F066C019F067C01AF0A7EC31
:1008A0000DF015C05BF016C05CF017C05DF05BC0CA
:1008B00001F05CC002F05DC003F0000E046E800E1B
:1008C000056E3F0E066EDEEC0FF0D8B004D0590670
:1008D000D8A05A0613D0FFFF5BC001F05CC002F045
:1008E0005DC003F0000E046E200E056E410E066E14
:1008F000DEEC0FF0D8A002D0594A5A2AFFFF64BE9E
:1009000006D064501CE10D0E635CD8B018D0FFFF18
:1009100065C033F066C034F067C035F06350B9ECA1
:1009200009F024C036F025C037F026C038F0EDECD1
:100930000AF033C065F034C066F035C067F0FFFFE1
:100940005ABE06D05A501FE10A0E595CD8B01BD0CF
:10095000FFFF655066106710D8B454D065C02BF007
:1009600066C02CF067C02DF023EC0EF02B502C103D
:100970002D102E10D8B45ABE45D05A5004E1020EA4
:10098000595CD8A03FD0FFFF5BC001F05CC002F013
:100990005DC003F0700E046E890E056E400E066E8B
:1009A000DEEC0FF0D8B002D0F70E02D0FFFFF80E49
:1009B000FFFF5926FF0E5A2259509BEC07F024C026
:1009C0005BF025C05CF026C05DF065C001F066C03C
:1009D00002F067C003F05BC004F05CC005F05DC0CE
:1009E00006F09AEC0CF001C05FF002C060F003C0AA
:1009F00061F004C062F0000E656E000E666E000EBF
:100A0000676E33D0FFFF65C02BF066C02CF067C067
:100A10002DF023EC0EF02BC05FF02CC060F02DC049
:100A200061F02EC062F065C03FF066C040F067C064
:100A300041F05FC009F060C00AF061C00BF062C015
:100A40000CF0C6EC11F009C042F00AC043F00BC034
:100A500044F0F8EC11F03FC065F040C066F041C0D2
:100A600067F0000E5A6E000E596EFFFF010E686EA1
:100A7000FFFF0A0E6818D8B41CD06850040D010E90
:100A8000F324F66E060EF420F76E0900FFFFF55012
:100A90005F5C0900FFFFF55060580900FFFFF5504B
:100AA00061580900FFFFF5506258D8A002D0682AAB
:100AB000DFD7FFFF030E57144C6E000E58144D6E17
:100AC0004C504D10D8B458D045C0D9FF46C0DAFFBD
:100AD0002D0E4FD0FFFF454A462A4ED0FFFF5FC084
:100AE00001F060C002F061C003F062C004F0685021
:100AF000040D010EF324F66E060EF420F76E0900C5
:100B0000FFFFF5CF05F00900FFFFF5CF06F0090064
:100B1000FFFFF5CF07F00A00FFFFF5CF08F0C5ECA7
:100B200010F001C05BF002C05CF003C05DF004C0D7
:100B30005EF05BC00EF05CC00FF05DC010F05EC0F8
:100B400011F00A0E126E000E136E000E146E000EDF
:100B5000156E8CEC11F00EC05BF00FC05CF010C095
:100B60005DF011C05EF05B50300F45C0D9FF46C04C
:100B7000DAFFFFFFDF6EAED7FFFF68066828D8B444
:100B80000DD0ACD7FFFF45C0D9FF46C0DAFF300E0D
:100B9000DF6E454A462A5906D8A05A06FFFF5ABEBC
:100BA00005D05A50EFE15904D8B0ECD7FFFF64BE2E
:100BB00009D0645004E1090E635CD8A003D0080E8C
:100BC000686E03D0FFFF63C068F0FFFF6850635E8C
:100BD000000E68BEFF0E645A6850D8B408D045C0F5
:100BE000D9FF46C0DAFF2E0EDF6E454A462AFFFFC8
:100BF00068509BEC07F024C052F025C053F026C08B
:100C000054F065C018F066C019F067C01AF052C001
:100C100015F053C016F054C017F0A7EC0DF015C036
:100C20002BF016C02CF017C02DF023EC0EF02BC0CB
:100C30005FF02CC060F02DC061F02EC062F078D063
:100C4000FFFF5FC001F060C002F061C003F062C04E
:100C500004F06850040D010EF324F66E060EF42025
:100C6000F76E0900FFFFF5CF05F00900FFFFF5CF94
:100C700006F00900FFFFF5CF07F00A00FFFFF5CFF0
:100C800008F0C5EC10F001C05BF002C05CF003C0DE
:100C90005DF004C05EF05BC00EF05CC00FF05DC0A4
:100CA00010F05EC011F00A0E126E000E136E000EF0
:100CB000146E000E156E8CEC11F00EC05BF00FC0C0
:100CC0005CF010C05DF011C05EF05B50300F45C0AD
:100CD000D9FF46C0DAFFDF6E454A462A5FC00EF0F4
:100CE00060C00FF061C010F062C011F06850040DD8
:100CF000010EF324F66E060EF420F76E0900FFFFD6
:100D0000F5CF12F00900FFFFF5CF13F00900FFFF48
:100D1000F5CF14F00A00FFFFF5CF15F08CEC11F0C1
:100D20000EC05FF00FC060F010C061F011C062F043
:100D3000FFFF68066828D8B40DD082D7FFFF45C0F2
:100D4000D9FF46C0DAFF300EDF6E454A462A6306F9
:100D5000D8A06406FFFF63506410D8B4D4D0EED797
:100D6000FFFF55C0D9FF56C0DAFFDECF5FF0DDCF01
:100D700060F0000E60BEFF0E616E626E020E5526C0
:100D8000000E562262AE0AD0030E5712621E611E7A
:100D9000601E5F6C000E602261226222FFFF6350C2
:100DA0006410D8A408D05F50601061106210D8A4FD
:100DB00002D0634A642AFFFF010E686EFFFF0A0E2D
:100DC0006818D8B41CD06850040D010EF324F66ED8
:100DD000060EF420F76E0900FFFFF5505F5C090076
:100DE000FFFFF55060580900FFFFF55061580900FA
:100DF000FFFFF5506258D8A002D0682ADFD7FFFF66
:100E0000800E68BE7F0E4C6E6350685C6450800A32
:100E10004C58D8B003D063C068F011D0FFFF6450C5
:100E2000800A4C6E6850635C800E68BE7F0E4C5822
:100E3000D8B005D06850636E646A63BE6406FFFF75
:100E4000030E57144C6E000E58144D6E4C504D103E
:100E5000D8B450D045C0D9FF46C0DAFF2D0EDF6EA2
:100E600046D0FFFF63C04CF064C04DF0D8904C36C4
:100E70004D36D8904C364D36010E4C24F66E060E8B
:100E80004D20F76E0900FFFFF5CF05F00900FFFFC9
:100E9000F5CF06F00900FFFFF5CF07F00A00FFFFCE
:100EA000F5CF08F05FC001F060C002F061C003F050
:100EB00062C004F0C5EC10F001C00EF002C00FF0EB
:100EC00003C010F004C011F00A0E126E000E136E73
:100ED000000E146E000E156E8CEC11F00E50300FDB
:100EE000686E45C0D9FF46C0DAFF68C0DFFFFFFF6C
:100EF000454A462AFFFF6306D8A064066328B1E18D
:100F00006428D8A4AED7FFFF47C0F6FF48C0F7FF5C
:100F1000474A482A0800FFFFF5CF68F06850D8A478
:100F20004FEF03F0FFFF45C0D9FF46C0DAFF000EC8
:100F3000DF6E1200FFFFFFFF2A6E2AAE07D12A6C78
:100F40002A50800A120FD8A094D0000E126E030E01
:100F5000116E000E0A6E0A0E096E000E046E640E0B
:100F6000036E2A50016E026A01BE02060DEC11F0FA
:100F700001C007F002C008F079EC10F0090E072458
:100F80000F6E000E0820106E71EC12F0290E0F2467
:100F9000F66E060E1020F76E0900FFFFF5CF18F071
:100FA0000900FFFFF5CF19F00A00FFFFF5CF1AF097
:100FB000000E0A6E640E096E2A50076E086A07BE9C
:100FC000080679EC10F0120E07240F6E000E0820B0
:100FD000106E000E126E030E116E71EC12F0290EDF
:100FE0000F24F66E060E1020F76E0900FFFFF5CFF6
:100FF00015F00900FFFFF5CF16F00A00FFFFF5CF4F
:1010000017F0A7EC0DF015C027F016C028F017C098
:1010100029F027C015F028C016F029C017F0000EDF
:10102000126E030E116E000E046E0A0E036E2A502D
:10103000016E026A01BE02060DEC11F001C00FF054
:1010400002C010F071EC12F0290E0F24F66E060E9D
:101050001020F76E0900FFFFF5CF18F00900FFFF21
:10106000F5CF19F00A00FFFFF5CF1AF0A7EC0DF04D
:101070005FD1FFFF2A50800A750FD8A053D0000E11
:101080000A6E0A0E096E2A50076E086A07BE080625
:1010900079EC10F0090E07240F6E000E0820106E78
:1010A000000E126E030E116E71EC12F0290E0F2459
:1010B000F66E060E1020F76E0900FFFFF5CF15F053
:1010C0000900FFFFF5CF16F00A00FFFFF5CF17F07C
:1010D000000E126E030E116E000E046E0A0E036EE9
:1010E0002A50016E026A01BE02060DEC11F001C029
:1010F0000FF002C010F071EC12F0290E0F24F66E02
:10110000060E1020F76E0900FFFFF5CF18F009005A
:10111000FFFFF5CF19F00A00FFFFF5CF1AF0A7EC9B
:101120000DF006D1FFFF2A50030D290EF324F66EB1
:10113000060EF420F76E0900FFFFF5CF24F009003A
:10114000FFFFF5CF25F00A00FFFF0DD1FFFF2A506A
:10115000800A120FD8A094D0000E126E030E116EEA
:10116000000E0A6E0A0E096E000E046E640E036E07
:101170002A50016E026A01BE02060DEC11F001C098
:1011800007F002C008F079EC10F0090E07240F6E8A
:10119000000E0820106E71EC12F0500E0F24F66E47
:1011A000060E1020F76E0900FFFFF5CF18F00900BA
:1011B000FFFFF5CF19F00A00FFFFF5CF1AF0000E80
:1011C0000A6E640E096E2A50076E086A07BE08068A
:1011D00079EC10F0120E07240F6E000E0820106E2E
:1011E000000E126E030E116E71EC12F0500E0F24F1
:1011F000F66E060E1020F76E0900FFFFF5CF15F012
:101200000900FFFFF5CF16F00A00FFFFF5CF17F03A
:10121000A7EC0DF015C027F016C028F017C029F074
:1012200027C015F028C016F029C017F0000E126E66
:10123000030E116E000E046E0A0E036E2A50016E2C
:10124000026A01BE02060DEC11F001C00FF002C0EF
:1012500010F071EC12F0500E0F24F66E060E1020F6
:10126000F76E0900FFFFF5CF18F00900FFFFF5CF7B
:1012700019F00A00FFFFF5CF1AF0A7EC0DF058D0D7
:10128000FFFF2A50800A750FD8A05AD0000E0A6EB0
:101290000A0E096E2A50076E086A07BE080679EC26
:1012A00010F0090E07240F6E000E0820106E000EBD
:1012B000126E030E116E71EC12F0500E0F24F66ECA
:1012C000060E1020F76E0900FFFFF5CF15F009009C
:1012D000FFFFF5CF16F00A00FFFFF5CF17F0000E65
:1012E000126E030E116E000E046E0A0E036E2A506B
:1012F000016E026A01BE02060DEC11F001C00FF092
:1013000002C010F071EC12F0500E0F24F66E060EB3
:101310001020F76E0900FFFFF5CF18F00900FFFF5E
:10132000F5CF19F00A00FFFFF5CF1AF0A7EC0DF08A
:10133000FFFF15C024F016C025F017C026F016D008
:10134000FFFF2A50030D500EF324F66E060EF42014
:10135000F76E0900FFFFF5CF24F00900FFFFF5CF7E
:1013600025F00A00FFFFFFFFF5CF26F0FFFF120078
:10137000FFFFFFFF2D6E6D0E2D64A2D0000E126ECA
:10138000030E116E000E0A6E0A0E096E000E046E38
:10139000640E036E2DC001F0026A0DEC11F001C065
:1013A00007F002C008F079EC10F0090E07240F6E68
:1013B000000E0820106E71EC12F0290E0F24F66E4C
:1013C000060E1020F76E0900FFFFF5CF18F0090098
:1013D000FFFFF5CF19F00A00FFFFF5CF1AF0000E5E
:1013E0000A6E640E096E2DC007F0086A79EC10F0E1
:1013F000120E07240F6E000E0820106E000E126EE3
:10140000030E116E71EC12F0290E0F24F66E060E0B
:101410001020F76E0900FFFFF5CF15F00900FFFF60
:10142000F5CF16F00A00FFFFF5CF17F0A7EC0DF08F
:1014300015C02AF016C02BF017C02CF0000E126E4B
:10144000030E116E000E046E0A0E036E2DC001F025
:10145000026A0DEC11F001C00FF002C010F071EC47
:1014600012F0290E0F24F66E060E1020F76E0900FA
:10147000FFFFF5CF18F00900FFFFF5CF19F00A00C4
:10148000FFFFF5CF1AF02AC015F02BC016F02CC0C4
:1014900017F0A7EC0DF015C027F016C028F017C004
:1014A00029F027C015F028C016F029C017F0000E4B
:1014B000186E000E196E3F0E1A6EA7EC0DF084D058
:1014C000FFFF0A0E2D6463D0000E126E030E116E24
:1014D000000E046E0A0E036E2DC001F0026A0DECC0
:1014E00011F001C00FF002C010F071EC12F0290EE3
:1014F0000F24F66E060E1020F76E0900FFFFF5CFE1
:1015000018F00900FFFFF5CF19F00A00FFFFF5CF33
:101510001AF0000E0A6E0A0E096E2DC007F0086A56
:1015200079EC10F0090E07240F6E000E0820106EE3
:10153000000E126E030E116E71EC12F0290E0F24C4
:10154000F66E060E1020F76E0900FFFFF5CF15F0BE
:101550000900FFFFF5CF16F00A00FFFFF5CF17F0E7
:10156000A7EC0DF015C02AF016C02BF017C02CF018
:101570002AC015F02BC016F02CC017F0000E186E04
:10158000000E196E3F0E1A6EA7EC0DF01DD0FFFF76
:101590002D50030D290EF324F66E060EF420F76E7F
:1015A0000900FFFFF5CF15F00900FFFFF5CF16F09A
:1015B0000A00FFFFF5CF17F0000E186E000E196E2F
:1015C0003F0E1A6EA7EC0DF0FFFF15C024F016C0F9
:1015D00025F017C026F01200FFFFFFFF35C039F0DD
:1015E0003A6A3B6A3434393601E33A8039503E6E08
:1015F00038C039F03A6A3B6A3734393601E33A8009
:1016000039503D6E3E50D8B40BD03D503E5CD8B002
:101610000FD03E5000083D24396E180E396408D0B2
:10162000FFFF36C033F037C034F038C035F0BAD0E1
:10163000FFFF3D50D8B40BD03E503D5CD8B00FD02A
:101640003D5000083E24396E180E396408D0FFFF63
:1016500033C033F034C034F035C035F0A3D0FFFFD1
:10166000060E3C6E35BE3C8E38BE3C8C348EFF0E72
:101670003316FF0E3416000E3516378EFF0E361653
:10168000FF0E3716000E38163D503E5CD8B01ED007
:10169000FFFFD8903636373638363D063E503D1877
:1016A000D8B40ED03C063CC039F0070E3916D8B479
:1016B00007D0EED7FFFFD8903532343233323E2A8E
:1016C000FFFF3D503E18D8B423D0F4D7FFFF3E5063
:1016D0003D5CD8B01DD0FFFFD89033363436353658
:1016E0003E063E503D18D8B40ED03C063CC039F002
:1016F000070E3916D8B407D0EED7FFFFD89038328E
:10170000373236323D2AFFFF3D503E18D8A4F5D778
:10171000FFFF3CAE0CD0FF0E331AFF0E341AFF0E43
:10172000351A010E3326000E3422000E3522FFFF3B
:101730003CAC0CD0FF0E361AFF0E371AFF0E381ACB
:10174000010E3626000E3722000E3822FFFF000E53
:101750003C6E33503626345037223550382238AE5E
:101760000ED0FF0E361AFF0E371AFF0E381A010E72
:101770003626000E3722000E3822010E3C6EFFFF87
:1017800036C001F037C002F038C003F03EC004F0AC
:101790003CC005F07CEC0FF001C033F002C034F027
:1017A00003C035F0FFFF1200FFFFFFFF000E7B6E4E
:1017B000000E7A6E000E776E000E786E000E796E57
:1017C000010E926E000E936E000E946ED6EC12F027
:1017D000000E026E000E016E2CEC10F00AEC0FF001
:1017E0006A0E456E000E466E840E476E060E486EFB
:1017F000000E4A6E000E496E48EC03F0360E696E1C
:101800009A0EFFFFE82EFDD7692EFBD700D0000E01
:10181000026E000E3CEC12F06A0E026E000E036EB9
:101820001BEC12F0FFFF4FEC11F001C07AF002C088
:101830007BF0000E366E000E376EBF0E386E000E57
:10184000276E800E286E440E296E000E186EA00EB4
:10185000196E400E1A6E7AC009F07BC00AF0B0EC27
:1018600012F009C015F00AC016F00BC017F0A7EC73
:101870000DF015C024F016C025F017C026F097EC27
:101880000EF024C033F025C034F026C035F0EDEC66
:101890000AF033C074F034C075F035C076F074C00F
:1018A00024F075C025F076C026F0D70E276E230EE3
:1018B000286E3C0E296E97EC0EF024C077F025C000
:1018C00078F026C079F06A0E456E000E466E770EEF
:1018D000476E060E486E77C049F078C04AF079C06E
:1018E0004BF048EC03F0360E696E9A0EFFFFE82EBF
:1018F000FDD7692EFBD700D0000E026E000E3CEC27
:1019000012F06A0E026E000E036E1BEC12F0620EF5
:10191000696E760EFFFFE82EFDD7692EFBD700D04B
:10192000620E696E760EFFFFE82EFDD7692EFBD79B
:1019300000D078D7FFFF03C007F0086A096A0234B5
:10194000073601E3088007500F6E0F50D8B45AD005
:1019500006C007F0086A096A0534073601E3088003
:1019600007500E6E0E50D8B44DD0028EFF0E0116E9
:10197000FF0E0216000E0316058EFF0E0416FF0E54
:101980000516000E0616000E0A6E000E0B6E000EF7
:101990000C6E000E0D6E7F0E0F5E0E50980F0F5ED8
:1019A000180E0E6EFFFFD8900A360B360C360D3629
:1019B0000450015C0550025806500358D8A007D0C7
:1019C0000450015E0550025A0650035A0A80FFFF78
:1019D000D8900136023603360E2EE4D70FAE0ED065
:1019E0000F50800A970FD8A00DD0FFFFD8900D326E
:1019F0000C320B320A320F3EF8D719D0FFFF170E08
:101A00000F6411D0FFFF000E016E000E026E000E7B
:101A1000036E000E046E14D0FFFFD8900A360B360A
:101A20000C360D360F06FFFF0F50D8A4F5D7FFFF79
:101A30000AC001F00BC002F00CC003F00DC004F0AE
:101A4000FFFF1200FFFFFFFF033404340C6E0C5045
:101A5000D8B45CD0063407340B6E0B50D8B456D0D3
:101A6000038EFF0E0116FF0E0216FF0E0316000E68
:101A70000416068EFF0E0416FF0E0516FF0E061640
:101A8000000E0716000E076E000E086E000E096E9F
:101A9000000E0A6E7F0E0C5E0B50A00F0C5E200E27
:101AA0000B6EFFFFD8900736083609360A36045009
:101AB000015C055002580650035807500458D8A03E
:101AC00009D00450015E0550025A0650035A0750CF
:101AD000045A0780FFFFD8900136023603360436D9
:101AE0000B2EDFD70CAE0ED00C50800A9F0FD8A063
:101AF0000DD0FFFFD8900A320932083207320C3E6F
:101B0000F8D719D0FFFF1F0E0C6411D0FFFF000E95
:101B1000016E000E026E000E036E000E046E14D0F5
:101B2000FFFFD8900736083609360A360C06FFFF45
:101B30000C50D8A4F5D7FFFF07C001F008C002F091
:101B400009C003F00AC004F0FFFF1200FFFFFFFF0F
:101B500017C01BF01C6A1D6A16341B3601E31C807B
:101B60001B501E6E1E50D8B40DD01AC01BF01C6A3C
:101B70001D6A19341B3601E31C801B50236E235051
:101B8000D8A408D0FFFF000E156E000E166E000ED2
:101B9000176E56D0FFFF23507B0F1E2617C023F071
:101BA0001A50231A800E2316168E198EFF0E181641
:101BB000FF0E1916000E1A16000E1F6E000E206E74
:101BC000000E216E070E226EFFFF15A006D01850E2
:101BD0001F26195020221A502122FFFFD8901732B9
:101BE00016321532D890183619361A36222EECD7FE
:101BF000090E226EFFFF15A006D018501F2619509F
:101C000020221A502122FFFFD890173216321532A7
:101C1000D890213220321F32222EECD71FC001F083
:101C200020C002F021C003F01EC004F023C005F064
:101C30007CEC0FF001C015F002C016F003C017F0E5
:101C4000FFFF1200FFFFFFFF2DC02FF0306A316A47
:101C50002C342F3601E330802F50396E3950D8B4F0
:101C600039D0170E2F6E2BC030F02CC031F02DC0A4
:101C700032F02F28336E05D0FFFFD8903232313248
:101C80003032FFFF332EF8D73050346E2C8EFF0EDB
:101C90002B16FF0E2C16000E2D162B50356E2C50C9
:101CA000366E2D50376E386A8E0E395E39AE0ED0D4
:101CB0003950800A8F0FD8A00DD0FFFFD89038324E
:101CC000373236323532393EF8D719D0FFFF170E8A
:101CD000396411D0FFFF000E2B6E000E2C6E000E2B
:101CE0002D6E000E2E6E20D0FFFFD8903536363682
:101CF000373638363906FFFF3950D8A4F5D7FFFFFD
:101D00003450D8B408D0381E371E361E356C000E3D
:101D1000362237223822FFFF35C02BF036C02CF098
:101D200037C02DF038C02EF0FFFF1200FFFFFFFF7D
:101D300026C02AF02B6A2C6A25342A3601E32B8030
:101D40002A50316E3150D8B40DD029C02AF02B6AF8
:101D50002C6A28342A3601E32B802A50326E325006
:101D6000D8A408D0FFFF000E246E000E256E000ED2
:101D7000266E4DD0FFFF000E2E6E000E2F6E000E51
:101D8000306E3250890F315E26C032F02950321A3F
:101D9000800E3216258EFF0E2416FF0E2516000E1D
:101DA0002616288EFF0E2716FF0E2816000E29165F
:101DB000180E2D6EFFFFD8902E362F363036275056
:101DC000245C2850255829502658D8A007D02750E1
:101DD000245E2850255A2950265A2E80FFFFD8907D
:101DE0002436253626362D2EE5D72EC001F02FC0FD
:101DF00002F030C003F031C004F032C005F07CECDA
:101E00000FF001C024F002C025F003C026F0FFFF50
:101E10001200FFFFFFFF620E026E760EFFFFE82E3C
:101E2000FDD7022EFBD700D0620E026E760EFFFFAA
:101E3000E82EFDD7022EFBD700D0360E026E9A0E8A
:101E4000FFFFE82EFDD7022EFBD700D0300E816EAB
:101E5000818600F08196310E026EBB0EFFFFE82EE8
:101E6000FDD7022EFBD7300E816E818600F0819661
:101E70000A0E026EBE0EFFFFE82EFDD7022EFBD724
:101E800000D0300E816E818600F081960A0E026EBF
:101E9000BE0EFFFFE82EFDD7022EFBD700D0200E8E
:101EA000816E818600F081960A0E026EBE0EFFFFE3
:101EB000E82EFDD7022EFBD700D0010E9BEC12F0CE
:101EC000280E9BEC12F0080E9BEC12F0060E9BEC19
:101ED00012F0140E9BEC12F00C0E9BEC12F0030EA1
:101EE000026EEC0EFFFFE82EFDD7022EFBD7280E68
:101EF0009BEC12F01200FFFFFFFF0450D8B405D096
:101F0000015002100310D8A40ED0FFFF000E016E86
:101F1000000E026E000E036E4ED0FFFF042AD89012
:101F2000033202320132FFFF000E0114066E000E72
:101F30000214076EFE0E0314086E065007100810F8
:101F4000D8B40DD0EAD7FFFF042A010E0126000EF7
:101F50000222000E0322D890033202320132FFFF28
:101F6000000E0114066E000E0214076EFF0E03141D
:101F7000086E065007100810D8B407D0E4D7FFFF4A
:101F80000406D890013602360336FFFF02BE03D0A6
:101F9000020E0460F4D7FFFF04A0029ED890043222
:101FA000045003120550D8A4038E01C001F002C0F2
:101FB00002F003C003F0FFFF1200FFFFFFFF03AEBC
:101FC00016D001C007F002C008F003C009F0071ED8
:101FD000081E091E072A000E08220922000E0724E7
:101FE000016E000E0820026E800E0920036EFFFFB6
:101FF00006AE16D004C007F005C008F006C009F010
:10200000071E081E091E072A000E08220922000EBC
:102010000724046E000E0820056E800E0920066E4F
:10202000FFFF000E011A000E021A800E031A000EA6
:10203000041A000E051A800E061A0450015C0550A1
:10204000025806500358D8B002D0D89002D0FFFFF3
:10205000D880FFFF1200FFFFFFFF26D0FFFFC296D0
:1020600002D0FFFFC286FFFFC29803D0FFFFC296D7
:1020700005D0FFFFC29A3AD0FFFFC286FFFFC28899
:10208000F8D7FFFFC29602D0FFFFC286FFFFC298BB
:1020900003D0FFFFC29605D0FFFFC28A27D0FFFF03
:1020A000C286FFFFC288F8D7FFFF01C003F002C05D
:1020B00004F00450000AD8A419D00350000AD8B480
:1020C000CDD7010AD8B4CDD7030AD8B4CFD7010AE7
:1020D000D8B4D2D7070AD8B4D4D7010AD8B4D4D741
:1020E000030AD8B4D6D7010AD8B4D9D7FFFF120053
:1020F000FFFFFFFF000E0C6E0AAE06D0096C0A1E31
:10210000D8B00A2A010E0C6EFFFF08AE06D0076C8D
:10211000081ED8B0082A010E0C1AFFFF000E0E6E22
:10212000000E0D6E09500A10D8B420D0010E0B6EAF
:1021300005D0FFFFD89009360A360B2AFFFF0AAEFA
:10214000F8D7FFFFD8900D360E360950075C0A50BD
:102150000858D8A005D00950075E0A50085A0D80CB
:10216000FFFFD8900A3209320B2EEBD7FFFF0C503D
:10217000D8B404D00D6C0E1ED8B00E2AFFFF0DC0CF
:1021800007F00EC008F01200FFFFFFFF000E096EFF
:10219000000E0A6E000E0B6E000E0C6E055006103F
:1021A00007100810D8B42ED0010E0D6E07D0FFFF17
:1021B000D89005360636073608360D2AFFFF08AEDA
:1021C000F6D7FFFFD89009360A360B360C36055085
:1021D000015C065002580750035808500458D8A014
:1021E00009D00550015E0650025A0750035A0850A4
:1021F000045A0980FFFFD8900832073206320532B0
:102200000D2EDFD7FFFF09C001F00AC002F00BC09E
:1022100003F00CC004F01200FFFFFFFF000E066E7B
:1022200002AE06D0016C021ED8B0022A010E066E64
:10223000FFFF04AE04D0036C041ED8B0042AFFFFD5
:1022400003500410D8B41CD0010E056E05D0FFFF5A
:10225000D89003360436052AFFFF04AEF8D7FFFFF7
:102260000350015C04500258D8A004D00350015E12
:102270000450025AFFFFD89004320332052EEFD7E4
:10228000FFFF0650D8B404D0016C021ED8B0022A59
:10229000FFFF01C001F002C002F01200FFFFFFFFCC
:1022A000C280FA0EFFFFE82EFDD7C28402D0FFFFE6
:1022B00000F0FFFFC2B4FBD7C4CF08F0096A08C022
:1022C00003F009C004F0D89003360436D8900336E2
:1022D000043603C008F004C009F0C3CF06F0076A53
:1022E00006C003F007C004F0060E056EFFFF0434BD
:1022F00004320332052EFAD703C006F004C007F0FB
:1023000006500824086E07500920096E08C001F025
:1023100009C002F01200FFFFFFFF1250131014104B
:102320001510D8B428D0010E166E07D0FFFFD89034
:102330001236133614361536162AFFFF15AEF6D7A9
:10234000FFFF12500E5C13500F58145010581550C8
:102350001158D8A008D012500E5E13500F5A1450C6
:10236000105A1550115AFFFFD890153214321332FB
:102370001232162EE5D7FFFF0EC00EF00FC00FF081
:1023800010C010F011C011F01200FFFFFFFF8E0E01
:10239000116E07D0FFFFD8900C320B320A3209328F
:1023A000112AFFFF000E09140D6E000E0A140E6EA6
:1023B000000E0B140F6EFF0E0C14106E0D500E104D
:1023C0000F101010D8A4E6D709C001F00AC002F01F
:1023D0000BC003F011C004F0000E056E7CEC0FF092
:1023E00001C009F002C00AF003C00BF01200FFFFA9
:1023F000FFFF425043104410D8B406D0000E421ADA
:10240000000E431A800E441AFFFF3FC033F040C055
:1024100034F041C035F042C036F043C037F044C01C
:1024200038F0EDEC0AF033C03FF034C040F035C076
:1024300041F01200FFFFFFFF000E056E0DD0FFFF01
:102440000550010DF3500224D96EF4500320DA6ECA
:10245000DF505AEC12F0052AFFFF0550010DF35032
:102460000224D96EF4500320DA6E0A0EDE18D8B4B6
:102470001200FFFFE4D7FFFFFFFF046EFA0EFFFF1D
:10248000E82EFDD70404D8A405D00250C00F9BEC61
:1024900012F005D0FFFF0250800F9BEC12F0FFFFFF
:1024A000050E036EDF0EFFFFE82EFDD7032EFBD7D0
:1024B0001200FFFFFFFF016EFA0EFFFFE82EFDD7AF
:1024C0000150F00B816E8184818600F08196013885
:1024D000F00B816E8184818600F0819681941200D8
:1024E000FFFFFFFF0F501102F3CF13F0F4CF14F0F2
:1024F0000F501202F350142610501102F3501426FC
:1025000013C00FF014C010F01200FFFFFFFF0150C6
:1025100002100310D8B406D0000E011A000E021AE1
:10252000800E031AFFFF01C001F002C002F003C0D9
:1025300003F01200FFFFFFFF016EFA0EFFFFE82E0F
:10254000FDD781940150F00B816E818600F0819659
:102550000138F00B816E818600F081961200FFFF3A
:10256000FFFF09C001F00AC002F0036A8E0E046E7C
:10257000000E056E7CEC0FF001C009F002C00AF0FD
:1025800003C00BF01200FFFFFFFF036E000E026E90
:102590003A0E036005D02F0E036402D0010E026EC6
:1025A000FFFF02C001F001301200FFFFFFFF800EAD
:1025B000C26E090EC16E1200FFFF000EF86E000120
:0625C000D5EF0BF0FFFF58
:020000040020DA
:08000000FFFFFFFFFFFFFFFF00
:020000040030CA
:0E000000FF210E0EFF0181FF0FC00FE00F4029
:00000001FF
