:0600000000F0ADEF12F06C
:1006000000010000000A00000064000000E8030090
:100610000010270000A086010040420F008096983D
:100620000000E1F50500CA9A3B00803FCDCC3DD7E4
:10063000233C12833AB7D138C62737388635C0D61F
:1006400033CC2B32708930E7DB2EE53C1E42A20D05
:1006500000803F00204100C842007A44401C4650C0
:10066000C34724744997184BBCBE4C6B6E4E0315A0
:100670005079AD60F34971766F6C74203D20252E62
:10068000326620200A00616463203D20256420201A
:10069000200A0000FFFF440E506E000E516E85EFE1
:1006A00007F0FFFF250E6318D8B40AD040C0D9FF69
:1006B00041C0DAFF63C0DFFF404A412A85EF07F0FF
:1006C000FFFF000E536E000E526E42C0F6FF43C095
:1006D000F7FF0800FFFFF5502E0AD8A432D0538C44
:1006E000424A432A000E5F6E000E5E6E1DD0FFFF71
:1006F0005EC00FF05FC010F0000E126E0A0E116E99
:100700002AEC12F042C0F6FF43C0F7FF0800FFFFDB
:10071000F5500F26000E1022D00E0F245E6EFF0E35
:1007200010205F6E424A432AFFFF42C0F6FF43C0DB
:10073000F7FF0800FFFFF5507DEC12F0D8A00BD0BA
:10074000D6D7FFFF000E5F6E000E5E6E538803D09B
:10075000FFFF538418D0FFFF42C0F6FF43C0F7FFEE
:10076000424A432A0800FFFFF5CF63F06350000AB6
:10077000D8B4DAD3640AD8B406D0020AD8B4E8D719
:100780000F0AD8A4C2D3FFFF070E5314D8B4EAD27D
:1007900053A804D0000E5F6E060E5E6EFFFF50C0C1
:1007A000D9FF51C0DAFFDECF60F0DECF61F0DDCFE0
:1007B00062F0030E5026000E512262AE10D060C0CF
:1007C00001F061C002F062C003F03FEC12F001C022
:1007D00060F002C061F003C062F0030E5212FFFF2E
:1007E000000E556E000E546E605061106210D8B449
:1007F00087D0820E476EFF0E486E60C049F061C020
:100800004AF062C04BF063C04CF0100E06D0FFFF00
:10081000D8904C324B324A324932FFFFE82EF7D79C
:1008200049504724546E000E4820556E5406D8A0F7
:10083000550654C00FF055C010F0000E126E030E96
:10084000116E2AEC12F00FC054F010C055F054C0D5
:1008500007F055C008F0000E0A6E0A0E096E44EC4F
:1008600010F007C054F008C055F055AE03D0540640
:10087000D8A05506FFFF545000089DEC07F024C097
:1008800056F025C057F026C058F056C015F057C096
:1008900016F058C017F060C018F061C019F062C0BF
:1008A0001AF0BFEC0DF015C056F016C057F017C087
:1008B00058F056C001F057C002F058C003F0000EC7
:1008C000046E800E056E3F0E066EF6EC0FF0D8B08B
:1008D00004D05406D8A0550613D0FFFF56C001F02F
:1008E00057C002F058C003F0000E046E200E056ED3
:1008F000410E066EF6EC0FF0D8A002D0544A552AED
:10090000FFFF5FBE06D05F501CE10D0E5E5CD8B0ED
:1009100018D0FFFF60C02EF061C02FF062C030F031
:100920005E50BBEC09F024C031F025C032F026C087
:1009300033F0EFEC0AF02EC060F02FC061F030C051
:1009400062F0FFFF55BE06D055501FE10A0E545C01
:10095000D8B01BD0FFFF605061106210D8B454D0E3
:1009600060C02BF061C02CF062C02DF03BEC0EF0AB
:100970002B502C102D102E10D8B455BE45D05550EC
:1009800004E1020E545CD8A03FD0FFFF56C001F036
:1009900057C002F058C003F0700E046E890E056E49
:1009A000400E066EF6EC0FF0D8B002D0F70E02D073
:1009B000FFFFF80EFFFF5426FF0E552254509DEC0A
:1009C00007F024C056F025C057F026C058F060C08C
:1009D00001F061C002F062C003F056C004F057C0DD
:1009E00005F058C006F0B2EC0CF001C05AF002C09D
:1009F0005BF003C05CF004C05DF0000E606E000EA2
:100A0000616E000E626E33D0FFFF60C02BF061C0DC
:100A10002CF062C02DF03BEC0EF02BC05AF02CC035
:100A20005BF02DC05CF02EC05DF060C03AF061C09C
:100A30003BF062C03CF05AC009F05BC00AF05CC0F9
:100A40000BF05DC00CF054EC11F009C03DF00AC091
:100A50003EF00BC03FF0B1EC11F03AC060F03BC08B
:100A600061F03CC062F0000E556E000E546EFFFF48
:100A7000010E636EFFFF0A0E6318D8B41CD06350DA
:100A8000040D010EF324F66E060EF420F76E090035
:100A9000FFFFF5505A5C0900FFFFF5505B58090055
:100AA000FFFFF5505C580900FFFFF5505D58D8A0D6
:100AB00002D0632ADFD7FFFF030E5214476E000EE9
:100AC0005314486E47504810D8B458D040C0D9FF8E
:100AD00041C0DAFF2D0E4FD0FFFF404A412A4ED0D1
:100AE000FFFF5AC001F05BC002F05CC003F05DC0C4
:100AF00004F06350040D010EF324F66E060EF4208C
:100B0000F76E0900FFFFF5CF05F00900FFFFF5CFF5
:100B100006F00900FFFFF5CF07F00A00FFFFF5CF51
:100B200008F090EC10F001C056F002C057F003C07E
:100B300058F004C059F056C00EF057C00FF058C01E
:100B400010F059C011F00A0E126E000E136E000E56
:100B5000146E000E156E1AEC11F00EC056F00FC098
:100B600057F010C058F011C059F05650300F40C027
:100B7000D9FF41C0DAFFFFFFDF6EAED7FFFF63068C
:100B80006328D8B40DD0ACD7FFFF40C0D9FF41C017
:100B9000DAFF300EDF6E404A412A5406D8A05506CF
:100BA000FFFF55BE05D05550EFE15404D8B0ECD747
:100BB000FFFF5FBE09D05F5004E1090E5E5CD8A064
:100BC00003D0080E636E03D0FFFF5EC063F0FFFF2B
:100BD00063505E5E000E63BEFF0E5F5A6350D8B472
:100BE00008D040C0D9FF41C0DAFF2E0EDF6E404A68
:100BF000412AFFFF63509DEC07F024C04DF025C053
:100C00004EF026C04FF060C018F061C019F062C00D
:100C10001AF04DC015F04EC016F04FC017F0BFECE3
:100C20000DF015C02BF016C02CF017C02DF03BECCA
:100C30000EF02BC05AF02CC05BF02DC05CF02EC023
:100C40005DF078D0FFFF5AC001F05BC002F05CC0DD
:100C500003F05DC004F06350040D010EF324F66E42
:100C6000060EF420F76E0900FFFFF5CF05F009002E
:100C7000FFFFF5CF06F00900FFFFF5CF07F00A00F0
:100C8000FFFFF5CF08F090EC10F001C056F002C065
:100C900057F003C058F004C059F056C00EF057C0CA
:100CA0000FF058C010F059C011F00A0E126E000E6D
:100CB000136E000E146E000E156E1AEC11F00EC0BD
:100CC00056F00FC057F010C058F011C059F05650F0
:100CD000300F40C0D9FF41C0DAFFDF6E404A412AE1
:100CE0005AC00EF05BC00FF05CC010F05DC011F098
:100CF0006350040D010EF324F66E060EF420F76E19
:100D00000900FFFFF5CF12F00900FFFFF5CF13F048
:100D10000900FFFFF5CF14F00A00FFFFF5CF15F033
:100D20001AEC11F00EC05AF00FC05BF010C05CF06E
:100D300011C05DF0FFFF63066328D8B40DD082D7E1
:100D4000FFFF40C0D9FF41C0DAFF300EDF6E404ADE
:100D5000412A5E06D8A05F06FFFF5E505F10D8B440
:100D6000D4D0EED7FFFF50C0D9FF51C0DAFFDECF9D
:100D70005AF0DDCF5BF0000E5BBEFF0E5C6E5D6E69
:100D8000020E5026000E51225DAE0AD0030E521202
:100D90005D1E5C1E5B1E5A6C000E5B225C225D2297
:100DA000FFFF5E505F10D8A408D05A505B105C1053
:100DB0005D10D8A402D05E4A5F2AFFFF010E636E69
:100DC000FFFF0A0E6318D8B41CD06350040D010E47
:100DD000F324F66E060EF420F76E0900FFFFF550BF
:100DE0005A5C0900FFFFF5505B580900FFFFF55002
:100DF0005C580900FFFFF5505D58D8A002D0632A67
:100E0000DFD7FFFF800E63BE7F0E476E5E50635CD0
:100E10005F50800A4758D8B003D05EC063F011D04D
:100E2000FFFF5F50800A476E63505E5C800E63BEBA
:100E30007F0E4758D8B005D063505E6E5F6A5EBEC5
:100E40005F06FFFF030E5214476E000E5314486EE8
:100E500047504810D8B450D040C0D9FF41C0DAFF45
:100E60002D0EDF6E46D0FFFF5EC047F05FC048F03A
:100E7000D89047364836D89047364836010E472432
:100E8000F66E060E4820F76E0900FFFFF5CF05F05D
:100E90000900FFFFF5CF06F00900FFFFF5CF07F0CF
:100EA0000A00FFFFF5CF08F05AC001F05BC002F066
:100EB0005CC003F05DC004F090EC10F001C00EF0D7
:100EC00002C00FF003C010F004C011F00A0E126E41
:100ED000000E136E000E146E000E156E1AEC11F05B
:100EE0000E50300F636E40C0D9FF41C0DAFF63C0BF
:100EF000DFFFFFFF404A412AFFFF5E06D8A05F06E2
:100F00005E28B1E15F28D8A4AED7FFFF42C0F6FF4C
:100F100043C0F7FF424A432A0800FFFFF5CF63F0C2
:100F20006350D8A451EF03F0FFFF40C0D9FF41C088
:100F3000DAFF000EDF6E1200FFFFFFFF2A6E2AAEFF
:100F400007D12A6C2A50800A120FD8A094D0000E24
:100F5000126E030E116E000E0A6E0A0E096E000E5E
:100F6000046E640E036E2A50016E026A01BE020610
:100F7000D8EC10F001C007F002C008F044EC10F00B
:100F8000090E07240F6E000E0820106E2AEC12F0D6
:100F9000290E0F24F66E060E1020F76E0900FFFFD3
:100FA000F5CF18F00900FFFFF5CF19F00A00FFFF99
:100FB000F5CF1AF0000E0A6E640E096E2A50076E05
:100FC000086A07BE080644EC10F0120E07240F6EE4
:100FD000000E0820106E000E126E030E116E2AEC29
:100FE00012F0290E0F24F66E060E1020F76E09007F
:100FF000FFFFF5CF15F00900FFFFF5CF16F00A004F
:10100000FFFFF5CF17F0BFEC0DF015C027F016C0AD
:1010100028F017C029F027C015F028C016F029C005
:1010200017F0000E126E030E116E000E046E0A0E03
:10103000036E2A50016E026A01BE0206D8EC10F05F
:1010400001C00FF002C010F02AEC12F0290E0F249C
:10105000F66E060E1020F76E0900FFFFF5CF18F0B0
:101060000900FFFFF5CF19F00A00FFFFF5CF1AF0D6
:10107000BFEC0DF05FD1FFFF2A50800A750FD8A09A
:1010800053D0000E0A6E0A0E096E2A50076E086AC7
:1010900007BE080644EC10F0090E07240F6E000E80
:1010A0000820106E000E126E030E116E2AEC12F064
:1010B000290E0F24F66E060E1020F76E0900FFFFB2
:1010C000F5CF15F00900FFFFF5CF16F00A00FFFF7E
:1010D000F5CF17F0000E126E030E116E000E046EA7
:1010E0000A0E036E2A50016E026A01BE0206D8EC97
:1010F00010F001C00FF002C010F02AEC12F0290E1F
:101100000F24F66E060E1020F76E0900FFFFF5CFD4
:1011100018F00900FFFFF5CF19F00A00FFFFF5CF27
:101120001AF0BFEC0DF006D1FFFF2A50030D290E77
:10113000F324F66E060EF420F76E0900FFFFF5CFDC
:1011400024F00900FFFFF5CF25F00A00FFFF0DD1C5
:10115000FFFF2A50800A120FD8A094D0000E126E02
:10116000030E116E000E0A6E0A0E096E000E046E5A
:10117000640E036E2A50016E026A01BE0206D8ECAC
:1011800010F001C007F002C008F044EC10F0090EA6
:1011900007240F6E000E0820106E2AEC12F0500E7D
:1011A0000F24F66E060E1020F76E0900FFFFF5CF34
:1011B00018F00900FFFFF5CF19F00A00FFFFF5CF87
:1011C0001AF0000E0A6E640E096E2A50076E086A45
:1011D00007BE080644EC10F0120E07240F6E000E36
:1011E0000820106E000E126E030E116E2AEC12F023
:1011F000500E0F24F66E060E1020F76E0900FFFF4A
:10120000F5CF15F00900FFFFF5CF16F00A00FFFF3C
:10121000F5CF17F0BFEC0DF015C027F016C028F081
:1012200017C029F027C015F028C016F029C017F004
:10123000000E126E030E116E000E046E0A0E036E87
:101240002A50016E026A01BE0206D8EC10F001C0FD
:101250000FF002C010F02AEC12F0500E0F24F66EC0
:10126000060E1020F76E0900FFFFF5CF18F00900F9
:10127000FFFFF5CF19F00A00FFFFF5CF1AF0BFEC22
:101280000DF058D0FFFF2A50800A750FD8A05AD011
:10129000000E0A6E0A0E096E2A50076E086A07BE13
:1012A000080644EC10F0090E07240F6E000E08200B
:1012B000106E000E126E030E116E2AEC12F0500E1C
:1012C0000F24F66E060E1020F76E0900FFFFF5CF13
:1012D00015F00900FFFFF5CF16F00A00FFFFF5CF6C
:1012E00017F0000E126E030E116E000E046E0A0E41
:1012F000036E2A50016E026A01BE0206D8EC10F09D
:1013000001C00FF002C010F02AEC12F0500E0F24B2
:10131000F66E060E1020F76E0900FFFFF5CF18F0ED
:101320000900FFFFF5CF19F00A00FFFFF5CF1AF013
:10133000BFEC0DF0FFFF15C024F016C025F017C05C
:1013400026F016D0FFFF2A50030D500EF324F66E40
:10135000060EF420F76E0900FFFFF5CF24F0090018
:10136000FFFFF5CF25F00A00FFFFFFFFF5CF26F0C6
:10137000FFFF1200FFFFFFFF2D6E6D0E2D64A2D048
:10138000000E126E030E116E000E0A6E0A0E096E2A
:10139000000E046E640E036E2DC001F0026AD8ECDC
:1013A00010F001C007F002C008F044EC10F0090E84
:1013B00007240F6E000E0820106E2AEC12F0290E82
:1013C0000F24F66E060E1020F76E0900FFFFF5CF12
:1013D00018F00900FFFFF5CF19F00A00FFFFF5CF65
:1013E0001AF0000E0A6E640E096E2DC007F0086A2E
:1013F00044EC10F0120E07240F6E000E0820106E41
:10140000000E126E030E116E2AEC12F0290E0F243C
:10141000F66E060E1020F76E0900FFFFF5CF15F0EF
:101420000900FFFFF5CF16F00A00FFFFF5CF17F018
:10143000BFEC0DF015C02AF016C02BF017C02CF031
:10144000000E126E030E116E000E046E0A0E036E75
:101450002DC001F0026AD8EC10F001C00FF002C0FC
:1014600010F02AEC12F0290E0F24F66E060E102052
:10147000F76E0900FFFFF5CF18F00900FFFFF5CF69
:1014800019F00A00FFFFF5CF1AF02AC015F02BC0A3
:1014900016F02CC017F0BFEC0DF015C027F016C0E9
:1014A00028F017C029F027C015F028C016F029C071
:1014B00017F0000E186E000E196E3F0E1A6EBFEC7C
:1014C0000DF084D0FFFF0A0E2D6463D0000E126E63
:1014D000030E116E000E046E0A0E036E2DC001F095
:1014E000026AD8EC10F001C00FF002C010F02AEC34
:1014F00012F0290E0F24F66E060E1020F76E09006A
:10150000FFFFF5CF18F00900FFFFF5CF19F00A0033
:10151000FFFFF5CF1AF0000E0A6E0A0E096E2DC0FD
:1015200007F0086A44EC10F0090E07240F6E000E55
:101530000820106E000E126E030E116E2AEC12F0CF
:10154000290E0F24F66E060E1020F76E0900FFFF1D
:10155000F5CF15F00900FFFFF5CF16F00A00FFFFE9
:10156000F5CF17F0BFEC0DF015C02AF016C02BF028
:1015700017C02CF02AC015F02BC016F02CC017F0A5
:10158000000E186E000E196E3F0E1A6EBFEC0DF0B5
:101590001DD0FFFF2D50030D290EF324F66E060E0D
:1015A000F420F76E0900FFFFF5CF15F00900FFFFEB
:1015B000F5CF16F00A00FFFFF5CF17F0000E186EFA
:1015C000000E196E3F0E1A6EBFEC0DF0FFFF15C036
:1015D00024F016C025F017C026F01200FFFFFFFF11
:1015E00030C034F0356A366A2F34343601E3358042
:1015F0003450396E33C034F0356A366A323434369A
:1016000001E335803450386E3950D8B40BD038509F
:10161000395CD8B00FD0395000083824346E180E19
:10162000346408D0FFFF31C02EF032C02FF033C039
:1016300030F0BAD0FFFF3850D8B40BD03950385CF6
:10164000D8B00FD0385000083924346E180E3464E6
:1016500008D0FFFF2EC02EF02FC02FF030C030F08A
:10166000A3D0FFFF060E376E30BE378E33BE378CE9
:101670002F8EFF0E2E16FF0E2F16000E3016328EF6
:10168000FF0E3116FF0E3216000E33163850395C3D
:10169000D8B01ED0FFFFD8903136323633363806F8
:1016A00039503818D8B40ED0370637C034F0070E8A
:1016B0003416D8B407D0EED7FFFFD89030322F328F
:1016C0002E32392AFFFF38503918D8B423D0F4D736
:1016D000FFFF3950385CD8B01DD0FFFFD8902E36B0
:1016E0002F363036390639503818D8B40ED0370670
:1016F00037C034F0070E3416D8B407D0EED7FFFF4A
:10170000D890333232323132382AFFFF385039180C
:10171000D8A4F5D7FFFF37AE0CD0FF0E2E1AFF0E60
:101720002F1AFF0E301A010E2E26000E2F22000E49
:101730003022FFFF37AC0CD0FF0E311AFF0E321AE9
:10174000FF0E331A010E3126000E3222000E332214
:10175000FFFF000E376E2E5031262F5032223050B0
:10176000332233AE0ED0FF0E311AFF0E321AFF0EA7
:10177000331A010E3126000E3222000E3322010EE2
:10178000376EFFFF31C001F032C002F033C003F00A
:1017900039C004F037C005F094EC0FF001C02EF012
:1017A00002C02FF003C030F0FFFF1200FFFFFFFF69
:1017B000000E00019B6F000E9A6F000E00019D6FDE
:1017C000000E9C6F000E00019F6F000E9E6F000EBA
:1017D0000001976F000E0001986F000E0001996FD5
:1017E000000E0001946FA00E0001956F400E0001E5
:1017F000966F030E926E000E936E000E946E8284AE
:10180000010E86EC11F022EC0FF0620E646E760E83
:10181000FFFFE82EFDD7642EFBD7A1D0FFFF8294F7
:10182000FA0EFFFFE82EFDD7000E8FEC12F0646E6B
:10183000645000019A6F9B6B000E8FEC12F0646E87
:10184000645000019C6F9D6BFA0EFFFFE82EFDD7E0
:1018500082841F0E00019A15646E000E00019B1514
:10186000656E64C065F0646A00019C5164120001F9
:101870009D516512D8906530666E643000019E6F90
:1018800066C09FF0800E406E000E416E860E426E66
:10189000060E436E9EC044F09FC045F04AEC03F034
:1018A000000E026E000EF5EC11F0800E026E000EBE
:1018B000036ED4EC11F094C018F095C019F096C0E6
:1018C0001AF09EC009F09FC00AF069EC12F009C03E
:1018D00015F00AC016F00BC017F0BFEC0DF015C0E4
:1018E00024F016C025F017C026F0000E276E800EDB
:1018F000286E450E296EAFEC0EF024C097F025C07F
:1019000098F026C099F0800E406E000E416E770E62
:10191000426E060E436E97C044F098C045F099C0E1
:1019200046F04AEC03F0000E026E010EF5EC11F0E9
:10193000800E026E000E036ED4EC11F0620E646E27
:10194000760EFFFFE82EFDD7642EFBD700D0620E87
:10195000646E760EFFFFE82EFDD7642EFBD7FFFFE7
:1019600000D05CD7FFFF03C007F0086A096A0234A1
:10197000073601E3088007500F6E0F50D8B45AD0D5
:1019800006C007F0086A096A0534073601E30880D3
:1019900007500E6E0E50D8B44DD0028EFF0E0116B9
:1019A000FF0E0216000E0316058EFF0E0416FF0E24
:1019B0000516000E0616000E0A6E000E0B6E000EC7
:1019C0000C6E000E0D6E7F0E0F5E0E50980F0F5EA8
:1019D000180E0E6EFFFFD8900A360B360C360D36F9
:1019E0000450015C0550025806500358D8A007D097
:1019F0000450015E0550025A0650035A0A80FFFF48
:101A0000D8900136023603360E2EE4D70FAE0ED034
:101A10000F50800A970FD8A00DD0FFFFD8900D323D
:101A20000C320B320A320F3EF8D719D0FFFF170ED7
:101A30000F6411D0FFFF000E016E000E026E000E4B
:101A4000036E000E046E14D0FFFFD8900A360B36DA
:101A50000C360D360F06FFFF0F50D8A4F5D7FFFF49
:101A60000AC001F00BC002F00CC003F00DC004F07E
:101A7000FFFF1200FFFFFFFF033404340C6E0C5015
:101A8000D8B45CD0063407340B6E0B50D8B456D0A3
:101A9000038EFF0E0116FF0E0216FF0E0316000E38
:101AA0000416068EFF0E0416FF0E0516FF0E061610
:101AB000000E0716000E076E000E086E000E096E6F
:101AC000000E0A6E7F0E0C5E0B50A00F0C5E200EF7
:101AD0000B6EFFFFD8900736083609360A360450D9
:101AE000015C055002580650035807500458D8A00E
:101AF00009D00450015E0550025A0650035A07509F
:101B0000045A0780FFFFD8900136023603360436A8
:101B10000B2EDFD70CAE0ED00C50800A9F0FD8A032
:101B20000DD0FFFFD8900A320932083207320C3E3E
:101B3000F8D719D0FFFF1F0E0C6411D0FFFF000E65
:101B4000016E000E026E000E036E000E046E14D0C5
:101B5000FFFFD8900736083609360A360C06FFFF15
:101B60000C50D8A4F5D7FFFF07C001F008C002F061
:101B700009C003F00AC004F0FFFF1200FFFFFFFFDF
:101B800017C01BF01C6A1D6A16341B3601E31C804B
:101B90001B501E6E1E50D8B40DD01AC01BF01C6A0C
:101BA0001D6A19341B3601E31C801B50236E235021
:101BB000D8A408D0FFFF000E156E000E166E000EA2
:101BC000176E56D0FFFF23507B0F1E2617C023F041
:101BD0001A50231A800E2316168E198EFF0E181611
:101BE000FF0E1916000E1A16000E1F6E000E206E44
:101BF000000E216E070E226EFFFF15A006D01850B2
:101C00001F26195020221A502122FFFFD890173288
:101C100016321532D890183619361A36222EECD7CD
:101C2000090E226EFFFF15A006D018501F2619506E
:101C300020221A502122FFFFD89017321632153277
:101C4000D890213220321F32222EECD71FC001F053
:101C500020C002F021C003F01EC004F023C005F034
:101C600094EC0FF001C015F002C016F003C017F09D
:101C7000FFFF1200FFFFFFFF2DC02FF0306A316A17
:101C80002C342F3601E330802F50396E3950D8B4C0
:101C900039D0170E2F6E2BC030F02CC031F02DC074
:101CA00032F02F28336E05D0FFFFD8903232313218
:101CB0003032FFFF332EF8D73050346E2C8EFF0EAB
:101CC0002B16FF0E2C16000E2D162B50356E2C5099
:101CD000366E2D50376E386A8E0E395E39AE0ED0A4
:101CE0003950800A8F0FD8A00DD0FFFFD89038321E
:101CF000373236323532393EF8D719D0FFFF170E5A
:101D0000396411D0FFFF000E2B6E000E2C6E000EFA
:101D10002D6E000E2E6E20D0FFFFD8903536363651
:101D2000373638363906FFFF3950D8A4F5D7FFFFCC
:101D30003450D8B408D0381E371E361E356C000E0D
:101D4000362237223822FFFF35C02BF036C02CF068
:101D500037C02DF038C02EF0FFFF1200FFFFFFFF4D
:101D600026C02AF02B6A2C6A25342A3601E32B8000
:101D70002A50316E3150D8B40DD029C02AF02B6AC8
:101D80002C6A28342A3601E32B802A50326E3250D6
:101D9000D8A408D0FFFF000E246E000E256E000EA2
:101DA000266E4DD0FFFF000E2E6E000E2F6E000E21
:101DB000306E3250890F315E26C032F02950321A0F
:101DC000800E3216258EFF0E2416FF0E2516000EED
:101DD0002616288EFF0E2716FF0E2816000E29162F
:101DE000180E2D6EFFFFD8902E362F363036275026
:101DF000245C2850255829502658D8A007D02750B1
:101E0000245E2850255A2950265A2E80FFFFD8904C
:101E10002436253626362D2EE5D72EC001F02FC0CC
:101E200002F030C003F031C004F032C005F094EC91
:101E30000FF001C024F002C025F003C026F0FFFF20
:101E40001200FFFFFFFF620E026E760EFFFFE82E0C
:101E5000FDD7022EFBD700D0620E026E760EFFFF7A
:101E6000E82EFDD7022EFBD700D0360E026E9A0E5A
:101E7000FFFFE82EFDD7022EFBD700D0300E816E7B
:101E8000818600F08196310E026EBB0EFFFFE82EB8
:101E9000FDD7022EFBD7300E816E818600F0819631
:101EA0000A0E026EBE0EFFFFE82EFDD7022EFBD7F4
:101EB00000D0300E816E818600F081960A0E026E8F
:101EC000BE0EFFFFE82EFDD7022EFBD700D0200E5E
:101ED000816E818600F081960A0E026EBE0EFFFFB3
:101EE000E82EFDD7022EFBD700D0010E54EC12F0E5
:101EF000280E54EC12F0080E54EC12F0060E54ECBE
:101F000012F0140E54EC12F00C0E54EC12F0030EFE
:101F1000026EEC0EFFFFE82EFDD7022EFBD7280E37
:101F200054EC12F01200FFFFFFFF0450D8B405D0AC
:101F3000015002100310D8A40ED0FFFF000E016E56
:101F4000000E026E000E036E4ED0FFFF042AD890E2
:101F5000033202320132FFFF000E0114066E000E42
:101F60000214076EFE0E0314086E065007100810C8
:101F7000D8B40DD0EAD7FFFF042A010E0126000EC7
:101F80000222000E0322D890033202320132FFFFF8
:101F9000000E0114066E000E0214076EFF0E0314ED
:101FA000086E065007100810D8B407D0E4D7FFFF1A
:101FB0000406D890013602360336FFFF02BE03D076
:101FC000020E0460F4D7FFFF04A0029ED8900432F2
:101FD000045003120550D8A4038E01C001F002C0C2
:101FE00002F003C003F0FFFF1200FFFFFFFF03AE8C
:101FF00016D001C007F002C008F003C009F0071EA8
:10200000081E091E072A000E08220922000E0724B6
:10201000016E000E0820026E800E0920036EFFFF85
:1020200006AE16D004C007F005C008F006C009F0DF
:10203000071E081E091E072A000E08220922000E8C
:102040000724046E000E0820056E800E0920066E1F
:10205000FFFF000E011A000E021A800E031A000E76
:10206000041A000E051A800E061A0450015C055071
:10207000025806500358D8B002D0D89002D0FFFFC3
:10208000D880FFFF1200FFFFFFFF000E0C6E0AAEAC
:1020900006D0096C0A1ED8B00A2A010E0C6EFFFF8A
:1020A00008AE06D0076C081ED8B0082A010E0C1A1C
:1020B000FFFF000E0E6E000E0D6E09500A10D8B410
:1020C00020D0010E0B6E05D0FFFFD89009360A36DE
:1020D0000B2AFFFF0AAEF8D7FFFFD8900D360E3659
:1020E0000950075C0A500858D8A005D00950075E6F
:1020F0000A50085A0D80FFFFD8900A3209320B2E81
:10210000EBD7FFFF0C50D8B404D00D6C0E1ED8B026
:102110000E2AFFFF0DC007F00EC008F01200FFFFEF
:10212000FFFF000E096E000E0A6E000E0B6E000E11
:102130000C6E0550061007100810D8B42ED0010EF2
:102140000D6E07D0FFFFD8900536063607360836E5
:102150000D2AFFFF08AEF6D7FFFFD89009360A36E2
:102160000B360C360550015C0650025807500358D8
:1021700008500458D8A009D00550015E0650025AF4
:102180000750035A0850045A0980FFFFD8900832BC
:102190000732063205320D2EDFD7FFFF09C001F0EE
:1021A0000AC002F00BC003F00CC004F01200FFFFE5
:1021B000FFFF000E066E02AE06D0016C021ED8B004
:1021C000022A010E066EFFFF04AE04D0036C041E4B
:1021D000D8B0042AFFFF03500410D8B41CD0010E5D
:1021E000056E05D0FFFFD89003360436052AFFFFA1
:1021F00004AEF8D7FFFF0350015C04500258D8A08A
:1022000004D00350015E0450025AFFFFD8900432FC
:102210000332052EEFD7FFFF0650D8B404D0016C6F
:10222000021ED8B0022AFFFF01C001F002C002F076
:102230001200FFFFFFFF1250131014101510D8B436
:1022400028D0010E166E07D0FFFFD8901236133635
:1022500014361536162AFFFF15AEF6D7FFFF1250BB
:102260000E5C13500F581450105815501158D8A028
:1022700008D012500E5E13500F5A1450105A1550B9
:10228000115AFFFFD8901532143213321232162E23
:10229000E5D7FFFF0EC00EF00FC00FF010C010F01A
:1022A00011C011F01200FFFFFFFF8E0E116E07D05C
:1022B000FFFFD8900C320B320A320932112AFFFF8D
:1022C000000E09140D6E000E0A140E6E000E0B1493
:1022D0000F6EFF0E0C14106E0D500E100F1010101C
:1022E000D8A4E6D709C001F00AC002F00BC003F081
:1022F00011C004F0000E056E94EC0FF001C009F05F
:1023000002C00AF003C00BF01200FFFFFFFF016ED6
:10231000000EC76E300EC66E10D0FFFFC78C02D005
:10232000FFFFC79CFFFFC69816D0FFFFC78C02D0E7
:10233000FFFFC79CFFFFC6880ED0FFFF0150000AB9
:10234000D8B4EBD7010AD8B4EBD7030AD8B4EDD789
:10235000010AD8B4EDD7FFFF94969488949A12009E
:10236000FFFFFFFF3D503E103F10D8B406D0000ED7
:102370003D1A000E3E1A800E3F1AFFFF3AC02EF0A3
:102380003BC02FF03CC030F03DC031F03EC032F0D9
:102390003FC033F0EFEC0AF02EC03AF02FC03BF014
:1023A00030C03CF01200FFFFFFFF000E056E0DD0A5
:1023B000FFFF0550010DF3500224D96EF4500320A5
:1023C000DA6EDF5013EC12F0052AFFFF0550010D05
:1023D000F3500224D96EF4500320DA6E0A0EDE1890
:1023E000D8B41200FFFFE4D7FFFFFFFF046EFA0E20
:1023F000FFFFE82EFDD70404D8A405D00250C00F7B
:1024000054EC12F005D0FFFF0250800F54EC12F094
:10241000FFFF050E036EDF0EFFFFE82EFDD7032E34
:10242000FBD71200FFFFFFFF016EFA0EFFFFE82E41
:10243000FDD70150F00B816E8184818600F081967A
:102440000138F00B816E8184818600F08196819441
:102450001200FFFFFFFF0F501102F3CF13F0F4CF74
:1024600014F00F501202F350142610501102F350C2
:10247000142613C00FF014C010F01200FFFFFFFF6E
:10248000015002100310D8B406D0000E011A000E3D
:10249000021A800E031AFFFF01C001F002C002F011
:1024A00003C003F01200FFFFFFFF016EFA0EFFFFF3
:1024B000E82EFDD781940150F00B816E818600F0EB
:1024C00081960138F00B816E818600F081961200B2
:1024D000FFFFFFFF09C001F00AC002F0036A8E0E81
:1024E000046E000E056E94EC0FF001C009F002C0FE
:1024F0000AF003C00BF01200FFFFFFFF036E000E97
:10250000026E3A0E036005D02F0E036402D0010E56
:10251000026EFFFF02C001F001301200FFFFFFFF5B
:10252000026E025098EC12F0A7EC12F01200FFFFBE
:10253000FFFF016E01C0C9FFA0EC12F01200FFFF07
:10254000FFFFFFFFC7B01200FFFFFBD7FFFFFFFF3A
:10255000A0EC12F0C9501200FFFF000EF86E00014F
:06256000D7EF0BF0FFFFB6
:020000040020DA
:08000000FFFFFFFFFFFFFFFF00
:020000040030CA
:0E000000FF210E0EFF0181FF0FC00FE00F4029
:00000001FF
