:0600000000F075EF1FF097
:103EE800FFFF000EF86E0001AAEF1FF0FFFF0A0E99
:103EF800BD6ECD8E819E818E819E620E016E760E84
:103F0800FFFFE82EFDD7012EFBD700D01200FFFFE0
:103F1800FFFFFFFF818E000ECE6E01C0BEFF02C004
:103F2800BFFFCD80FFFF9EA4FDD79E94CD90819EBC
:103F3800000ECE6E03C0BEFF04C0BFFFCD80FFFFE2
:103F48009EA4FDD79E94CD901200FFFFFFFF000EA8
:103F58000C6E0A0E0B6E000E926E000E936E000E23
:103F6800946E4A0E086E380E076E030E0E6EE80E3B
:103F78000D6E000E066E000E056E7AEC1FF0FFFF48
:103F8800000E0A6E000E096EFFFF0ABE06D00A5028
:103F980012E1050E095CD8B00ED0FFFF0DC001F08C
:103FA8000EC002F007C003F008C004F08DEC1FF04B
:103FB800094A0A2AE9D7FFFF0B50075E0C50085A36
:103FC8000B500D260C500E22BC0E0D1808E1020EE7
:103FD8000E18D8A404D0000E0C6E0A0E0B6EFFFF4C
:103FE800FC0E0D18CCE1080E0E18D8A4C8D7FF0E89
:083FF8000C6EF60E0B6EC3D730
:020000040020DA
:08000000FFFFFFFFFFFFFFFF00
:020000040030CA
:0E000000FF210E0EFF0181FF0FC00FE00F4029
:00000001FF
