:0600000000F01BEF1FF0F1
:103E3400FFFF000EF86E0001A6EF1FF0FFFF800EDB
:103E4400C26E090EC16E1200FFFFFFFF0A0EBD6EA7
:103E5400800ECD6E819E1200FFFFFFFF818E025007
:103E6400BF6E01C0BEFF000ECF6E000ECE6ECD80C1
:103E7400FFFF9EA440EF1FF043EF1FF0FFFF3AEF58
:103E84001FF0FFFF9E94CD90819E0450BF6E03C02F
:103E9400BEFF000ECF6E000ECE6ECD80FFFF9EA43F
:103EA40056EF1FF059EF1FF0FFFF50EF1FF0FFFF19
:103EB4009E94CD901200FFFFFFFFC280C80EFFFF4B
:103EC40000F0E82EFCD7C2846AEF1FF0FFFF00F079
:103ED400FFFFC2B470EF1FF073EF1FF0FFFF68EF36
:103EE4001FF0FFFFC4CF08F0096A08C003F009C03F
:103EF40004F0D89003360436D8900336043603C051
:103F040008F004C009F0C3CF06F0076A06C003F046
:103F140007C004F0060E056EFFFF043404320332BA
:103F2400052E8EEF1FF003C006F004C007F0065004
:103F34000824086E07500920096E08C001F009C062
:103F440002F01200FFFFFFFFFFFF000E926E000E53
:103F5400936E000E946E4E0E0D6EE80E0C6E010EF6
:103F64000B6EF40E0A6E27EC1FF020EC1FF0FFFF1F
:103F74005EEC1FF001C010F002C011F0D8901034B4
:103F8400106E1134116E930E105C090E1158D8A0E6
:103F9400CEEF1FF0D1EF1FF0FFFFD6EF1FF0FFFFB2
:103FA400090E116E600E106EFFFF000E0F6E000EF4
:103FB4000E6EFFFF10500A24016E11500B20026E8A
:103FC40010500C5C036E11500D58046E2FEC1FF052
:103FD4000E4A0F2A0FBEF8EF1FF00F500AE1050E2C
:103FE4000E5CD8A0F8EF1FF0FBEF1FF0FFFFDBEF34
:0C3FF4001FF0FFFFB9EF1FF001EF00F01D
:020000040020DA
:08000000FFFFFFFFFFFFFFFF00
:020000040030CA
:0E000000FF210E0EFF0181FF0FC00FE00F4029
:00000001FF
