:0600000000F044EF0AF0DD
:10060000006C696768743A202564206C780A0000E1
:10061000FFFF1EC036F01FC037F020C038F021C0E9
:1006200039F022C03AF023C03BF024C03CF025C092
:100630003DF03DBE1EEF03F022EF03F0FFFF010E81
:1006400024EF03F0FFFF000EFFFF346E356A3450D5
:100650003510D8B42EEF03F031EF03F0FFFF42EF77
:1006600003F0FFFF3D1E3C1E3B1E3A1E391E381E86
:10067000371E366C000E3722382239223A223B22AE
:100680003C223D22FFFF6DBE48EF03F04BEF03F02D
:10069000FFFF4DEF03F0FFFF6E92FFFF6DBE5CEFBB
:1006A00003F06D5006E16C04D8B059EF03F05CEF35
:1006B00003F0FFFF63EF03F0FFFF000E316E010E4A
:1006C000306E68EF03F0FFFF6CC030F06DC031F0AA
:1006D000FFFF6AC032F06BC033F034503510D8A43D
:1006E00074EF03F077EF03F0FFFF80EF03F0FFFFFD
:1006F0006EA47DEF03F080EF03F0FFFF84EF03F0C3
:10070000FFFF3206D8A03306FFFF000E3F6E1F0E1C
:100710003E6E000E01011F6F0BEF04F0FFFF3E065F
:10072000D8A03F06000E3E24D96E010E3F20DA6E9F
:1007300036C001F037C002F038C003F039C004F011
:100740003AC005F03BC006F03CC007F03DC008F0E1
:100750000A0E096E000E0A6E000E0B6E000E0C6E75
:10076000000E0D6E000E0E6E000E0F6E000E106E5F
:1007700067EC06F001C026F002C027F003C028F0A5
:1007800004C029F005C02AF006C02BF007C02CF0E9
:1007900008C02DF026C013F028C014F0FDEC09F0BD
:1007A0001350300FDF6E3006D8A031063206D8A0C5
:1007B000330636C001F037C002F038C003F039C04C
:1007C00004F03AC005F03BC006F03CC007F03DC065
:1007D00008F00A0E096E000E0A6E000E0B6E000E77
:1007E0000C6E000E0D6E000E0E6E000E0F6E000EE3
:1007F000106E8DEC05F001C036F002C037F003C07A
:1008000038F004C039F005C03AF006C03BF007C02C
:100810003CF008C03DF0FFFF3FBE17EF04F03F5033
:1008200009E13E04D8A017EF04F01AEF04F0FFFF2F
:1008300052EF04F0FFFF36503710381039103A10DD
:100840003B103C103D10D8A428EF04F02BEF04F02F
:10085000FFFF8EEF03F0FFFF31BE3AEF04F031509F
:1008600006E13004D8B037EF04F03AEF04F0FFFFB0
:100870008EEF03F0FFFF33BE46EF04F0335009E183
:100880003204D8A046EF04F049EF04F0FFFF52EF26
:1008900004F0FFFF6EB24FEF04F052EF04F0FFFFE1
:1008A0008EEF03F0FFFF34503510D8A45AEF04F058
:1008B0005DEF04F0FFFF66EF04F0FFFF6EA463EF4F
:1008C00004F066EF04F0FFFF89EF04F0FFFF3E063F
:1008D000D8A03F0634503510D8A471EF04F074EF5F
:1008E00004F0FFFF7BEF04F0FFFF000E2F6E2B0ED6
:1008F0002E6E80EF04F0FFFF000E2F6E2D0E2E6E79
:10090000FFFF000E3E24D96E010E3F20DA6E2EC08E
:10091000DFFFFFFF1CC011F01DC012F0000E3E24CF
:10092000136E010E3F20146E32C015F033C016F066
:10093000AEEC07F011C01CF012C01DF01200FFFF5A
:10094000FFFF42C0D9FF43C0DAFFDECFF6FFDDCFA5
:10095000F7FF0800FFFFF550250AD8A4B2EF04F016
:10096000B5EF04F0FFFF6DEF05F0FFFF42C0D9FFC8
:1009700043C0DAFFDE2A000EDD22000E6B6E000E91
:100980006A6E6AC06EF06BC06FF06C686D6842C0D2
:10099000D9FF43C0DAFFDECFF6FFDDCFF7FF080057
:1009A000FFFFF550640AD8B4D8EF04F0DBEF04F091
:1009B000FFFFF0EF04F0FFFF42C0D9FF43C0DAFFB2
:1009C000DECFF6FFDDCFF7FF0800FFFFF550690A25
:1009D000D8A4EDEF04F0F0EF04F0FFFF31EF05F0E5
:1009E000FFFF42C0D9FF43C0DAFFDE2A000EDD223E
:1009F00044C0D9FF45C0DAFFDFCF46F0020EDE2645
:100A0000DFCF47F0000EDD2246C0D9FF47C0DAFF36
:100A1000DECF48F0DDCF49F0000E49BEFF0E4A6E32
:100A20004B6E4C6E4D6E4E6E4F6E40C01CF041C012
:100A30001DF048C01EF049C01FF04AC020F04BC056
:100A400021F04CC022F04DC023F04EC024F04FC026
:100A500025F008EC03F01CC040F01DC041F08AEF07
:100A600005F0FFFF42C0D9FF43C0DAFFDECFF6FF3B
:100A7000DDCFF7FF0800FFFFF550250AD8A443EFAC
:100A800005F046EF05F0FFFF5FEF05F0FFFF42C006
:100A9000D9FF43C0DAFFDE2A000EDD22000E026E0F
:100AA000250E016E40C003F041C004F01FEC08F0B9
:100AB000FFFF000E416E010E406E8AEF05F0FFFF52
:100AC00042C0D9FF43C0DAFFDE2A000EDD22000E4D
:100AD000416E000E406E8AEF05F0FFFF42C0D9FF65
:100AE00043C0DAFFDECFF6FFDDCFF7FF0800FFFFE0
:100AF000F550016E026A40C003F041C004F01FECE3
:100B000008F042C0D9FF43C0DAFFDE2A000EDD2222
:100B100058EF05F0FFFF1200FFFFFFFF000E126EFF
:100B200010BE98EF05F095EF05F0FFFFABEF05F075
:100B3000FFFF101E0F1E0E1E0D1E0C1E0B1E0A1E8A
:100B4000096C000E0A220B220C220D220E220F220B
:100B50001022010E126EFFFF08BEB4EF05F0B1EFD8
:100B600005F0FFFFC7EF05F0FFFF081E071E061E7A
:100B7000051E041E031E021E016C000E022203222B
:100B800004220522062207220822010E121AFFFF64
:100B900020EE13F0070EDE6AE806FDE209500A10A7
:100BA0000B100C100D100E100F101010D8B4DBEF3E
:100BB00005F0DEEF05F0FFFF39EF06F0FFFF010E55
:100BC000116EEEEF05F0FFFFD89009360A360B36AE
:100BD0000C360D360E360F361036112AFFFF10AECA
:100BE000F4EF05F0F7EF05F0FFFFE3EF05F0FFFF8F
:100BF000FFFFD890133614361536163617361836CA
:100C000019361A360950015C0A5002580B50035825
:100C10000C5004580D5005580E5006580F500758E8
:100C200010500858D8A017EF06F01AEF06F0FFFF93
:100C30002CEF06F0FFFF0950015E0A50025A0B50DC
:100C4000035A0C50045A0D50055A0E50065A0F50B4
:100C5000075A1050085A1380FFFFD89010320F32F5
:100C60000E320D320C320B320A320932112EF8EFED
:100C700005F0FFFF1250D8B440EF06F043EF06F046
:100C8000FFFF54EF06F0FFFF1A1E191E181E171E55
:100C9000161E151E141E136C000E14221522162289
:100CA0001722182219221A22FFFF13C001F014C0C4
:100CB00002F015C003F016C004F017C005F018C00C
:100CC00006F019C007F01AC008F01200FFFFFFFF7E
:100CD000000E126E08BE72EF06F06FEF06F0FFFF17
:100CE00085EF06F0FFFF081E071E061E051E041EE8
:100CF000031E021E016C000E0222032204220522A2
:100D0000062207220822010E126EFFFF10BE8EEF90
:100D100006F08BEF06F0FFFF9FEF06F0FFFF101EBF
:100D20000F1E0E1E0D1E0C1E0B1E0A1E096C000E41
:100D30000A220B220C220D220E220F221022FFFF6C
:100D400009500A100B100C100D100E100F1010107F
:100D5000D8B4ADEF06F0B0EF06F0FFFF01EF07F0FB
:100D6000FFFF010E116EC0EF06F0FFFFD8900936AD
:100D70000A360B360C360D360E360F361036112A63
:100D8000FFFF10AEC6EF06F0C9EF06F0FFFFB5EFAC
:100D900006F0FFFFFFFF0950015C0A5002580B509C
:100DA00003580C5004580D5005580E5006580F505B
:100DB000075810500858D8A0E0EF06F0E3EF06F00F
:100DC000FFFFF4EF06F0FFFF0950015E0A50025AE0
:100DD0000B50035A0C50045A0D50055A0E50065A27
:100DE0000F50075A1050085AFFFFD89010320F3298
:100DF0000E320D320C320B320A320932112ECAEF8A
:100E000006F0FFFF1250D8B408EF07F00BEF07F021
:100E1000FFFF1CEF07F0FFFF081E071E061E051E42
:100E2000041E031E021E016C000E02220322042275
:100E30000522062207220822FFFF01C001F002C09E
:100E400002F003C003F004C004F005C005F006C0C2
:100E500006F007C007F008C008F01200FFFFFFFF10
:100E6000000E0001E76F000EE56F000EE46F000E4C
:100E7000926E000E936E000E946EA7EC0AF0A00E18
:100E80000E6E860E0F6E010E106E000E116E25ECAA
:100E900009F0020E676E860E666EDB0EFFFFE82E0F
:100EA000FDD7662EFBD7672EF9D7FFFF98EC0AF027
:100EB000230EBAEC0AF0110EB2EC0AF077EC0AF04D
:100EC000030E676EBE0E666EBE0EFFFFE82EFDD7E8
:100ED000662EFBD7672EF9D700D098EC0AF0240EC7
:100EE000BAEC0AF0010E56EC09F00001E66F000EB4
:100EF00056EC09F00001E76F77EC0AF00001E751CA
:100F0000E6C066F0676A66C067F0666A6610E46FFE
:100F10006750E56F800E586E000E596E010E5A6EC6
:100F2000060E5B6EE4C05CF0E5C05DF085EC09F098
:100F3000800E026E000E036ED6EC09F0080E676E8E
:100F40009E0E666E4C0EFFFFE82EFDD7662EFBD779
:100F5000672EF9D755EF07F001EF00F0FFFF6EA005
:100F6000B4EF07F0B7EF07F0FFFFC2EF07F0FFFFA6
:100F700013C00AF014C00BF011C00CF012C00DF039
:100F8000AEEC09F0FFFF16BEC8EF07F0CBEF07F09D
:100F9000FFFFD2EF07F0FFFF15C01AF016C01BF0DD
:100FA000D7EF07F0FFFF000E1B6E000E1A6EFFFF5B
:100FB000000E196E000E186EEBEF07F0FFFF000E2B
:100FC000026E200E016E11C003F012C004F01FEC7F
:100FD00008F0184A192AFFFF1A50185C1950800AA5
:100FE000176E1B50800A1758D8A0F9EF07F0FCEFD6
:100FF00007F0FFFFDEEF07F0FFFF6EB002EF08F033
:1010000005EF08F0FFFF10EF08F0FFFF13C00AF034
:1010100014C00BF011C00CF012C00DF0AEEC09F0D2
:10102000FFFF13C001F014C002F023EC0AF01A50C5
:101030000124116E1B500220126E1200FFFFFFFFF1
:1010400003500410D8B427EF08F02AEF08F0FFFF90
:1010500035EF08F0FFFF03500410D8A432EF08F07A
:1010600035EF08F0FFFF3BEF08F0FFFF0150C1EC48
:101070000AF08DEF08F0FFFF20EE04F00350D926B0
:101080000450DA22DE50DE10D8B449EF08F04CEFFD
:1010900008F0FFFF69EF08F0FFFF20EE04F00350B7
:1010A000D9260450DA2210EE02F00350E126045053
:1010B000E222DE50E65CE650800A096EDE50800ACD
:1010C0000958D8B066EF08F069EF08F0FFFF8DEF20
:1010D00008F0FFFF20EE02F00350D9260450DA2278
:1010E000DECF05F0DDCF06F003C0D9FF04C0DAFF84
:1010F000DECF07F0DDCF08F005500724D96E06508B
:101100000820DA6E01C0DFFF20EE02F00350D9267E
:101110000450DA22DE2A000EDD22FFFF1200FFFF5C
:10112000FFFF000E096E000E0A6E000E0B6E000E21
:101130000C6E0550061007100810D8B4A2EF08F086
:10114000A5EF08F0FFFFE4EF08F0FFFF010E0D6EC2
:10115000B1EF08F0FFFFD89005360636073608369F
:101160000D2AFFFF08AEB7EF08F0BAEF08F0FFFF57
:10117000AAEF08F0FFFFFFFFD89009360A360B36BA
:101180000C360550015C06500258075003580850B1
:101190000458D8A0CEEF08F0D1EF08F0FFFFDBEF46
:1011A00008F0FFFF0550015E0650025A0750035A2F
:1011B0000850045A0980FFFFD890083207320632DF
:1011C00005320D2EBBEF08F0FFFF09C001F00AC089
:1011D00002F00BC003F00CC004F01200FFFFFFFF91
:1011E00052C056F053C057F0000E696E000E686E84
:1011F0000DEF09F0FFFF50C040F051C041F0560E16
:10120000426E000E436E54C044F055C045F0A0EC51
:1012100004F04050682641506922FFFF56C0F6FF97
:1012200057C0F7FF0800FFFFF5500009D8A41BEFD7
:1012300009F01EEF09F0FFFFFAEF08F0FFFF68C0AA
:1012400050F069C051F01200FFFFFFFF94869488B0
:10125000800EC76E280EC66E000EC56E000E016EA3
:10126000240E026EF40E036E000E046E0EC012F019
:101270000FC013F010C014F011C015F0020EFFFFE4
:10128000D8901236133614361536E82E3FEF09F093
:1012900012C005F013C006F014C007F015C008F026
:1012A00090EC08F00104C86E1200FFFFFFFF016E12
:1012B000C586FFFFC7A05FEF09F062EF09F0FFFFEF
:1012C00059EF09F0FFFFC9CF02F00104D8A46BEF7A
:1012D00009F06EEF09F0FFFF73EF09F0FFFFC59A09
:1012E000C58876EF09F0FFFFC58AC588FFFFC5B83E
:1012F0007CEF09F07FEF09F0FFFF76EF09F0FFFFC9
:1013000060EC0AF002501200FFFFFFFF5C0E5E6E01
:10131000000E5F6E58C060F059C061F0000E636E41
:10132000000E626E000E656E000E646E600E506EF2
:10133000000E516E5AC052F05BC053F05E0E546EF8
:10134000000E556EEFEC08F062505824D96E6350D1
:101350005920DA6E000EDF6E1200FFFFFFFF000E55
:10136000106E000E0F6EC1EF09F0FFFF0EC001F00E
:10137000026A0CC003F00DC004F01FEC08F00F4A25
:10138000102AFFFF0F500A24D96E10500B20DA6E7E
:10139000DF500E6E0E50D8A4D0EF09F0D3EF09F055
:1013A000FFFFB5EF09F0FFFF1200FFFFFFFF000E88
:1013B000056EE6EF09F0FFFF05500224D96E000E1E
:1013C0000320DA6EDF5088EC0AF0052AFFFF055093
:1013D0000224D96E000E0320DA6E0A0EDE18D8A49D
:1013E000F4EF09F0F7EF09F0FFFFDBEF09F0FFFF83
:1013F0000A0E88EC0AF01200FFFFFFFF14BE0CEF8C
:101400000AF0145006E11304D8B009EF0AF00CEF0B
:101410000AF0FFFF1BEF0AF0FFFF13C015F014C026
:1014200016F0151E161E154A162A15C013F016C002
:1014300014F020EF0AF0FFFF13C013F014C014F0F3
:10144000FFFF1200FFFFFFFF01C003F002C004F026
:101450002DEF0AF0FFFF014A022AFFFF01C0D9FF6A
:1014600002C0DAFFDF50D8A438EF0AF03BEF0AF0F1
:10147000FFFF2AEF0AF0FFFF0350015C016E0450EA
:101480000258026E1200FFFF8A0EF66E150EF76EFE
:10149000000EF86E0900F5CFE8F001EE00F0200E26
:1014A000EE6AE806FDE100EE68F0080EEE6AE80676
:1014B000FDE1000EF86E060EF76E00012FEF07F04B
:1014C000FFFFFFFFC7B067EF0AF06AEF0AF0FFFF08
:1014D00061EF0AF0FFFFC7B470EF0AF073EF0AF094
:1014E000FFFF61EF0AF0FFFF9E961200FFFFFFFF74
:1014F00060EC0AF0C584FFFFC5B481EF0AF084EF09
:101500000AF0FFFF7BEF0AF0FFFF9E961200FFFF3D
:10151000FFFF016E01C0ADFFFFFFACA292EF0AF02A
:1015200095EF0AF0FFFF8CEF0AF0FFFF1200FFFFBC
:10153000FFFFC580FFFFC5B0A0EF0AF0A3EF0AF0E0
:10154000FFFF9AEF0AF0FFFF9E961200FFFFFFFFDA
:10155000948E949C080EAF6E240EAC6E900EAB6E03
:101560001200FFFFFFFF016E01C0C9FF60EC0AF02F
:101570001200FFFFFFFF026E0250B2EC0AF01200F1
:0B158000FFFFFFFF1200FFFFFFFF2333
:020000040020DA
:08000000FFFFFFFFFFFFFFFF00
:020000040030CA
:0E000000FF260E0EFF0181FF0FC00FE00F4024
:00000001FF
