:0600000000F07FEF06F0A6
:100600000001000A006400E80310276368616E6E51
:100610002041203D20256420200A006368616E6E21
:100620002042203D20256420200A0000FFFF110EFB
:10063000146E000E156E9AD0FFFF250E1A18D8B44E
:1006400009D00DC0D9FF0EC0DAFF1AC0DFFF0D4A76
:100650000E2A8CD0FFFF000E166E0FC0F6FF10C0E2
:10066000F7FF0F4A102A0800FFFFF5CF1AF01A50C3
:10067000000AD8B489D0640AD8B403D00D0AD8A42B
:1006800075D0FFFF14C0D9FF15C0DAFFDECF18F018
:10069000DDCF19F0020E1426000E152219AE06D079
:1006A000030E1612186C191ED8B0192AFFFF010E7E
:1006B0001A6EFFFF050E1A18D8B414D01A50020D86
:1006C000010EF324F66E060EF420F76E0900FFFF0C
:1006D000F550185C0900FFFFF5501958D8A002D05A
:1006E0001A2AE7D7FFFF16C013F0030E1316D8B46B
:1006F00008D00DC0D9FF0EC0DAFF2D0EDF6E0D4AF7
:100700000E2AFFFF1AC017F02CD0FFFF1750020D62
:10071000010EF324F66E060EF420F76E0900FFFFBB
:10072000F5CF03F00A00FFFFF5CF04F018C001F089
:1007300019C002F07BEC05F001C008F002C009F01E
:10074000000E0B6E0A0E0A6ED6EC05F00850300F44
:100750001A6E0DC0D9FF0EC0DAFF1AC0DFFF0D4AB6
:100760000E2AFFFF17061728D8A4CFD7FFFF0FC008
:10077000F6FF10C0F7FF0F4A102A0800FFFFF5CF61
:100780001AF01A50D8A458D7FFFF0DC0D9FF0EC0D9
:10079000DAFF000EDF6E1200FFFFFFFF000E326E69
:1007A000000E316E000E346E000E336E000E366E8B
:1007B000000E356E070E926E000E936E000E946E54
:1007C000828478EC06F0010EABEC05F07FEC04F0CF
:1007D000620E1B6E760EFFFFE82EFDD71B2EFBD799
:1007E0008BD0FFFF000E026E000E016EF1EC04F0E4
:1007F0003EEC05F001C031F002C032F08294FA0EF6
:10080000FFFFE82EFDD7000E69EC06F031C01BF0AB
:1008100032C01CF0D8901C321B32D8901C321B32D4
:100820001B5069EC06F0FA0EFFFFE82EFDD782841C
:100830000A0E1B6EBE0EFFFFE82EFDD71B2EFBD748
:1008400000D0000E026E010E016EF1EC04F03EECE1
:1008500005F001C033F002C034F01D0E0D6E000E25
:100860000E6E0B0E0F6E060E106E33C011F034C0FC
:1008700012F016EC03F0000E026E000E1FEC06F0F4
:100880001D0E026E000E036EFEEC05F0000E026EF1
:10089000020E016EF1EC04F03EEC05F001C035F003
:1008A00002C036F01D0E0D6E000E0E6E1B0E0F6E8A
:1008B000060E106E35C011F036C012F016EC03F0C3
:1008C000000E026E010E1FEC06F01D0E026E000EF1
:1008D000036EFEEC05F0620E1B6E760EFFFFE82E37
:1008E000FDD71B2EFBD700D0620E1B6E760EFFFFCE
:1008F000E82EFDD71B2EFBD7FFFF00D072D7FFFFDE
:10090000620E026E760EFFFFE82EFDD7022EFBD799
:1009100000D0620E026E760EFFFFE82EFDD7022E8B
:10092000FBD700D0360E026E9A0EFFFFE82EFDD7E1
:10093000022EFBD700D0300E816E818600F08196AA
:10094000310E026EBB0EFFFFE82EFDD7022EFBD745
:10095000300E816E818600F081960A0E026EBE0E08
:10096000FFFFE82EFDD7022EFBD700D0300E816EA0
:10097000818600F081960A0E026EBE0EFFFFE82E01
:10098000FDD7022EFBD700D0200E816E818600F0AD
:1009900081960A0E026EBE0EFFFFE82EFDD7022ED4
:1009A000FBD700D0010E54EC06F0280E54EC06F0F4
:1009B000080E54EC06F0060E54EC06F0140E54EC3F
:1009C00006F00C0E54EC06F0030E026EEC0EFFFF68
:1009D000E82EFDD7022EFBD7280E54EC06F01200AD
:1009E000FFFFFFFF26D0FFFFC29602D0FFFFC286A7
:1009F000FFFFC29803D0FFFFC29605D0FFFFC29A47
:100A00003AD0FFFFC286FFFFC288F8D7FFFFC29629
:100A100002D0FFFFC286FFFFC29803D0FFFFC2963D
:100A200005D0FFFFC28A27D0FFFFC286FFFFC28822
:100A3000F8D7FFFF01C003F002C004F00450000A21
:100A4000D8A419D00350000AD8B4CDD7010AD8B41D
:100A5000CDD7030AD8B4CFD7010AD8B4D2D7070A62
:100A6000D8B4D4D7010AD8B4D4D7030AD8B4D6D7C7
:100A7000010AD8B4D9D7FFFF1200FFFFFFFFC280E1
:100A8000FA0EFFFFE82EFDD7C28402D0FFFF00F070
:100A9000FFFFC2B4FBD7C4CF08F0096A08C003F057
:100AA00009C004F0D89003360436D89003360436D3
:100AB00003C008F004C009F0C3CF06F0076A06C0FF
:100AC00003F007C004F0060E056EFFFF0434043285
:100AD0000332052EFAD703C006F004C007F0065013
:100AE0000824086E07500920096E08C001F009C0EB
:100AF00002F01200FFFFFFFF000E066E000E056EF3
:100B000003500410D8B420D0010E076E05D0FFFFAB
:100B1000D89003360436072AFFFF04AEF8D7FFFF4C
:100B2000D890053606360350015C04500258D8A010
:100B300005D00350015E0450025A0580FFFFD89093
:100B400004320332072EEBD7FFFF05C001F006C0C9
:100B500002F01200FFFFFFFF016E000EC76E300EA5
:100B6000C66E10D0FFFFC78C02D0FFFFC79CFFFFEF
:100B7000C69816D0FFFFC78C02D0FFFFC79CFFFFAF
:100B8000C6880ED0FFFF0150000AD8B4EBD7010A87
:100B9000D8B4EBD7030AD8B4EDD7010AD8B4EDD74F
:100BA000FFFF94969488949A1200FFFFFFFF0A506B
:100BB0000B10D8B41CD0010E0C6E05D0FFFFD890DE
:100BC0000A360B360C2AFFFF0BAEF8D7FFFF0A5090
:100BD000085C0B500958D8A004D00A50085E0B508E
:100BE000095AFFFFD8900B320A320C2EEFD7FFFFC5
:100BF00008C008F009C009F01200FFFFFFFF000E57
:100C0000056E0DD0FFFF0550010DF3500224D96E83
:100C1000F4500320DA6EDF503DEC06F0052AFFFFAA
:100C20000550010DF3500224D96EF4500320DA6E02
:100C30000A0EDE18D8B41200FFFFE4D7FFFFFFFF53
:100C4000046EFA0EFFFFE82EFDD70404D8A405D0E9
:100C50000250C00F54EC06F005D0FFFF0250800F89
:100C600054EC06F0FFFF050E036EDF0EFFFFE82ECB
:100C7000FDD7032EFBD71200FFFFFFFF016EFA0E18
:100C8000FFFFE82EFDD70150F00B816E8184818635
:100C900000F081960138F00B816E8184818600F02E
:100CA000819681941200FFFFFFFF016EFA0EFFFF95
:100CB000E82EFDD781940150F00B816E818600F003
:100CC00081960138F00B816E818600F081961200CA
:100CD000FFFFFFFF016E01C0C9FF71EC06F01200BB
:100CE000FFFFFFFFFFFFC7B01200FFFFFBD7FFFFB3
:100CF000FFFF800EC26E090EC16E1200FFFF000ED4
:0A0D0000F86E0001CDEF03F0FFFFD5
:020000040020DA
:08000000FFFFFFFFFFFFFFFF00
:020000040030CA
:0E000000FF210E0EFF0181FF0FC00FE00F4029
:00000001FF
