:0600000000F07FEF12F09A
:1006000000010000000A00000064000000E8030090
:100610000010270000A086010040420F008096983D
:100620000000E1F50500CA9A3B00803FCDCC3DD7E4
:10063000233C12833AB7D138C62737388635C0D61F
:1006400033CC2B32708930E7DB2EE53C1E42A20D05
:1006500000803F00204100C842007A44401C4650C0
:10066000C34724744997184BBCBE4C6B6E4E0315A0
:100670005079AD60F349717430203D20252E3266EB
:100680002043200A007430203D20256420200A00E9
:010690000069
:10069200FFFF440E506E000E516E84EF07F0FFFF15
:1006A200250E6318D8B40AD040C0D9FF41C0DAFF82
:1006B20063C0DFFF404A412A84EF07F0FFFF000ECC
:1006C200536E000E526E42C0F6FF43C0F7FF0800A1
:1006D200FFFFF5502E0AD8A432D0538C424A432A47
:1006E200000E5F6E000E5E6E1DD0FFFF5EC00FF04B
:1006F2005FC010F0000E126E0A0E116EFDEC11F0CA
:1007020042C0F6FF43C0F7FF0800FFFFF5500F2677
:10071200000E1022D00E0F245E6EFF0E10205F6EB0
:10072200424A432AFFFF42C0F6FF43C0F7FF0800D8
:10073200FFFFF5503CEC12F0D8A00BD0D6D7FFFF4C
:10074200000E5F6E000E5E6E538803D0FFFF53846F
:1007520018D0FFFF42C0F6FF43C0F7FF424A432AC8
:100762000800FFFFF5CF63F06350000AD8B4DAD374
:10077200640AD8B406D0020AD8B4E8D70F0AD8A4BB
:10078200C2D3FFFF070E5314D8B4EAD253A804D041
:10079200000E5F6E060E5E6EFFFF50C0D9FF51C0A5
:1007A200DAFFDECF60F0DECF61F0DDCF62F0030E64
:1007B2005026000E512262AE10D060C001F061C01E
:1007C20002F062C003F012EC12F001C060F002C04D
:1007D20061F003C062F0030E5212FFFF000E556E6D
:1007E200000E546E605061106210D8B487D0820E31
:1007F200476EFF0E486E60C049F061C04AF062C0A9
:100802004BF063C04CF0100E06D0FFFFD8904C3274
:100812004B324A324932FFFFE82EF7D7495047247C
:10082200546E000E4820556E5406D8A0550654C08A
:100832000FF055C010F0000E126E030E116EFDEC9B
:1008420011F00FC054F010C055F054C007F055C05D
:1008520008F0000E0A6E0A0E096EDAEC0FF007C0FD
:1008620054F008C055F055AE03D05406D8A0550632
:10087200FFFF545000089CEC07F024C056F025C03E
:1008820057F026C058F056C015F057C016F058C0A1
:1008920017F060C018F061C019F062C01AF0C8EC1D
:1008A2000DF015C056F016C057F017C058F056C0DC
:1008B20001F057C002F058C003F0000E046E800E23
:1008C200056E3F0E066E8CEC0FF0D8B004D05406C5
:1008D200D8A0550613D0FFFF56C001F057C002F052
:1008E20058C003F0000E046E200E056E410E066E17
:1008F2008CEC0FF0D8A002D0544A552AFFFF5FBEFD
:1009020006D05F501CE10D0E5E5CD8B018D0FFFF20
:1009120060C02EF061C02FF062C030F05E50BAECC1
:1009220009F024C031F025C032F026C033F0EEECDD
:100932000AF02EC060F02FC061F030C062F0FFFFFD
:1009420055BE06D055501FE10A0E545CD8B01BD0DC
:10095200FFFF605061106210D8B454D060C02BF019
:1009620061C02CF062C02DF044EC0EF02B502C1024
:100972002D102E10D8B455BE45D0555004E1020EAC
:10098200545CD8A03FD0FFFF56C001F057C002F020
:1009920058C003F0700E046E890E056E400E066E8E
:1009A2008CEC0FF0D8B002D0F70E02D0FFFFF80E99
:1009B200FFFF5426FF0E552254509CEC07F024C032
:1009C20056F025C057F026C058F060C001F061C053
:1009D20002F062C003F056C004F057C005F058C0E0
:1009E20006F0BBEC0CF001C05AF002C05BF003C091
:1009F2005CF004C05DF0000E606E000E616E000ED1
:100A0200626E33D0FFFF60C02BF061C02CF062C079
:100A12002DF044EC0EF02BC05AF02CC05BF02DC030
:100A22005CF02EC05DF060C03AF061C03BF062C085
:100A32003CF05AC009F05BC00AF05CC00BF05DC02C
:100A42000CF0EAEC10F009C03DF00AC03EF00BC019
:100A52003FF04CEC11F03AC060F03BC061F03CC09A
:100A620062F0000E556E000E546EFFFF010E636EB3
:100A7200FFFF0A0E6318D8B41CD06350040D010E98
:100A8200F324F66E060EF420F76E0900FFFFF55010
:100A92005A5C0900FFFFF5505B580900FFFFF55053
:100AA2005C580900FFFFF5505D58D8A002D0632AB8
:100AB200DFD7FFFF030E5214476E000E5314486E29
:100AC20047504810D8B458D040C0D9FF41C0DAFFCF
:100AD2002D0E4FD0FFFF404A412A4ED0FFFF5AC091
:100AE20001F05BC002F05CC003F05DC004F0635033
:100AF200040D010EF324F66E060EF420F76E0900C3
:100B0200FFFFF5CF05F00900FFFFF5CF06F0090062
:100B1200FFFFF5CF07F00A00FFFFF5CF08F026EC44
:100B220010F001C056F002C057F003C058F004C0E4
:100B320059F056C00EF057C00FF058C010F059C00F
:100B420011F00A0E126E000E136E000E146E000EDD
:100B5200156EB0EC10F00EC056F00FC057F010C07A
:100B620058F011C059F05650300F40C0D9FF41C063
:100B7200DAFFFFFFDF6EAED7FFFF63066328D8B44C
:100B82000DD0ACD7FFFF40C0D9FF41C0DAFF300E15
:100B9200DF6E404A412A5406D8A05506FFFF55BED3
:100BA20005D05550EFE15404D8B0ECD7FFFF5FBE3B
:100BB20009D05F5004E1090E5E5CD8A003D0080E94
:100BC200636E03D0FFFF5EC063F0FFFF63505E5EA3
:100BD200000E63BEFF0E5F5A6350D8B408D040C007
:100BE200D9FF41C0DAFF2E0EDF6E404A412AFFFFD5
:100BF20063509CEC07F024C04DF025C04EF026C097
:100C02004FF060C018F061C019F062C01AF04DC018
:100C120015F04EC016F04FC017F0C8EC0DF015C01D
:100C22002BF016C02CF017C02DF044EC0EF02BC0A8
:100C32005AF02CC05BF02DC05CF02EC05DF078D075
:100C4200FFFF5AC001F05BC002F05CC003F05DC060
:100C520004F06350040D010EF324F66E060EF42028
:100C6200F76E0900FFFFF5CF05F00900FFFFF5CF92
:100C720006F00900FFFFF5CF07F00A00FFFFF5CFEE
:100C820008F026EC10F001C056F002C057F003C085
:100C920058F004C059F056C00EF057C00FF058C0BB
:100CA20010F059C011F00A0E126E000E136E000EF3
:100CB200146E000E156EB0EC10F00EC056F00FC0A0
:100CC20057F010C058F011C059F05650300F40C0C4
:100CD200D9FF41C0DAFFDF6E404A412A5AC00EF006
:100CE2005BC00FF05CC010F05DC011F06350040DEA
:100CF200010EF324F66E060EF420F76E0900FFFFD4
:100D0200F5CF12F00900FFFFF5CF13F00900FFFF46
:100D1200F5CF14F00A00FFFFF5CF15F0B0EC10F09C
:100D22000EC05AF00FC05BF010C05CF011C05DF055
:100D3200FFFF63066328D8B40DD082D7FFFF40C0FF
:100D4200D9FF41C0DAFF300EDF6E404A412A5E060B
:100D5200D8A05F06FFFF5E505F10D8B4D4D0EED7A4
:100D6200FFFF50C0D9FF51C0DAFFDECF5AF0DDCF0E
:100D72005BF0000E5BBEFF0E5C6E5D6E020E5026D7
:100D8200000E51225DAE0AD0030E52125D1E5C1E91
:100D92005B1E5A6C000E5B225C225D22FFFF5E50DE
:100DA2005F10D8A408D05A505B105C105D10D8A414
:100DB20002D05E4A5F2AFFFF010E636EFFFF0A0E3A
:100DC2006318D8B41CD06350040D010EF324F66EE0
:100DD200060EF420F76E0900FFFFF5505A5C090079
:100DE200FFFFF5505B580900FFFFF5505C58090002
:100DF200FFFFF5505D58D8A002D0632ADFD7FFFF6E
:100E0200800E63BE7F0E476E5E50635C5F50800A49
:100E12004758D8B003D05EC063F011D0FFFF5F50D7
:100E2200800A476E63505E5C800E63BE7F0E475839
:100E3200D8B005D063505E6E5F6A5EBE5F06FFFF8C
:100E4200030E5214476E000E5314486E475048105A
:100E5200D8B450D040C0D9FF41C0DAFF2D0EDF6EAA
:100E620046D0FFFF5EC047F05FC048F0D8904736DB
:100E72004836D89047364836010E4724F66E060E9D
:100E82004820F76E0900FFFFF5CF05F00900FFFFCC
:100E9200F5CF06F00900FFFFF5CF07F00A00FFFFCC
:100EA200F5CF08F05AC001F05BC002F05CC003F05D
:100EB2005DC004F026EC10F001C00EF002C00FF08D
:100EC20003C010F004C011F00A0E126E000E136E71
:100ED200000E146E000E156EB0EC10F00E50300FB6
:100EE200636E40C0D9FF41C0DAFF63C0DFFFFFFF7E
:100EF200404A412AFFFF5E06D8A05F065E28B1E1A4
:100F02005F28D8A4AED7FFFF42C0F6FF43C0F7FF69
:100F1200424A432A0800FFFFF5CF63F06350D8A48A
:100F220050EF03F0FFFF40C0D9FF41C0DAFF000ECF
:100F3200DF6E1200FFFFFFFF2A6E2AAE07D12A6C76
:100F42002A50800A120FD8A094D0000E126E030EFF
:100F5200116E000E0A6E0A0E096E000E046E640E09
:100F6200036E2A50016E026A01BE02066EEC10F098
:100F720001C007F002C008F0DAEC0FF0090E0724F6
:100F82000F6E000E0820106EFDEC11F0290E0F24DA
:100F9200F66E060E1020F76E0900FFFFF5CF18F06F
:100FA2000900FFFFF5CF19F00A00FFFFF5CF1AF095
:100FB200000E0A6E640E096E2A50076E086A07BE9A
:100FC2000806DAEC0FF0120E07240F6E000E08204E
:100FD200106E000E126E030E116EFDEC11F0290E52
:100FE2000F24F66E060E1020F76E0900FFFFF5CFF4
:100FF20015F00900FFFFF5CF16F00A00FFFFF5CF4D
:1010020017F0C8EC0DF015C027F016C028F017C075
:1010120029F027C015F028C016F029C017F0000EDD
:10102200126E030E116E000E046E0A0E036E2A502B
:10103200016E026A01BE02066EEC10F001C00FF0F2
:1010420002C010F0FDEC11F0290E0F24F66E060E10
:101052001020F76E0900FFFFF5CF18F00900FFFF1F
:10106200F5CF19F00A00FFFFF5CF1AF0C8EC0DF02A
:101072005FD1FFFF2A50800A750FD8A053D0000E0F
:101082000A6E0A0E096E2A50076E086A07BE080623
:10109200DAEC0FF0090E07240F6E000E0820106E16
:1010A200000E126E030E116EFDEC11F0290E0F24CC
:1010B200F66E060E1020F76E0900FFFFF5CF15F051
:1010C2000900FFFFF5CF16F00A00FFFFF5CF17F07A
:1010D200000E126E030E116E000E046E0A0E036EE7
:1010E2002A50016E026A01BE02066EEC10F001C0C7
:1010F2000FF002C010F0FDEC11F0290E0F24F66E75
:10110200060E1020F76E0900FFFFF5CF18F0090058
:10111200FFFFF5CF19F00A00FFFFF5CF1AF0C8EC78
:101122000DF006D1FFFF2A50030D290EF324F66EAF
:10113200060EF420F76E0900FFFFF5CF24F0090038
:10114200FFFFF5CF25F00A00FFFF0DD1FFFF2A5068
:10115200800A120FD8A094D0000E126E030E116EE8
:10116200000E0A6E0A0E096E000E046E640E036E05
:101172002A50016E026A01BE02066EEC10F001C036
:1011820007F002C008F0DAEC0FF0090E07240F6E28
:10119200000E0820106EFDEC11F0500E0F24F66EBA
:1011A200060E1020F76E0900FFFFF5CF18F00900B8
:1011B200FFFFF5CF19F00A00FFFFF5CF1AF0000E7E
:1011C2000A6E640E096E2A50076E086A07BE080688
:1011D200DAEC0FF0120E07240F6E000E0820106ECC
:1011E200000E126E030E116EFDEC11F0500E0F2464
:1011F200F66E060E1020F76E0900FFFFF5CF15F010
:101202000900FFFFF5CF16F00A00FFFFF5CF17F038
:10121200C8EC0DF015C027F016C028F017C029F051
:1012220027C015F028C016F029C017F0000E126E64
:10123200030E116E000E046E0A0E036E2A50016E2A
:10124200026A01BE02066EEC10F001C00FF002C08D
:1012520010F0FDEC11F0500E0F24F66E060E102069
:10126200F76E0900FFFFF5CF18F00900FFFFF5CF79
:1012720019F00A00FFFFF5CF1AF0C8EC0DF058D0B4
:10128200FFFF2A50800A750FD8A05AD0000E0A6EAE
:101292000A0E096E2A50076E086A07BE0806DAECC3
:1012A2000FF0090E07240F6E000E0820106E000EBC
:1012B200126E030E116EFDEC11F0500E0F24F66E3D
:1012C200060E1020F76E0900FFFFF5CF15F009009A
:1012D200FFFFF5CF16F00A00FFFFF5CF17F0000E63
:1012E200126E030E116E000E046E0A0E036E2A5069
:1012F200016E026A01BE02066EEC10F001C00FF030
:1013020002C010F0FDEC11F0500E0F24F66E060E26
:101312001020F76E0900FFFFF5CF18F00900FFFF5C
:10132200F5CF19F00A00FFFFF5CF1AF0C8EC0DF067
:10133200FFFF15C024F016C025F017C026F016D006
:10134200FFFF2A50030D500EF324F66E060EF42012
:10135200F76E0900FFFFF5CF24F00900FFFFF5CF7C
:1013620025F00A00FFFFFFFFF5CF26F0FFFF120076
:10137200FFFFFFFF2D6E6D0E2D64A2D0000E126EC8
:10138200030E116E000E0A6E0A0E096E000E046E36
:10139200640E036E2DC001F0026A6EEC10F001C003
:1013A20007F002C008F0DAEC0FF0090E07240F6E06
:1013B200000E0820106EFDEC11F0290E0F24F66EBF
:1013C200060E1020F76E0900FFFFF5CF18F0090096
:1013D200FFFFF5CF19F00A00FFFFF5CF1AF0000E5C
:1013E2000A6E640E096E2DC007F0086ADAEC0FF07F
:1013F200120E07240F6E000E0820106E000E126EE1
:10140200030E116EFDEC11F0290E0F24F66E060E7E
:101412001020F76E0900FFFFF5CF15F00900FFFF5E
:10142200F5CF16F00A00FFFFF5CF17F0C8EC0DF06C
:1014320015C02AF016C02BF017C02CF0000E126E49
:10144200030E116E000E046E0A0E036E2DC001F023
:10145200026A6EEC10F001C00FF002C010F0FDEC59
:1014620011F0290E0F24F66E060E1020F76E0900F9
:10147200FFFFF5CF18F00900FFFFF5CF19F00A00C2
:10148200FFFFF5CF1AF02AC015F02BC016F02CC0C2
:1014920017F0C8EC0DF015C027F016C028F017C0E1
:1014A20029F027C015F028C016F029C017F0000E49
:1014B200186E000E196E3F0E1A6EC8EC0DF084D035
:1014C200FFFF0A0E2D6463D0000E126E030E116E22
:1014D200000E046E0A0E036E2DC001F0026A6EEC5D
:1014E20010F001C00FF002C010F0FDEC11F0290E57
:1014F2000F24F66E060E1020F76E0900FFFFF5CFDF
:1015020018F00900FFFFF5CF19F00A00FFFFF5CF31
:101512001AF0000E0A6E0A0E096E2DC007F0086A54
:10152200DAEC0FF0090E07240F6E000E0820106E81
:10153200000E126E030E116EFDEC11F0290E0F2437
:10154200F66E060E1020F76E0900FFFFF5CF15F0BC
:101552000900FFFFF5CF16F00A00FFFFF5CF17F0E5
:10156200C8EC0DF015C02AF016C02BF017C02CF0F5
:101572002AC015F02BC016F02CC017F0000E186E02
:10158200000E196E3F0E1A6EC8EC0DF01DD0FFFF53
:101592002D50030D290EF324F66E060EF420F76E7D
:1015A2000900FFFFF5CF15F00900FFFFF5CF16F098
:1015B2000A00FFFFF5CF17F0000E186E000E196E2D
:1015C2003F0E1A6EC8EC0DF0FFFF15C024F016C0D6
:1015D20025F017C026F01200FFFFFFFF30C034F0E5
:1015E200356A366A2F34343601E335803450396E29
:1015F20033C034F0356A366A3234343601E335802A
:101602003450386E3950D8B40BD03850395CD8B019
:101612000FD0395000083824346E180E346408D0C4
:10162200FFFF31C02EF032C02FF033C030F0BAD0FD
:10163200FFFF3850D8B40BD03950385CD8B00FD037
:10164200385000083924346E180E346408D0FFFF75
:101652002EC02EF02FC02FF030C030F0A3D0FFFFED
:10166200060E376E30BE378E33BE378C2F8EFF0E8E
:101672002E16FF0E2F16000E3016328EFF0E31166A
:10168200FF0E3216000E33163850395CD8B01ED019
:10169200FFFFD89031363236333638063950381893
:1016A200D8B40ED0370637C034F0070E3416D8B48B
:1016B20007D0EED7FFFFD89030322F322E32392AA0
:1016C200FFFF38503918D8B423D0F4D7FFFF395070
:1016D200385CD8B01DD0FFFFD8902E362F3630366A
:1016E200390639503818D8B40ED0370637C034F01E
:1016F200070E3416D8B407D0EED7FFFFD890333296
:1017020032323132382AFFFF38503918D8A4F5D78F
:10171200FFFF37AE0CD0FF0E2E1AFF0E2F1AFF0E50
:10172200301A010E2E26000E2F22000E3022FFFF4D
:1017320037AC0CD0FF0E311AFF0E321AFF0E331ADD
:10174200010E3126000E3222000E3322FFFF000E60
:10175200376E2E5031262F5032223050332233AE84
:101762000ED0FF0E311AFF0E321AFF0E331A010E7F
:101772003126000E3222000E3322010E376EFFFF99
:1017820031C001F032C002F033C003F039C004F0BE
:1017920037C005F02AEC0FF001C02EF002C02FF086
:1017A20003C030F0FFFF1200FFFFFFFF000E756E57
:1017B200000E766E000E716E000E776E000E786E61
:1017C200000E796E000E726E000E736E000E746E55
:1017D200010E926E000E936E000E946EA00E0E6EAF
:1017E200860E0F6E010E106E000E116E1CEC11F0C3
:1017F200B8EC0EF0670E406E000E416E850E426E22
:10180200060E436E000E456E000E446E49EC03F068
:10181200620E646E760EFFFFE82EFDD7642EFBD7B4
:1018220000D0000E026E000EAFEC11F0670E026ED9
:10183200000E036E6FEC11F0FFFF58EC12F0B40EC5
:1018420078EC12F0070E60EC12F068EC12F0B50EB4
:1018520078EC12F0010ECDEC11F0766E010ECDECAB
:1018620011F0756E000ECDEC11F0716E4EEC12F0AF
:1018720075C064F07F0E64166450666E656A7650B9
:101882006524096E000E66200A6E90EC11F009C004
:1018920077F00AC078F00BC079F0D70E186EA30E5D
:1018A200196E3C0E1A6E77C015F078C016F079C02A
:1018B20017F0C8EC0DF015C02EF016C02FF017C0AF
:1018C20030F0D70E316E230E326EBC0E336EEEEC5C
:1018D2000AF02EC077F02FC078F030C079F077C0D0
:1018E2002EF078C02FF079C030F0930E316E880E52
:1018F200326EC30E336EEEEC0AF02EC072F02FC0C1
:1019020073F030C074F0670E406E000E416E770EB9
:10191200426E060E436E72C044F073C045F074C04E
:1019220046F049EC03F0360E646E9A0EFFFFE82E85
:10193200FDD7642EFBD700D0000E026E000EAFEC76
:1019420011F0670E026E000E036E6FEC11F0620E64
:10195200646E760EFFFFE82EFDD7642EFBD700D013
:10196200620E646E760EFFFFE82EFDD7642EFBD763
:1019720000D062D7FFFF03C007F0086A096A023489
:10198200073601E3088007500F6E0F50D8B45AD0C3
:1019920006C007F0086A096A0534073601E30880C1
:1019A20007500E6E0E50D8B44DD0028EFF0E0116A7
:1019B200FF0E0216000E0316058EFF0E0416FF0E12
:1019C2000516000E0616000E0A6E000E0B6E000EB5
:1019D2000C6E000E0D6E7F0E0F5E0E50980F0F5E96
:1019E200180E0E6EFFFFD8900A360B360C360D36E7
:1019F2000450015C0550025806500358D8A007D085
:101A02000450015E0550025A0650035A0A80FFFF35
:101A1200D8900136023603360E2EE4D70FAE0ED022
:101A22000F50800A970FD8A00DD0FFFFD8900D322B
:101A32000C320B320A320F3EF8D719D0FFFF170EC5
:101A42000F6411D0FFFF000E016E000E026E000E39
:101A5200036E000E046E14D0FFFFD8900A360B36C8
:101A62000C360D360F06FFFF0F50D8A4F5D7FFFF37
:101A72000AC001F00BC002F00CC003F00DC004F06C
:101A8200FFFF1200FFFFFFFF033404340C6E0C5003
:101A9200D8B45CD0063407340B6E0B50D8B456D091
:101AA200038EFF0E0116FF0E0216FF0E0316000E26
:101AB2000416068EFF0E0416FF0E0516FF0E0616FE
:101AC200000E0716000E076E000E086E000E096E5D
:101AD200000E0A6E7F0E0C5E0B50A00F0C5E200EE5
:101AE2000B6EFFFFD8900736083609360A360450C7
:101AF200015C055002580650035807500458D8A0FC
:101B020009D00450015E0550025A0650035A07508C
:101B1200045A0780FFFFD890013602360336043696
:101B22000B2EDFD70CAE0ED00C50800A9F0FD8A020
:101B32000DD0FFFFD8900A320932083207320C3E2C
:101B4200F8D719D0FFFF1F0E0C6411D0FFFF000E53
:101B5200016E000E026E000E036E000E046E14D0B3
:101B6200FFFFD8900736083609360A360C06FFFF03
:101B72000C50D8A4F5D7FFFF07C001F008C002F04F
:101B820009C003F00AC004F0FFFF1200FFFFFFFFCD
:101B920017C01BF01C6A1D6A16341B3601E31C8039
:101BA2001B501E6E1E50D8B40DD01AC01BF01C6AFA
:101BB2001D6A19341B3601E31C801B50236E23500F
:101BC200D8A408D0FFFF000E156E000E166E000E90
:101BD200176E56D0FFFF23507B0F1E2617C023F02F
:101BE2001A50231A800E2316168E198EFF0E1816FF
:101BF200FF0E1916000E1A16000E1F6E000E206E32
:101C0200000E216E070E226EFFFF15A006D018509F
:101C12001F26195020221A502122FFFFD890173276
:101C220016321532D890183619361A36222EECD7BB
:101C3200090E226EFFFF15A006D018501F2619505C
:101C420020221A502122FFFFD89017321632153265
:101C5200D890213220321F32222EECD71FC001F041
:101C620020C002F021C003F01EC004F023C005F022
:101C72002AEC0FF001C015F002C016F003C017F0F5
:101C8200FFFF1200FFFFFFFF2DC02FF0306A316A05
:101C92002C342F3601E330802F50396E3950D8B4AE
:101CA20039D0170E2F6E2BC030F02CC031F02DC062
:101CB20032F02F28336E05D0FFFFD8903232313206
:101CC2003032FFFF332EF8D73050346E2C8EFF0E99
:101CD2002B16FF0E2C16000E2D162B50356E2C5087
:101CE200366E2D50376E386A8E0E395E39AE0ED092
:101CF2003950800A8F0FD8A00DD0FFFFD89038320C
:101D0200373236323532393EF8D719D0FFFF170E47
:101D1200396411D0FFFF000E2B6E000E2C6E000EE8
:101D22002D6E000E2E6E20D0FFFFD890353636363F
:101D3200373638363906FFFF3950D8A4F5D7FFFFBA
:101D42003450D8B408D0381E371E361E356C000EFB
:101D5200362237223822FFFF35C02BF036C02CF056
:101D620037C02DF038C02EF0FFFF1200FFFFFFFF3B
:101D7200620E026E760EFFFFE82EFDD7022EFBD713
:101D820000D0620E026E760EFFFFE82EFDD7022E05
:101D9200FBD700D0360E026E9A0EFFFFE82EFDD75B
:101DA200022EFBD700D0300E816E818600F0819624
:101DB200310E026EBB0EFFFFE82EFDD7022EFBD7BF
:101DC200300E816E818600F081960A0E026EBE0E82
:101DD200FFFFE82EFDD7022EFBD700D0300E816E1A
:101DE200818600F081960A0E026EBE0EFFFFE82E7B
:101DF200FDD7022EFBD700D0200E816E818600F027
:101E020081960A0E026EBE0EFFFFE82EFDD7022E4D
:101E1200FBD700D0010E27EC12F0280E27EC12F0AF
:101E2200080E27EC12F0060E27EC12F0140E27EC27
:101E320012F00C0E27EC12F0030E026EEC0EFFFFF6
:101E4200E82EFDD7022EFBD7280E27EC12F0120047
:101E5200FFFFFFFF0450D8B405D001500210031059
:101E6200D8A40ED0FFFF000E016E000E026E000E0F
:101E7200036E4ED0FFFF042AD890033202320132A1
:101E8200FFFF000E0114066E000E0214076EFE0E16
:101E92000314086E065007100810D8B40DD0EAD704
:101EA200FFFF042A010E0126000E0222000E032269
:101EB200D890033202320132FFFF000E0114066E87
:101EC200000E0214076EFF0E0314086E0650071070
:101ED2000810D8B407D0E4D7FFFF0406D890013623
:101EE20002360336FFFF02BE03D0020E0460F4D7AF
:101EF200FFFF04A0029ED890043204500312055042
:101F0200D8A4038E01C001F002C002F003C003F0A6
:101F1200FFFF1200FFFFFFFF03AE16D001C007F064
:101F220002C008F003C009F0071E081E091E072A96
:101F3200000E08220922000E0724016E000E08205E
:101F4200026E800E0920036EFFFF06AE16D004C09B
:101F520007F005C008F006C009F0071E081E091E9A
:101F6200072A000E08220922000E0724046E000E22
:101F72000820056E800E0920066EFFFF000E011A72
:101F8200000E021A800E031A000E041A000E051A21
:101F9200800E061A0450015C055002580650035880
:101FA200D8B002D0D89002D0FFFFD880FFFF120035
:101FB200FFFFFFFF000E0C6E0AAE06D0096C0A1E70
:101FC200D8B00A2A010E0C6EFFFF08AE06D0076CCD
:101FD200081ED8B0082A010E0C1AFFFF000E0E6E62
:101FE200000E0D6E09500A10D8B420D0010E0B6EEF
:101FF20005D0FFFFD89009360A360B2AFFFF0AAE3A
:10200200F8D7FFFFD8900D360E360950075C0A50FC
:102012000858D8A005D00950075E0A50085A0D800A
:10202200FFFFD8900A3209320B2EEBD7FFFF0C507C
:10203200D8B404D00D6C0E1ED8B00E2AFFFF0DC00E
:1020420007F00EC008F01200FFFFFFFF000E096E3E
:10205200000E0A6E000E0B6E000E0C6E055006107E
:1020620007100810D8B42ED0010E0D6E07D0FFFF56
:10207200D89005360636073608360D2AFFFF08AE19
:10208200F6D7FFFFD89009360A360B360C360550C4
:10209200015C065002580750035808500458D8A053
:1020A20009D00550015E0650025A0750035A0850E3
:1020B200045A0980FFFFD8900832073206320532EF
:1020C2000D2EDFD7FFFF09C001F00AC002F00BC0DE
:1020D20003F00CC004F01200FFFFFFFF000E066EBB
:1020E20002AE06D0016C021ED8B0022A010E066EA4
:1020F200FFFF04AE04D0036C041ED8B0042AFFFF15
:1021020003500410D8B41CD0010E056E05D0FFFF99
:10211200D89003360436052AFFFF04AEF8D7FFFF36
:102122000350015C04500258D8A004D00350015E51
:102132000450025AFFFFD89004320332052EEFD723
:10214200FFFF0650D8B404D0016C021ED8B0022A98
:10215200FFFF01C001F002C002F01200FFFFFFFF0B
:102162001250131014101510D8B428D0010E166E88
:1021720007D0FFFFD8901236133614361536162ABA
:10218200FFFF15AEF6D7FFFF12500E5C13500F582B
:102192001450105815501158D8A008D012500E5E85
:1021A20013500F5A1450105A1550115AFFFFD8905D
:1021B2001532143213321232162EE5D7FFFF0EC03B
:1021C2000EF00FC00FF010C010F011C011F012008D
:1021D200FFFFFFFF8E0E116E07D0FFFFD8900C326B
:1021E2000B320A320932112AFFFF000E09140D6E5A
:1021F200000E0A140E6E000E0B140F6EFF0E0C145E
:10220200106E0D500E100F101010D8A4E6D709C092
:1022120001F00AC002F00BC003F011C004F0000E7E
:10222200056E2AEC0FF001C009F002C00AF003C0EB
:102232000BF01200FFFFFFFF94869488800EC76E9A
:10224200280EC66E000EC56E000E016E090E026EDD
:102252003D0E036E000E046E0EC012F00FC013F09E
:1022620010C014F011C015F0020EFFFFD890123604
:10227200133614361536E82EF8D712C005F013C0FF
:1022820006F014C007F015C008F026EC10F00104A7
:10229200C86E1200FFFFFFFF3D503E103F10D8B442
:1022A20006D0000E3D1A000E3E1A800E3F1AFFFFA6
:1022B2003AC02EF03BC02FF03CC030F03DC031F0B0
:1022C2003EC032F03FC033F0EEEC0AF02EC03AF0DE
:1022D2002FC03BF030C03CF01200FFFFFFFF000EAA
:1022E200056E0DD0FFFF0550010DF3500224D96E8B
:1022F200F4500320DA6EDF50E6EC11F0052AFFFFFE
:102302000550010DF3500224D96EF4500320DA6E09
:102312000A0EDE18D8B41200FFFFE4D7FFFFFFFF5A
:10232200000E0C6E0AAE06D0096C0A1ED8B00A2A3C
:10233200010E0C6EFFFF09C001F00AC002F0036A31
:102342008E0E046E0CC005F02AEC0FF001C009F0ED
:1023520002C00AF003C00BF01200FFFFFFFF046E81
:10236200FA0EFFFFE82EFDD70404D8A405D00250D0
:10237200C00F27EC12F005D0FFFF0250800F27ECB0
:1023820012F0FFFF050E036EDF0EFFFFE82EFDD7F2
:10239200032EFBD71200FFFFFFFF016EC586FFFF72
:1023A200C7A0FDD7C9CF02F00104D8A402D0C59AB4
:1023B20002D0FFFFC58AFFFFC588FFFFC5B8FDD762
:1023C20070EC12F002501200FFFFFFFF016EFA0ED6
:1023D200FFFFE82EFDD70150F00B816E81848186CC
:1023E20000F081960138F00B816E8184818600F0C5
:1023F200819681941200FFFFFFFF0F501102F3CF6D
:1024020013F0F4CF14F00F501202F35014261050B0
:102412001102F350142613C00FF014C010F0120072
:10242200FFFFFFFF015002100310D8B406D0000EC8
:10243200011A000E021A800E031AFFFF01C001F0FA
:1024420002C002F003C003F01200FFFFFFFF016EA3
:10245200FA0EFFFFE82EFDD781940150F00B816E3A
:10246200818600F081960138F00B816E818600F042
:1024720081961200FFFFFFFF036E000E026E3A0EFE
:10248200036005D02F0E036402D0010E026EFFFF1F
:1024920002C001F001301200FFFFFFFF70EC12F0EA
:1024A200C584FFFFC5B4FDD79E961200FFFFFFFF54
:1024B200C580FFFFC5B0FDD79E961200FFFFFFFF4C
:1024C200016E01C0C9FF70EC12F01200FFFFFFFFA6
:1024D200C582FFFFC5B2FDD79E961200FFFFFFFF28
:1024E200FFFFC7A0C7B4FCD79E961200FFFFFFFFF5
:1024F200026E025060EC12F01200FFFF000EF86E46
:082502000001D6EF0BF0FFFF12
:020000040020DA
:08000000FFFFFFFFFFFFFFFF00
:020000040030CA
:0E000000FF210E0EFF0181FF0FC00FE00F4029
:00000001FF
