:040000000128F22FB2
:100DD200FE0012001E00FE0BEA2E00344834653479
:100DE2006C346C346F340A340034F0002000111E6D
:100DF200FB2EFC2EF72E700823009A00080020001C
:100E0200B301F230210099003F308C0004302300FE
:100E12008C0022009D01D03021009E009B019C018C
:100E220001309D001D08833908389D000C108C1478
:100E3200083023009F0090309D0024309E00103027
:100E42009B009C01343086000030870020308400F3
:100E5200003085000730F40016001A00F40B2D2F25
:100E620021001D149D149D18372F382F342F1C0874
:100E72002000B20021001B082000B1003208F1005E
:100E82003108F0002730F4007408F20087316C2733
:100E920087312000B3013308273E8600870101080D
:100EA2008631F626873120003308273E86008701E7
:100EB2000A300106031D5E2F5F2F602F312F013094
:100EC200F4007408B3070A303302031C692F6A2F37
:100ED2004C2F312F01283030F30072088600870131
:100EE200730881003030F300720A860087017308AC
:100EF20081003030F3007208023E860087017308D9
:100F020081003030F3007208033E860087017308C7
:100F120081000A30F3007208043E860087017308DC
:100F2200810003307102E83003197002031C9A2F0A
:100F32009B2FA82F0130F3007208860087017308E7
:100F420081077008183EF000FC30713DF10000305E
:100F52007102643003197002031CB02FB12FC82F25
:100F6200BF2F0130F300720A8600870173088107E0
:100F720070089C3EF000FF30713DF10000307102BC
:100F82006530031970020318C72FC82FB22F003023
:100F920071020A3003197002031CD02FD12FE92FDE
:100FA200E02F0130F3007208023E860087017308C9
:100FB20081077008F63EF000FF30713DF10000300D
:100FC20071020B30031970020318E82FE92FD22F98
:100FD2007008F3007208033E8600870173088104DB
:100FE2000800EF30840086308500343086000030FF
:0E0FF200870007308631E92687312000002F66
:020000040001F9
:08000000FF3FFF3FFF3FFF3F00
:04000E00813FFF1F10
:00000001FF
