:0600000000F0CDEF06F058
:100600000001000A006400E80310276461635F6F63
:100610007574203D202564200A006164635F696E63
:09062000203D202564200A0000A1
:10062A00FFFF110E146E000E156E9AD0FFFF250EF5
:10063A001A18D8B409D00DC0D9FF0EC0DAFF1AC0F3
:10064A00DFFF0D4A0E2A8CD0FFFF000E166E0FC078
:10065A00F6FF10C0F7FF0F4A102A0800FFFFF5CF78
:10066A001AF01A50000AD8B489D0640AD8B403D050
:10067A000D0AD8A475D0FFFF14C0D9FF15C0DAFF40
:10068A00DECF18F0DDCF19F0020E1426000E152267
:10069A0019AE06D0030E1612186C191ED8B0192AF4
:1006AA00FFFF010E1A6EFFFF050E1A18D8B414D0F8
:1006BA001A50020D010EF324F66E060EF420F76EA0
:1006CA000900FFFFF550185C0900FFFFF5501958A3
:1006DA00D8A002D01A2AE7D7FFFF16C013F0030EDC
:1006EA001316D8B408D00DC0D9FF0EC0DAFF2D0EEC
:1006FA00DF6E0D4A0E2AFFFF1AC017F02CD0FFFF3B
:10070A001750020D010EF324F66E060EF420F76E52
:10071A000900FFFFF5CF03F00A00FFFFF5CF04F051
:10072A0018C001F019C002F0AAEC05F001C008F0E7
:10073A0002C009F0000E0B6E0A0E0A6E0AEC06F0F1
:10074A000850300F1A6E0DC0D9FF0EC0DAFF1AC05A
:10075A00DFFF0D4A0E2AFFFF17061728D8A4CFD7A6
:10076A00FFFF0FC0F6FF10C0F7FF0F4A102A08005C
:10077A00FFFFF5CF1AF01A50D8A458D7FFFF0DC0C3
:10078A00D9FF0EC0DAFF000EDF6E1200FFFFFFFF77
:10079A00000E326E000E336E000E356E000E346E91
:1007AA00000E316E000E306E030E926E000E936EC6
:1007BA00000E946EC6EC06F0A00E0E6E860E0F6E3C
:1007CA00010E106E000E116EDAEC05F066EC04F004
:1007DA00620E1B6E760EFFFFE82EFDD71B2EFBD78F
:1007EA006DD0FFFF000E026E000E016ED8EC04F011
:1007FA006DEC05F001C034F002C035F01C0E0D6E30
:10080A00000E0E6E1A0E0F6E060E106E34C011F028
:10081A0035C012F015EC03F0000E026E000E53EC18
:10082A0006F01C0E026E000E036E32EC06F034C0A7
:10083A0033F03550326EA7EC06F0C00EBFEC06F06E
:10084A003250AFEC06F03350AFEC06F09DEC06F0F8
:10085A000A0E1B6EBE0EFFFFE82EFDD71B2EFBD71E
:10086A0000D0000E026E010E016ED8EC04F06DECA1
:10087A0005F001C030F002C031F01C0E0D6E000E02
:10088A000E6E0B0E0F6E060E106E30C011F031C0D8
:10089A0012F015EC03F0000E026E010E53EC06F096
:1008AA001C0E026E000E036E32EC06F00A0E1B6E70
:1008BA00BE0EFFFFE82EFDD71B2EFBD7FFFF00D091
:1008CA0090D7FFFF620E026E760EFFFFE82EFDD76D
:1008DA00022EFBD700D0620E026E760EFFFFE82EC4
:1008EA00FDD7022EFBD700D0360E026E9A0EFFFFFE
:1008FA00E82EFDD7022EFBD700D0300E816E8186FE
:10090A0000F08196310E026EBB0EFFFFE82EFDD776
:10091A00022EFBD7300E816E818600F081960A0E78
:10092A00026EBE0EFFFFE82EFDD7022EFBD700D0C7
:10093A00300E816E818600F081960A0E026EBE0E1E
:10094A00FFFFE82EFDD7022EFBD700D0200E816EC6
:10095A00818600F081960A0E026EBE0EFFFFE82E17
:10096A00FDD7022EFBD700D0010E88EC06F0280E28
:10097A0088EC06F0080E88EC06F0060E88EC06F005
:10098A00140E88EC06F00C0E88EC06F0030E026ECC
:10099A00EC0EFFFFE82EFDD7022EFBD7280E88ECBF
:1009AA0006F01200FFFFFFFF26D0FFFFC29602D01B
:1009BA00FFFFC286FFFFC29803D0FFFFC29605D091
:1009CA00FFFFC29A3AD0FFFFC286FFFFC288F8D75C
:1009DA00FFFFC29602D0FFFFC286FFFFC29803D074
:1009EA00FFFFC29605D0FFFFC28A27D0FFFFC2864B
:1009FA00FFFFC288F8D7FFFF01C003F002C004F06E
:100A0A000450000AD8A419D00350000AD8B4CDD78C
:100A1A00010AD8B4CDD7030AD8B4CFD7010AD8B4BB
:100A2A00D2D7070AD8B4D4D7010AD8B4D4D7030A7C
:100A3A00D8B4D6D7010AD8B4D9D7FFFF1200FFFF1E
:100A4A00FFFF000E096E000E0A6E000E0B6E000EFE
:100A5A000C6E0550061007100810D8B42ED0010EDF
:100A6A000D6E07D0FFFFD8900536063607360836D2
:100A7A000D2AFFFF08AEF6D7FFFFD89009360A36CF
:100A8A000B360C360550015C0650025807500358C5
:100A9A0008500458D8A009D00550015E0650025AE1
:100AAA000750035A0850045A0980FFFFD8900832A9
:100ABA000732063205320D2EDFD7FFFF09C001F0DB
:100ACA000AC002F00BC003F00CC004F01200FFFFD2
:100ADA00FFFFC280FA0EFFFFE82EFDD7C28402D0C4
:100AEA00FFFF00F0FFFFC2B4FBD7C4CF08F0096ACA
:100AFA0008C003F009C004F0D89003360436D89031
:100B0A000336043603C008F004C009F0C3CF06F068
:100B1A00076A06C003F007C004F0060E056EFFFF61
:100B2A00043404320332052EFAD703C006F004C097
:100B3A0007F006500824086E07500920096E08C0FD
:100B4A0001F009C002F01200FFFFFFFF000E066E5F
:100B5A00000E056E03500410D8B420D0010E076EA3
:100B6A0005D0FFFFD89003360436072AFFFF04AEEC
:100B7A00F8D7FFFFD890053606360350015C0450BB
:100B8A000258D8A005D00350015E0450025A0580CD
:100B9A00FFFFD89004320332072EEBD7FFFF05C0C0
:100BAA0001F006C002F01200FFFFFFFF948694884E
:100BBA00800EC76E280EC66E000EC56E000E016E40
:100BCA00090E026E3D0E036E000E046E0EC012F088
:100BDA000FC013F010C014F011C015F0020EFFFF81
:100BEA00D8901236133614361536E82EF8D712C0B6
:100BFA0005F013C006F014C007F015C008F025EC84
:100C0A0005F00104C86E1200FFFFFFFF0A500B1027
:100C1A00D8B41CD0010E0C6E05D0FFFFD8900A364E
:100C2A000B360C2AFFFF0BAEF8D7FFFF0A50085C01
:100C3A000B500958D8A004D00A50085E0B50095A24
:100C4A00FFFFD8900B320A320C2EEFD7FFFF08C0F5
:100C5A0008F009C009F01200FFFFFFFF000E056E41
:100C6A000DD0FFFF0550010DF3500224D96EF45048
:100C7A000320DA6EDF5071EC06F0052AFFFF0550FB
:100C8A00010DF3500224D96EF4500320DA6E0A0ED5
:100C9A00DE18D8B41200FFFFE4D7FFFFFFFF046E8F
:100CAA00FA0EFFFFE82EFDD70404D8A405D002509F
:100CBA00C00F88EC06F005D0FFFF0250800F88ECC9
:100CCA0006F0FFFF050E036EDF0EFFFFE82EFDD7CD
:100CDA00032EFBD71200FFFFFFFF016EFA0EFFFF84
:100CEA00E82EFDD70150F00B816E8184818600F0D9
:100CFA0081960138F00B816E8184818600F081969D
:100D0A0081941200FFFFFFFF016EFA0EFFFFE82E2B
:100D1A00FDD781940150F00B816E818600F0819697
:100D2A000138F00B816E818600F081961200FFFF78
:100D3A00FFFFB7EC06F0C584FFFFC5B4FDD79E964A
:100D4A001200FFFFFFFFC580FFFFC5B0FDD79E96CB
:100D5A001200FFFFFFFF016E01C0C9FFB7EC06F0EA
:100D6A001200FFFFFFFFFFFFC7A0C7B4FCD79E9684
:100D7A001200FFFFFFFF026E0250AFEC06F01200F6
:100D8A00FFFFFFFF800EC26E090EC16E1200FFFF49
:0C0D9A00000EF86E0001CCEF03F0FFFF2C
:020000040020DA
:08000000FFFFFFFFFFFFFFFF00
:020000040030CA
:0E000000FF210E0EFF0181FF0FC00FE00F4029
:00000001FF
