:0600000000F051EF1FF0BB
:1005CC00FFFF026E0250EDEC02F01200FFFFFFFF86
:1005DC00016E01C0C9FF7FEC1FF01200FFFFFFFF8F
:1005EC00948E949C080EAF6E240EAC6E900EAB6E77
:1005FC001200FFFF00002A0E060504030201000092
:10060C00804538783D20252E33660920793D2025FC
:10061C002E3366097A3D20252E33660A00494E4654
:10062C00004E414E00696E66006E616E006C660095
:01063C0000BD
:10063E00FFFF000E00019B6F000E9A6F4EC0ACF0D4
:10064E004FC0ADF050C0AEF051C0AFF0AFBF35EF00
:10065E0003F032EF03F0FFFF4CEF03F0FFFF000E4D
:10066E009B6F010E9A6FACC001F0ADC002F0AEC030
:10067E0003F0AFC004F00FEC1FF001C0ACF002C0ED
:10068E00ADF003C0AEF004C0AFF0FFFF000E0001EE
:10069E00B36F000EB26F7AC09EF07BC09FF09A517E
:1006AE009B11D8A45DEF03F060EF03F0FFFF69EF3D
:1006BE0003F0FFFF7EA466EF03F069EF03F0FFFF88
:1006CE0088EF03F0FFFF9A519B11D8A471EF03F04E
:1006DE0074EF03F0FFFF7BEF03F0FFFF000E816F5F
:1006EE002B0E806F80EF03F0FFFF000E816F2D0E3B
:1006FE00806FFFFF80C076F1B24BB32B9E07D8A060
:10070E009F07FFFFACC001F0ADC002F0AEC003F01A
:10071E00AFC004F028EC19F001040210D8A49AEF2F
:10072E0003F09DEF03F0FFFFFDEF03F0FFFFBF0EA1
:10073E00536EFF0E546E5250556E566A53505526D8
:10074E005450562256500BE11A0E555CD8A0B2EFFB
:10075E0003F0B6EF03F0FFFF010EB8EF03F0FFFF5B
:10076E00000EFFFF0001826F836B82518311D8B49C
:10077E00C3EF03F0C6EF03F0FFFFD5EF03F0FFFF6B
:10078E00760EB225016E010EB321026E290E036E96
:10079E00060E046E6AEC1DF0E2EF03F0FFFF760E1C
:1007AE00B225016E010EB321026E310E036E060EDE
:1007BE00046E6AEC1DF0FFFF0001FD0E9E27FF0E7A
:1007CE009F23FFFF4CC011F04DC012F0760E136E3A
:1007DE00010E146E9EC015F09FC016F0AEEC1AF00E
:1007EE0011C04CF012C04DF0E2EF09F0FFFFACC0AB
:1007FE0001F0ADC002F0AEC003F0AFC004F028ECC3
:10080E0019F001500210D8A40FEF04F012EF04F00B
:10081E00FFFF59EF04F0FFFFBF0E536EFF0E546E35
:10082E005250556E566A53505526545056225650B5
:10083E000BE11A0E555CD8A027EF04F02BEF04F055
:10084E00FFFF010E2DEF04F0FFFF000EFFFF000172
:10085E00846F856B84518511D8B438EF04F03BEF6B
:10086E0004F0FFFF4AEF04F0FFFF760EB225016E93
:10087E00010EB321026E2D0E036E060E046E6AEC8F
:10088E001DF0E2EF03F0FFFF760EB225016E010EB2
:10089E00B321026E350E036E060E046E6AEC1DF069
:1008AE00E2EF03F0FFFF000E0001B46F000EB56F14
:1008BE00800EB66F3F0EB76F000EB16F000EB06FA9
:1008CE00ACC001F0ADC002F0AEC003F0AFC004F09A
:1008DE00000E056E000E066E000E076E000E086E00
:1008EE00FEEC1BF0D8B07EEF04F081EF04F0FFFFBA
:1008FE000CEF05F0FFFFA2EF04F0FFFFB4C001F014
:10090E00B5C002F0B6C003F0B7C004F0000E056E1D
:10091E00000E066E200E076E410E086E1DEC0FF0D7
:10092E0001C0B4F002C0B5F003C0B6F004C0B7F019
:10093E000001B04BB12BFFFFACC01AF0ADC01BF0E5
:10094E00AEC01CF0AFC01DF0000E056E000E066EA0
:10095E00200E076E410E086EB4C001F0B5C002F055
:10096E00B6C003F0B7C004F01DEC0FF001C01EF0CE
:10097E0002C01FF003C020F004C021F002EC18F0FA
:10098E00D8B0CCEF04F0CFEF04F0FFFF84EF04F00B
:10099E00FFFFF1EF04F0FFFFB4C01FF0B5C020F071
:1009AE00B6C021F0B7C022F0000E236E000E246EEA
:1009BE00200E256E410E266E6FEC11F01FC0B4F0A6
:1009CE0020C0B5F021C0B6F022C0B7F00001B007CC
:1009DE00D8A0B107FFFFACC01AF0ADC01BF0AEC07F
:1009EE001CF0AFC01DF0B4C01EF0B5C01FF0B6C0F5
:1009FE0020F0B7C021F002EC18F0D8A009EF05F0F6
:100A0E000CEF05F0FFFFD2EF04F0FFFF52C007F02E
:100A1E00086AF9EC1CF007500001A16FA1C0A0F00C
:100A2E00670EA119D8A41EEF05F021EF05F0FFFF08
:100A3E004FEF05F0FFFF7C507D10D8A429EF05F095
:100A4E002CEF05F0FFFF31EF05F0FFFF000E7D6E7E
:100A5E00010E7C6EFFFF7DBE40EF05F07D5006E17E
:100A6E007C04D8B03DEF05F040EF05F0FFFF48EFF6
:100A7E0005F0FFFFFFFF000E9D6F060E9C6F5BEFF4
:100A8E0005F0FFFF7CC09CF07DC09DF05BEF05F094
:100A9E00FFFF7DBE55EF05F058EF05F0FFFF41EF6C
:100AAE0005F0FFFF48EF05F0FFFF670EA119D8A470
:100ABE0063EF05F066EF05F0FFFF9BEF05F0FFFF1C
:100ACE00B1AF76EF05F0FC0EB05DFF0EB159D8A0B8
:100ADE0073EF05F076EF05F0FFFF98EF05F0FFFFDF
:100AEE00FF0E536EFF0E546E9CC055F09DC056F017
:100AFE005350552654505622B051555C5650800ACC
:100B0E00576EB151800A5758D8A090EF05F093EF69
:100B1E0005F0FFFF98EF05F0FFFF660EA06F9BEF4D
:100B2E0005F0FFFF650EA06FFFFF9CC092F09DC009
:100B3E0093F0670EA119D8A4A7EF05F0AAEF05F060
:100B4E00FFFFBEEF05F0FFFF660EA019D8A4B2EFAF
:100B5E0005F0B5EF05F0FFFFC1EF05F0FFFFB1BFE8
:100B6E00BEEF05F0BBEF05F0FFFFC1EF05F0FFFF95
:100B7E00924B932BFFFF660EA019D8A4C9EF05F078
:100B8E00CCEF05F0FFFFF2EF05F0FFFFB1BFD5EFA1
:100B9E0005F0D2EF05F0FFFFE2EF05F0FFFF000ECC
:100BAE00B46F000EB56F800EB66F3F0EB76F000EAE
:100BBE00B16F000EB06FFFFF670EA119D8B4EAEF48
:100BCE0005F0EDEF05F0FFFFF2EF05F0FFFFB0517E
:100BDE009227B1519323FFFF000EAB6F000EAA6F49
:100BEE00ACC0A2F0ADC0A3F0AEC0A4F0AFC0A5F0F3
:100BFE00B4C094F0B5C095F0B6C096F0B7C097F0FB
:100C0E0085EF06F0FFFFA2C01FF0A3C020F0A4C026
:100C1E0021F0A5C022F0B4C023F0B5C024F0B6C0B8
:100C2E0025F0B7C026F06FEC11F01FC038F020C0D1
:100C3E0039F021C03AF022C03BF088EC13F038C0F6
:100C4E00A6F039C0A7F03AC0A8F03BC0A9F0A6C0E4
:100C5E0001F0A7C002F0A8C003F0A9C004F067EC31
:100C6E0017F001C098F002C099F0A2C01FF0A3C007
:100C7E0020F0A4C021F0A5C022F0B4C005F0B5C08C
:100C8E0006F0B6C007F0B7C008F0A6C001F0A7C0C6
:100C9E0002F0A8C003F0A9C004F01DEC0FF001C0D3
:100CAE0023F002C024F003C025F004C026F0A8EC07
:100CBE001EF01FC0A2F020C0A3F021C0A4F022C0DD
:100CCE00A5F0B4C01FF0B5C020F0B6C021F0B7C07B
:100CDE0022F0000E236E000E246E200E256E410EA5
:100CEE00266E6FEC11F01FC0B4F020C0B5F021C01D
:100CFE00B6F022C0B7F00001AA4BAB2BFFFF92510A
:100D0E00AA5DAB51800A536E9351800A5358D8A0F6
:100D1E0093EF06F096EF06F0FFFF09EF06F0FFFFE8
:100D2E00B4C001F0B5C002F0B6C003F0B7C004F015
:100D3E00000E056E000E066EA00E076E400E086EBB
:100D4E001DEC0FF001C0A6F002C0A7F003C0A8F082
:100D5E0004C0A9F0A2C01AF0A3C01BF0A4C01CF0DE
:100D6E00A5C01DF0A6C01EF0A7C01FF0A8C020F0A1
:100D7E00A9C021F002EC18F0D8B0C8EF06F0CBEF06
:100D8E0006F0FFFFD7EF06F0FFFF000E0001A66F83
:100D9E00000EA76F000EA86F000EA96F05EF07F0EB
:100DAE00FFFFA2C001F0A3C002F0A4C003F0A5C0D3
:100DBE0004F0A6C005F0A7C006F0A8C007F0A9C0B1
:100DCE0008F0FEEC1BF0D8A0EFEF06F0F2EF06F005
:100DDE00FFFF05EF07F0FFFF000198B1F9EF06F0F6
:100DEE00FCEF06F0FFFF05EF07F0FFFF000EA66F0A
:100DFE00000EA76F000EA86F000EA96FFFFFACC00C
:100E0E000FF0ADC010F0AEC011F0AFC012F0A6C022
:100E1E0013F0A7C014F0A8C015F0A9C016F0E5ECA9
:100E2E0009F00FC0A2F010C0A3F011C0A4F012C0C0
:100E3E00A5F0A2C01AF0A3C01BF0A4C01CF0A5C060
:100E4E001DF0000E056E000E066E200E076E410E92
:100E5E00086E94C001F095C002F096C003F097C0E2
:100E6E0004F01DEC0FF001C01EF002C01FF003C015
:100E7E0020F004C021F002EC18F0D8A049EF07F0E2
:100E8E004CEF07F0FFFF78EF07F0FFFF0001B04BCC
:100E9E00B12B94C001F095C002F096C003F097C03C
:100EAE0004F0000E056E000E066E200E076E410E4B
:100EBE00086E1DEC0FF001C094F002C095F003C057
:100ECE0096F004C097F0660E0001A019D8A472EF38
:100EDE0007F075EF07F0FFFF78EF07F0FFFF924B7B
:100EEE00932BFFFF94C0B4F095C0B5F096C0B6F04A
:100EFE0097C0B7F0650E0001A019D8B489EF07F0BE
:100F0E008CEF07F0FFFF93EF07F0FFFFB0C090F0FC
:100F1E00B1C091F098EF07F0FFFF000E916F000E39
:100F2E00906FFFFF000E8F6F000E8E6F000E8D6F95
:100F3E00000E8C6F000EAB6F000EAA6FA8EF08F0BC
:100F4E00FFFFA2C01FF0A3C020F0A4C021F0A5C0D7
:100F5E0022F0B4C023F0B5C024F0B6C025F0B7C05F
:100F6E0026F06FEC11F01FC038F020C039F021C010
:100F7E003AF022C03BF088EC13F038C0A6F039C02E
:100F8E00A7F03AC0A8F03BC0A9F0A6C001F0A7C0D8
:100F9E0002F0A8C003F0A9C004F067EC17F001C07E
:100FAE0098F002C099F07EB8DFEF07F0E2EF07F09D
:100FBE00FFFF07EF08F0FFFF000198519911D8A429
:100FCE00EBEF07F0EEEF07F0FFFF07EF08F0FFFF84
:100FDE00670EA119D8A4F6EF07F0F9EF07F0FFFF9F
:100FEE0007EF08F0FFFF91BF02EF08F0FFEF07F0E9
:100FFE00FFFF07EF08F0FFFF8C4B8D2B5BEF08F028
:10100E00FFFF00018E518F11D8A410EF08F013EFDF
:10101E0008F0FFFF41EF08F0FFFF91BF1CEF08F053
:10102E0019EF08F0FFFF41EF08F0FFFF760EB22533
:10103E00D96E010EB321DA6E2E0EDF6EB24BB32BCC
:10104E009E07D8A09F07000E8F6F010E8E6F41EF87
:10105E0008F0FFFF760EB225D96E010EB321DA6EBF
:10106E00300EDF6EB24BB32B9E07D8A09F078C07B6
:10107E00D8A08D07FFFF8C518D11D8A449EF08F031
:10108E004CEF08F0FFFF30EF08F0FFFF760EB225B1
:10109E00D96E010EB321DA6E9851300FDF6EB24B5E
:1010AE00B32B9E07D8A09F07FFFFA2C01FF0A3C0BF
:1010BE0020F0A4C021F0A5C022F0B4C005F0B5C048
:1010CE0006F0B6C007F0B7C008F0A6C001F0A7C082
:1010DE0002F0A8C003F0A9C004F01DEC0FF001C08F
:1010EE0023F002C024F003C025F004C026F0A8ECC3
:1010FE001EF01FC0A2F020C0A3F021C0A4F022C099
:10110E00A5F0B4C01FF0B5C020F0B6C021F0B7C036
:10111E0022F0000E236E000E246E200E256E410E60
:10112E00266E6FEC11F01FC0B4F020C0B5F021C0D8
:10113E00B6F022C0B7F000019007D8A09107AA4BD5
:10114E00AB2BFFFF9251AA5DAB51800A536E9351A8
:10115E00800A5358D8B0B6EF08F0B9EF08F0FFFF89
:10116E00C9EF08F0FFFFB3BFC6EF08F0B3510AE1B5
:10117E004B0EB25DD8A0C6EF08F0C9EF08F0FFFF26
:10118E00A7EF07F0FFFF8E518F11D8A4D1EF08F013
:10119E00D4EF08F0FFFFE8EF08F0FFFF7EA8DAEFCC
:1011AE0008F0DDEF08F0FFFFE8EF08F0FFFF760E26
:1011BE00B225D96E010EB321DA6E2E0EDF6EB24B52
:1011CE00B32BFFFF760EB225D96E010EB321DA6E68
:1011DE00000EDF6E650EA019D8A4F8EF08F0FBEF35
:1011EE0008F0FFFFE8EF03F0FFFF000EAB6F4F0EAE
:1011FE00AA6F760EAA25D96E010EAB21DA6E000EFD
:10120E00DF6E000E9B6F000E9A6FB1BF14EF09F0E8
:10121E0011EF09F0FFFF1DEF09F0FFFF000E9B6FAE
:10122E00010E9A6FB06DB11FD8B0B12BFFFF000E3B
:10123E009D6F020E9C6F50EF09F0FFFFAA07D8A01A
:10124E00AB07760EAA25D96E010EAB21DA6EB0C0B1
:10125E0001F0B1C002F0000E046E0A0E036E90ECA7
:10126E001BF00150300FDF6EB0C001F0B1C002F0C4
:10127E00000E046E0A0E036E36EC1AF001C0B0F0CA
:10128E0002C0B1F000019C07D8A09D079E07D8A010
:10129E009F07FFFFB051B111D8A458EF09F05BEFD3
:1012AE0009F0FFFF24EF09F0FFFF9DBF6AEF09F081
:1012BE009D5106E19C05D8B067EF09F06AEF09F081
:1012CE00FFFF24EF09F0FFFFAA07D8A0AB079A5142
:1012DE009B11D8A475EF09F078EF09F0FFFF7FEFAF
:1012EE0009F0FFFF000E876F2B0E866F84EF09F05B
:1012FE00FFFF000E876F2D0E866FFFFF760EAA255D
:10130E00D96E010EAB21DA6E86C0DFFF9E07D8A024
:10131E009F07AA07D8A0AB07BF0E536EFF0E546EE1
:10132E005250556E566A53505526545056225650AA
:10133E000BE11A0E555CD8A0A7EF09F0ABEF09F040
:10134E00FFFF010EADEF09F0FFFF000EFFFF8A6FEA
:10135E008B6B8A518B11D8A4B7EF09F0BAEF09F055
:10136E00FFFFC1EF09F0FFFF000E896F650E886F5A
:10137E00C6EF09F0FFFF000E896F450E886FFFFF65
:10138E00760EAA25D96E010EAB21DA6E88C0DFFF6C
:10139E009E07D8A09F07760EB225016E010EB321CF
:1013AE00026E760EAA25036E010EAB21046E6AEC58
:1013BE001DF0E8EF03F0FFFF1200FFFFFFFF1250DA
:1013CE00800B1B6E125012241D6E11AEF1EF09F040
:1013DE00F4EF09F0FFFFF6EF09F0FFFF1D80FFFFAE
:1013EE001D50D8B4FDEF09F000EF0AF0FFFF19EF22
:1013FE000AF0FFFF1D28D8A407EF0AF00AEF0AF043
:10140E00FFFF13EF0AF0FFFF000E0F6E000E106EBF
:10141E00000E116E000E126EFFFF118E000E126E78
:10142E0022EF0AF0FFFF000E0F6E000E106E000E80
:10143E00116E000E126EFFFF1650800B1C6E1B50AD
:10144E001C18D8B42DEF0AF030EF0AF0FFFF32EF80
:10145E000AF0FFFF1B8CFFFF165016241C6E15AEF4
:10146E003BEF0AF03EEF0AF0FFFF40EF0AF0FFFFFE
:10147E001C80FFFF1C50D8B447EF0AF04AEF0AF069
:10148E00FFFF63EF0AF0FFFF1C28D8A451EF0AF00C
:10149E0054EF0AF0FFFF5DEF0AF0FFFF000E136E30
:1014AE00000E146E000E156E000E166EFFFF158EDA
:1014BE00000E166E6CEF0AF0FFFF000E136E000E9C
:1014CE00146E000E156E000E166EFFFF1D501C5C86
:1014DE00D8B074EF0AF077EF0AF0FFFFA2EF0AF030
:1014EE00FFFF1BAC7DEF0AF080EF0AF0FFFF83EFEA
:1014FE000AF0FFFF800E1B1AFFFF1DC01EF01CC05E
:10150E001DF01EC01CF00FC01EF013C00FF01EC049
:10151E0013F010C01EF014C010F01EC014F011C055
:10152E001EF015C011F01EC015F012C01EF016C030
:10153E0012F01EC016F0FFFF000E1E6E1D501CC0D6
:10154E0017F0186A175E000E185A18BEB8EF0AF098
:10155E0018500AE11A0E175CD8A0B8EF0AF0BBEFCC
:10156E000AF0FFFFFEEF0AF0FFFF0F5010101110F0
:10157E001210D8A4C5EF0AF0C9EF0AF0FFFF010E52
:10158E00CBEF0AF0FFFF000EFFFF1E6E000E0F6E78
:10159E00000E106E000E116E000E126E1CC01DF0AD
:1015AE0009EF0BF0FFFF1EA0DFEF0AF0E2EF0AF0EB
:1015BE00FFFFE9EF0AF0FFFFD8901E3001091E6E03
:1015CE00ECEF0AF0FFFFD8901E32FFFF0FA0F2EFF4
:1015DE000AF0F5EF0AF0FFFFF7EF0AF0FFFF1E8E9D
:1015EE00FFFF12341232113210320F321D2AFFFF5A
:1015FE001C501D5CD8A006EF0BF009EF0BF0FFFF9F
:10160E00D9EF0AF0FFFF1BBC0FEF0BF012EF0BF040
:10161E00FFFF5FEF0BF0FFFF1D50D8A419EF0BF08B
:10162E001CEF0BF0FFFF27EF0BF0FFFF000E0F6E0E
:10163E00000E106E000E116E000E126EB6EF0CF054
:10164E00FFFF13500F261450102215501122165062
:10165E00122212A035EF0BF038EF0BF0FFFF03EF65
:10166E000CF0FFFF1EA03EEF0BF041EF0BF0FFFF63
:10167E0048EF0BF0FFFFD8901E3001091E6E4BEFA6
:10168E000BF0FFFFD8901E32FFFF0FA051EF0BF0B3
:10169E0054EF0BF0FFFF56EF0BF0FFFF1E8EFFFF18
:1016AE0012341232113210320F321D2A03EF0CF0A7
:1016BE00FFFF13500F5C1450105815501158125054
:1016CE00800A176E1650800A1758D8B071EF0BF0BB
:1016DE0074EF0BF0FFFFA2EF0BF0FFFF0F50135C48
:1016EE00176E10501458186E11501558196E12505E
:1016FE0016581A6EFF0E17240F6EFF0E1820106E5E
:10170E00FF0E1920116EFF0E1A20126E800E1B1A7C
:10171E001E6C1E50D8A496EF0BF099EF0BF0FFFF46
:10172E00ABEF0BF0FFFF010E0F26000E1022112261
:10173E001222ABEF0BF0FFFF13500F5E1450105A36
:10174E001550115A1650125AFFFF0F50101011104B
:10175E001210D8A4B5EF0BF0B8EF0BF0FFFFFAEFB5
:10176E000BF0FFFF1E50D8A4BFEF0BF0C2EF0BF033
:10177E00FFFFFAEF0BF0FFFF000E0F6E000E106E64
:10178E00000E116E000E126EB6EF0CF0FFFFD89029
:10179E000F361036113612361EAED8EF0BF0DBEFC9
:1017AE000BF0FFFFDDEF0BF0FFFF0F80FFFF1EA022
:1017BE00E3EF0BF0E6EF0BF0FFFFEBEF0BF0FFFFAD
:1017CE00D8801E36EEEF0BF0FFFFD8901E36FFFFCF
:1017DE001D50D8B4F5EF0BF0F8EF0BF0FFFFFAEF5A
:1017EE000BF0FFFF1D06FFFF11AE00EF0CF003EF35
:1017FE000CF0FFFFCDEF0BF0FFFF000E1C6E1EAEC8
:10180E000BEF0CF00EEF0CF0FFFF2DEF0CF0FFFFC7
:10181E001EC017F07F0E1716D8B418EF0CF01BEF82
:10182E000CF0FFFF21EF0CF0FFFFFFFF010E1C6E0F
:10183E002DEF0CF0FFFF0FA027EF0CF02AEF0CF0AE
:10184E00FFFF2DEF0CF0FFFF1CEF0CF0FFFF1C5005
:10185E00D8B434EF0CF037EF0CF0FFFF67EF0CF05D
:10186E00FFFF010E0F26000E10221122122212A0CF
:10187E0043EF0CF046EF0CF0FFFF67EF0CF0FFFFAD
:10188E000FC017F010C018F011C019F012C01AF0E6
:10189E001A341A3219321832173217C00FF018C014
:1018AE0010F019C011F01AC012F01D28D8B462EF52
:1018BE000CF065EF0CF0FFFF67EF0CF0FFFF1D2A39
:1018CE00FFFF1D28D8B46EEF0CF071EF0CF0FFFF88
:1018DE007BEF0CF0FFFF1D50D8A478EF0CF07BEFE0
:1018EE000CF0FFFF90EF0CF0FFFF000E0F6E000EDE
:1018FE00106E000E116E000E126E1D50D8A48AEFDF
:10190E000CF08DEF0CF0FFFF90EF0CF0FFFF000ED0
:10191E001B6EFFFF1DA096EF0CF099EF0CF0FFFF72
:10192E009DEF0CF0FFFF118E9FEF0CF0FFFF119E4D
:10193E00FFFFD8901D30126E1BAEA8EF0CF0ABEF70
:10194E000CF0FFFFADEF0CF0FFFF128EFFFF0FC08C
:10195E000FF010C010F011C011F012C012F0FFFF06
:10196E001200FFFFFFFF5AC0D9FF5BC0DAFFDECFC8
:10197E00F6FFDDCFF7FF0800FFFFF550250AD8A4CC
:10198E00CBEF0CF0CEEF0CF0FFFFFDEF0EF0FFFFF4
:10199E005AC0D9FF5BC0DAFFDE2A000EDD22000E30
:1019AE007B6E000E7A6E7AC07EF07BC07FF07C6814
:1019BE007D685AC0D9FF5BC0DAFFDECFF6FFDDCF00
:1019CE00F7FF0800FFFFF5502E0AD8A4F1EF0CF038
:1019DE00F4EF0CF0FFFF7DEF0DF0FFFF000E7D6EBC
:1019EE00000E7C6E5AC0D9FF5BC0DAFFDE2A000EF5
:1019FE00DD225AC0D9FF5BC0DAFFDECFF6FFDDCFA6
:101A0E00F7FF0800FFFFF5502A0AD8A411EF0DF0DA
:101A1E0014EF0DF0FFFF32EF0DF0FFFF5AC0D9FFAC
:101A2E005BC0DAFFDE2A000EDD225CC0D9FF5DC08E
:101A3E00DAFFDFCF5EF0020EDE26DFCF5FF0000EA4
:101A4E00DD225EC0D9FF5FC0DAFFDECF7CF0DDCFD6
:101A5E007DF07DEF0DF0FFFF5AC0D9FF5BC0DAFFBE
:101A6E00DECF08F0DDCF09F0ACEC15F008C07CF04D
:101A7E0009C07DF04BEF0DF0FFFF5AC0D9FF5BC0E0
:101A8E00DAFFDE2A000EDD22FFFFD00E5E6EFF0EA5
:101A9E005F6E5AC0D9FF5BC0DAFFDECFF6FFDDCF37
:101AAE00F7FF0800FFFFF550606E616A5E5060261A
:101ABE005F50612261500BE10A0E605CD8A06AEFA4
:101ACE000DF06EEF0DF0FFFF010E70EF0DF0FFFF4A
:101ADE00000EFFFF626E636A62506310D8A47AEF45
:101AEE000DF07DEF0DF0FFFF43EF0DF0FFFF5AC03D
:101AFE00D9FF5BC0DAFFDECFF6FFDDCFF7FF0800C0
:101B0E00FFFFF550076E086AF9EC1CF007506A6E7D
:101B1E006A50D8B495EF0DF098EF0DF0FFFFD5EFAA
:101B2E000DF0FFFF5AC0D9FF5BC0DAFFDECF5EF0CB
:101B3E00DDCF5FF0010E5E26000E5F225EC0F6FF67
:101B4E005FC0F7FF0800FFFFF550076E086AF9EC5B
:101B5E001CF007506B6E6B50D8B4B8EF0DF0BBEFA6
:101B6E000DF0FFFFD5EF0DF0FFFF5AC0D9FF5BC0A0
:101B7E00DAFFDECF5EF0DDCF5FF0020E5E26000EE6
:101B8E005F225EC0F6FF5FC0F7FF0800FFFFF55053
:101B9E00076E086AF9EC1CF007506C6EFFFF660EBC
:101BAE006A18D8A4DDEF0DF0E0EF0DF0FFFF23EF84
:101BBE000EF0FFFF5AC0D9FF5BC0DAFFDECFF6FF93
:101BCE00DDCFF7FF0800FFFFF5CF6DF05AC0D9FF4C
:101BDE005BC0DAFFDE2A000EDD225CC0D9FF5DC0DD
:101BEE00DAFFDFCF5EF0040EDE26DFCF5FF0000EF1
:101BFE00DD225EC0D9FF5FC0DAFFDECF66F0DECF3A
:101C0E0067F0DECF68F0DECF69F0FFFF58C04CF012
:101C1E0059C04DF066C04EF067C04FF068C050F02E
:101C2E0069C051F06DC052F01FEC03F04CC058F07B
:101C3E004DC059F01AEF0FF0FFFF6A0E016E000E45
:101C4E00026E390E036E060E046E000E066E020E46
:101C5E00056EB9EC19F001500210D8A439EF0EF050
:101C6E003CEF0EF0FFFFC1EF0EF0FFFF5AC0D9FFA1
:101C7E005BC0DAFFDECF5EF0DDCF5FF0010E5E26D9
:101C8E00000E5F225EC0F6FF5FC0F7FF0800FFFF89
:101C9E00F5CF6DF0BF0E5E6EFF0E5F6E5AC0D9FFB0
:101CAE005BC0DAFFDECFF6FFDDCFF7FF0800FFFFE8
:101CBE00F550606E616A5E5060265F506122615021
:101CCE000BE11A0E605CD8A06FEF0EF073EF0EF002
:101CDE00FFFF010E75EF0EF0FFFF000EFFFF646EAB
:101CEE00656A64506510D8B47FEF0EF082EF0EF087
:101CFE00FFFF9DEF0EF0FFFF5CC0D9FF5DC0DAFF66
:101D0E00DFCF5EF0040EDE26DFCF5FF0000EDD22A9
:101D1E005EC0D9FF5FC0DAFFDECF66F0DECF67F0C0
:101D2E00DECF68F0DECF69F0B6EF0EF0FFFF5CC0DD
:101D3E00D9FF5DC0DAFFDFCF5EF0040EDE26DFCF07
:101D4E005FF0000EDD225EC0D9FF5FC0DAFFDECF8E
:101D5E0066F0DECF67F0DECF68F0DECF69F0FFFF12
:101D6E00020E5AC0D9FF5BC0DAFFDE26000EDD225E
:101D7E000CEF0EF0FFFF5AC0D9FF5BC0DAFFDECFCB
:101D8E00F6FFDDCFF7FF0800FFFFF550250AD8A4B8
:101D9E00D3EF0EF0D6EF0EF0FFFFEFEF0EF0FFFFDA
:101DAE005AC0D9FF5BC0DAFFDE2A000EDD22000E1C
:101DBE00026E250E016E58C003F059C004F01FECE0
:101DCE001BF0FFFF000E596E010E586E1AEF0FF04A
:101DDE00FFFF5AC0D9FF5BC0DAFFDE2A000EDD22FC
:101DEE00000E596E000E586E1AEF0FF0FFFF5AC01C
:101DFE00D9FF5BC0DAFFDECFF6FFDDCFF7FF0800BD
:101E0E00FFFFF550016E026A58C003F059C004F08E
:101E1E001FEC1BF05AC0D9FF5BC0DAFFDE2A000EA2
:101E2E00DD22E8EF0EF0FFFF1200FFFFFFFF045070
:101E3E00800B0D6E04500424136E03AE29EF0FF0C9
:101E4E002CEF0FF0FFFF2EEF0FF0FFFF1380FFFFC1
:101E5E001350D8B435EF0FF038EF0FF0FFFF4FEF00
:101E6E000FF0FFFF1328D8A43FEF0FF042EF0FF053
:101E7E00FFFF4BEF0FF0FFFF000E016E000E026E24
:101E8E00000E036E000E046EFFFF038E58EF0FF070
:101E9E00FFFF000E016E000E026E000E036E000EAE
:101EAE00046EFFFF0850800B0D1A08500824126EA6
:101EBE0007AE64EF0FF067EF0FF0FFFF69EF0FF063
:101ECE00FFFF1280FFFF1250D8B470EF0FF073EFC8
:101EDE000FF0FFFF8AEF0FF0FFFF1228D8A47AEF62
:101EEE000FF07DEF0FF0FFFF86EF0FF0FFFF000EFC
:101EFE00056E000E066E000E076E000E086EFFFFDA
:101F0E00078E93EF0FF0FFFF000E056E000E066EAC
:101F1E00000E076E000E086EFFFF1250D8B49AEF37
:101F2E000FF09DEF0FF0FFFFA7EF0FF0FFFF135025
:101F3E00D8A4A4EF0FF0A7EF0FF0FFFFB2EF0FF052
:101F4E00FFFF000E016E000E026E000E036E000EFD
:101F5E00046E6CEF11F0FFFF07500102F3CF18F083
:101F6E00F4CF19F018500E6E0F6A106A116A1950DC
:101F7E00146E156A166A176A06500202F3CF18F02D
:101F8E00F4CF19F018500E26000E0F221022112237
:101F9E0019501426000E1522162217220550030280
:101FAE00F3CF18F0F4CF19F018500E26000E0F22B2
:101FBE001022112219501426000E15221622172255
:101FCE0010C011F00FC010F00EC00FF00E6A0550C9
:101FDE000202F3CF18F0F4CF19F018500E26195054
:101FEE000F22000E1022000E112206500102F3CF16
:101FFE0018F0F4CF19F018500E2619500F22000EBB
:10200E001022000E112210C011F00FC010F00EC0E1
:10201E000FF00E6A05500102F3CF18F0F4CF19F04D
:10202E0018500E2619500F22000E1022000E1122EB
:10203E0007500202F3CF18F0F4CF19F018501426FF
:10204E0019501522000E1622000E172206500302FA
:10205E00F3CF18F0F4CF19F018501426195015229A
:10206E00000E1622000E172207500302F3CF18F0AF
:10207E00F4CF19F01850096E19500A6E0B6A0C6ADB
:10208E000BC00CF00AC00BF009C00AF0096A095027
:10209E0014260A5015220B5016220C5017220EC071
:1020AE0009F00FC00AF010C00BF011C00CF0190EA1
:1020BE0067EF10F0FFFFD8900C320B320A32093264
:1020CE00FFFFE82E61EF10F0095014260A5015227A
:1020DE000B5016220C50172210C011F00FC010F02A
:1020EE000EC00FF00E6A125013C009F00A6A0926CC
:1020FE00000E0A22820E0924186EFF0E0A20196E97
:10210E00A2EF10F0FFFFD89014361536163617369C
:10211E0011AE94EF10F097EF10F0FFFF99EF10F063
:10212E00FFFF1480FFFFD8900E360F361036113693
:10213E001806D8A01906FFFF16AEA8EF10F0ABEFE9
:10214E0010F0FFFF89EF10F0FFFF000E126E11AEC0
:10215E00B3EF10F0B6EF10F0FFFFE1EF10F0FFFF5E
:10216E00FF0E0E14096EFF0E0F140A6EFF0E1014E2
:10217E000B6E7F0E11140C6E09500A100B100C1002
:10218E00D8B4CCEF10F0CFEF10F0FFFFD5EF10F07A
:10219E00FFFFFFFF010E126EE1EF10F0FFFF14A024
:1021AE00DBEF10F0DEEF10F0FFFFE1EF10F0FFFFBE
:1021BE00D0EF10F0FFFF1250D8B4E8EF10F0EBEFB5
:1021CE0010F0FFFF12EF11F0FFFF010E1426000EAC
:1021DE0015221622172217A0F7EF10F0FAEF10F0C3
:1021EE00FFFF12EF11F0FFFF14C009F015C00AF047
:1021FE0016C00BF017C00CF00C340C320B320A3236
:10220E00093209C014F00AC015F00BC016F00CC04C
:10221E0017F0184A192AFFFF19BE1EEF11F01950B8
:10222E0009E11828D8A01EEF11F021EF11F0FFFFE1
:10223E002CEF11F0FFFF000E146E000E156E800EC7
:10224E00166E7F0E176E61EF11F0FFFF19BE3BEF9A
:10225E0011F0195006E11804D8B038EF11F03BEF29
:10226E0011F0FFFF48EF11F0FFFF000E146E000E8D
:10227E00156E000E166E000E176E000E0D6E61EFCF
:10228E0011F0FFFF18C013F0FF0E1416FF0E1516F7
:10229E007F0E1616000E171613A058EF11F05BEFF7
:1022AE0011F0FFFF5DEF11F0FFFF168EFFFFD890CC
:1022BE001330176EFFFF0D50171214C001F015C02A
:1022CE0002F016C003F017C004F0FFFF1200FFFF6C
:1022DE00FFFF2250800B2F6E22502224366E21AE2D
:1022EE007BEF11F07EEF11F0FFFF80EF11F0FFFF9B
:1022FE003680FFFF3650D8B487EF11F08AEF11F019
:10230E00FFFFA3EF11F0FFFF3628D8A491EF11F0D5
:10231E0094EF11F0FFFF9DEF11F0FFFF000E1F6E07
:10232E00000E206E000E216E000E226EFFFF218E1B
:10233E00000E226EACEF11F0FFFF000E1F6E000EAE
:10234E00206E000E216E000E226EFFFF2650800BB7
:10235E002F1A26502624376E25AEB8EF11F0BBEF9C
:10236E0011F0FFFFBDEF11F0FFFF3780FFFF375079
:10237E00D8B4C4EF11F0C7EF11F0FFFFE0EF11F08A
:10238E00FFFF3728D8A4CEEF11F0D1EF11F0FFFFE9
:10239E00DAEF11F0FFFF000E236E000E246E000E1A
:1023AE00256E000E266EFFFF258E000E266EE9EFBF
:1023BE0011F0FFFF000E236E000E246E000E256E30
:1023CE00000E266EFFFF2350241025102610D8A4D1
:1023DE00F3EF11F0F6EF11F0FFFF10EF12F0FFFF29
:1023EE00000E1F6E000E206E000E216E000E226E6D
:1023FE00800E21127F0E2212FFFF2F5022121FC0BD
:10240E001FF020C020F021C021F022C022F085EF65
:10241E0013F0FFFF3650D8A417EF12F01AEF12F098
:10242E00FFFF25EF12F0FFFF000E1F6E000E206E55
:10243E00000E216E000E226E85EF13F0FFFF375057
:10244E0036C027F0286A275E000E285A7F0E2724F2
:10245E00306E000E2820316E1FC02BF020C02CF0E5
:10246E0021C02DF022C02EF0000E1F6E000E206E29
:10247E00000E216E000E226E000E326E000E336EB6
:10248E00000E346E000E356E000E376E91EF12F0A8
:10249E00FFFF3750D8B456EF12F059EF12F0FFFF8E
:1024AE0074EF12F0FFFFD8902B362C362D362E36C9
:1024BE00D8901F3620362136223635AE69EF12F00F
:1024CE006CEF12F0FFFF6EEF12F0FFFF1F80FFFFA9
:1024DE00D8903236333634363536FFFF23502B5CE8
:1024EE0024502C5825502D5826502E58D8A082EF07
:1024FE0012F085EF12F0FFFF8FEF12F0FFFF358C19
:10250E0023502B5E24502C5A25502D5A26502E5ACD
:10251E00FFFF372AFFFF190E376498EF12F09BEF7B
:10252E0012F0FFFF4FEF12F0FFFF2B502C102D106B
:10253E002E10D8B4A5EF12F0A8EF12F0FFFFC5EFE2
:10254E0012F0FFFF3280C5EF12F0FFFFD8901F365A
:10255E0020362136223635AEB7EF12F0BAEF12F032
:10256E00FFFFBCEF12F0FFFF1F80FFFFD890323647
:10257E003336343635363006D8A03106FFFF21AE5D
:10258E00CBEF12F0CEEF12F0FFFFACEF12F0FFFF29
:10259E00000E376E35AED6EF12F0D9EF12F0FFFF08
:1025AE0004EF13F0FFFFFF0E3214276EFF0E3314ED
:1025BE00286EFF0E3414296E7F0E35142A6E2750A6
:1025CE00281029102A10D8B4EFEF12F0F2EF12F003
:1025DE00FFFFF8EF12F0FFFFFFFF010E376E04EF63
:1025EE0013F0FFFF1FA0FEEF12F001EF13F0FFFF3D
:1025FE0004EF13F0FFFFF3EF12F0FFFF3750D8B4E4
:10260E000BEF13F00EEF13F0FFFF35EF13F0FFFF9C
:10261E00010E1F26000E20222122222222A01AEFB6
:10262E0013F01DEF13F0FFFF35EF13F0FFFF1FC088
:10263E0027F020C028F021C029F022C02AF02A3429
:10264E002A3229322832273227C01FF028C020F024
:10265E0029C021F02AC022F0304A312AFFFF31BEB4
:10266E0041EF13F0315009E13028D8A041EF13F0BB
:10267E0044EF13F0FFFF50EF13F0FFFF000E316E2B
:10268E003068000E1F6E000E206E000E216E000EC2
:10269E00226EFFFF31BE5FEF13F0315006E13004C2
:1026AE00D8B05CEF13F05FEF13F0FFFF6EEF13F097
:1026BE00FFFF000E316E000E306E000E1F6E000E0C
:1026CE00206E000E216E000E226E000E2F6EFFFF8A
:1026DE0030C036F036A076EF13F079EF13F0FFFF2F
:1026EE007DEF13F0FFFF218E7FEF13F0FFFF219E92
:1026FE00FFFFD8903630226E03EF12F0FFFF12006C
:10270E00FFFFFFFFCEC048F0CFC049F0D0C04AF067
:10271E00D1C04BF038C048F039C049F03AC04AF049
:10272E003BC04BF0810E3C6EFF0E3D6E48C03EF03E
:10273E0049C03FF04AC040F04BC041F0180EAEEF1A
:10274E0013F0FFFFD890413240323F323E32FFFF4E
:10275E00E82EA8EF13F03E503C24466E000E3D20AE
:10276E00476E47BEC4EF13F047500AE1170E465CA2
:10277E00D8A0C4EF13F0C7EF13F0FFFFD3EF13F0A1
:10278E00FFFFFFFF38C038F039C039F03AC03AF0D9
:10279E003BC03BF0ADEF14F0FFFF47BED9EF13F097
:1027AE00DCEF13F0FFFF58EF14F0FFFF46C03CF0D4
:1027BE00FF0E3D6EFF0E3E6E7F0E3F6E000E406EA4
:1027CE00FFFF3C66EDEF13F0F6EF13F0FFFF403422
:1027DE0040323F323E323D323C2EE7EF13F0FFFFE8
:1027EE003DC042F03EC043F03FC044F040C045F013
:1027FE00425048143C6E435049143D6E44504A14A6
:10280E003E6E45504B143F6E3C503D103E103F10F7
:10281E00D8A414EF14F017EF14F0FFFF1AEF14F012
:10282E00FFFFC8EF13F0FFFF48C03CF049C03DF07A
:10283E004AC03EF04BC03FF0200E2CEF14F0FFFFCD
:10284E00D8903F323E323D323C32FFFFE82E26EF2B
:10285E0014F03C503D103E103F10D8B439EF14F038
:10286E003CEF14F0FFFF45EF14F0FFFF42504826F7
:10287E004350492244504A2245504B22FFFF421CEE
:10288E003C6E431C3D6E441C3E6E451C3F6E3C50E0
:10289E0048163D5049163E504A163F504B16A4EF6F
:1028AE0014F0FFFF48C03CF049C03DF04AC03EF076
:1028BE004BC03FF0200E6AEF14F0FFFFD8903F326E
:1028CE003E323D323C32FFFFE82E64EF14F03C50B6
:1028DE003D103E103F10D8A477EF14F07AEF14F0AD
:1028EE00FFFF85EF14F0FFFF000E486E000E496EDD
:1028FE00000E4A6E000E4B6EA4EF14F0FFFFD89040
:10290E0048343C6E49343D6E4A343E6E4B343F6E15
:10291E003C503D103E103F10D8B498EF14F09BEF92
:10292E0014F0FFFFA4EF14F0FFFF000E486E000E30
:10293E00496E800E4A6EBF0E4B6EFFFF48C038F0D8
:10294E0049C039F04AC03AF04BC03BF0FFFF1200CD
:10295E00FFFFFFFF096E0950D8B4B8EF14F0BBEFBC
:10296E0014F0FFFFE0EF14F0FFFF04BEC4EF14F00D
:10297E00C1EF14F0FFFFE0EF14F0FFFF01C005F010
:10298E0002C006F003C007F004C008F0051E061EC4
:10299E00071E081E052A000E06220722082205C061
:1029AE000BF006C00CF007C00DF008C00EF0E9EFFA
:1029BE0014F0FFFF01C00BF002C00CF003C00DF0CD
:1029CE0004C00EF0FFFF0150021003100410D8A433
:1029DE00F3EF14F0F6EF14F0FFFF01EF15F0FFFF29
:1029EE00000E016E000E026E000E036E000E046EDF
:1029FE00A9EF15F0FFFF960E0A6E0DEF15F0FFFF13
:102A0E000A2AD8900E320D320C320B32FFFF000E16
:102A1E000B14056E000E0C14066E000E0D14076ED0
:102A2E00FE0E0E14086E0550061007100810D8A4DE
:102A3E0023EF15F026EF15F0FFFF06EF15F0FFFF61
:102A4E0036EF15F0FFFF0A2A010E0B26000E0C22A0
:102A5E000D220E22D8900E320D320C320B32FFFFA9
:102A6E00000E0B14056E000E0C14066E000E0D14E7
:102A7E00076EFF0E0E14086E055006100710081094
:102A8E00D8A44CEF15F04FEF15F0FFFF29EF15F01E
:102A9E00FFFF59EF15F0FFFF0A06D8900B360C36E4
:102AAE000D360E36FFFF0DBE5FEF15F062EF15F01F
:102ABE00FFFF6CEF15F0FFFF020E0A6069EF15F0D5
:102ACE006CEF15F0FFFF52EF15F0FFFF0AB072EF3B
:102ADE0015F075EF15F0FFFF77EF15F0FFFF0D9E68
:102AEE00FFFFD8900A320AC005F0066A076A086A24
:102AFE0005C008F0076A066A056A05500B120650F3
:102B0E000C1207500D1208500E120950D8B492EF45
:102B1E0015F095EF15F0FFFFA0EF15F0FFFF04BEC7
:102B2E009EEF15F09BEF15F0FFFFA0EF15F0FFFFE6
:102B3E000E8EFFFF0BC001F00CC002F00DC003F0B3
:102B4E000EC004F0FFFF1200FFFFFFFF000E166E17
:102B5E00000E156E000E0F6E000E0E6EBAEF15F013
:102B6E00FFFF084A092AFFFF010E146E08C0F6FF88
:102B7E0009C0F7FF0800FFFFF550200AD8B4CAEFCE
:102B8E0015F0CDEF15F0FFFFEEEF15F0FFFFF70E8E
:102B9E000A6EFF0E0B6E08C0F6FF09C0F7FF0800A5
:102BAE00FFFFF5500C6E0D6A0A500C260B500D22CD
:102BBE000D500AE1050E0C5CD8A0E8EF15F0EBEF16
:102BCE0015F0FFFFEEEF15F0FFFF000E146EFFFF86
:102BDE0014C010F0116A10501110D8A4F9EF15F0AE
:102BEE00FCEF15F0FFFFB7EF15F0FFFF09EF16F042
:102BFE00FFFF000E0F6E010E0E6EFFFF084A092A30
:102C0E0043EF16F0FFFF08C0F6FF09C0F7FF0800FC
:102C1E00FFFFF5500A6E0B6A0B50000AD8B41AEF7C
:102C2E0016F043EF16F0FFFF0A502B0AD8B404EF4C
:102C3E0016F0060AD8B4FFEF15F043EF16F0FFFFBB
:102C4E0015C001F016C002F0000E046E0A0E036EDF
:102C5E0096EC1FF008C0F6FF09C0F7FF0800FFFF53
:102C6E00F550015E000E025A300E0124156E000E54
:102C7E000220166E04EF16F0FFFFD00E0A6EFF0E46
:102C8E000B6E08C0F6FF09C0F7FF0800FFFFF550F6
:102C9E000C6E0D6A0A500C260B500D220D500BE1D6
:102CAE000A0E0C5CD8A05EEF16F062EF16F0FFFF76
:102CBE00010E64EF16F0FFFF000EFFFF126E136A97
:102CCE0012501310D8A46EEF16F071EF16F0FFFF2E
:102CDE0026EF16F0FFFF0E500F10D8A479EF16F066
:102CEE007CEF16F0FFFF8BEF16F0FFFF15C00AF01A
:102CFE0016C00BF00A1E0B1E0A4A0B2A0AC008F059
:102D0E000BC009F090EF16F0FFFF15C008F016C0CB
:102D1E0009F0FFFF1200FFFFFFFF000E0101736FAE
:102D2E00000E726F000E756F000E746F000E646FE2
:102D3E00000E656F000E666F000E676F000E686FF7
:102D4E00000E696F000E6A6F000E6B6F000E6C6FD7
:102D5E00000E6D6F000E6E6F000E6F6F000E926E96
:102D6E00000E936E000E946EF5EC02F0A00E0E6E39
:102D7E00860E0F6E010E106E000E116E9EEC1DF083
:102D8E00020E796E860E786EDB0EFFFFE82EFDD7F3
:102D9E00782EFBD7792EF9D7000E036E2A0EABECE8
:102DAE001FF0000E036E0E0EABEC1FF0010E036E45
:102DBE002A0EABEC1FF0000E036E2A0EABEC1FF0CA
:102DCE00190E036E2A0EABEC1FF0FFFF68EC1FF01E
:102DDE00786E070E7816D8B4F7EF16F0FAEF16F0F5
:102DEE00FFFFECEF16F0FFFF010EBEEC1CF003C070
:102DFE0070F104C071F1030EBEEC1CF003C072F151
:102E0E0004C073F1050EBEEC1CF003C074F104C0D7
:102E1E0075F170C138F071C139F096EC18F038C008
:102E2E0064F139C065F13AC066F13BC067F172C119
:102E3E0038F073C139F096EC18F038C068F139C02B
:102E4E0069F13AC06AF13BC06BF174C138F075C1DB
:102E5E0039F096EC18F038C06CF139C06DF13AC00B
:102E6E006EF13BC06FF1000E0001BE6F010EBF6F21
:102E7E000F0EC06F060EC16F64C1C2F065C1C3F004
:102E8E0066C1C4F067C1C5F068C1C6F069C1C7F0BC
:102E9E006AC1C8F06BC1C9F06CC1CAF06DC1CBF08C
:102EAE006EC1CCF06FC1CDF02EEC1EF0000E026E96
:102EBE00010E036E81EC1EF0ECEF16F001EF00F048
:102ECE00FFFF033404340A6E0A50D8A471EF17F0D2
:102EDE0074EF17F0FFFF80EF17F0FFFFFFFF000EFC
:102EEE00016E000E026E000E036E000E046EFFEFFA
:102EFE0017F0FFFF01C005F002C006F003C007F097
:102F0E0004C008F0200E92EF17F0FFFFD8900832A1
:102F1E00073206320532FFFFE82E8CEF17F0055010
:102F2E00096E038EFF0E0116FF0E0216FF0E03161C
:102F3E00000E0416960E0A5E0ABEABEF17F0A8EF4F
:102F4E0017F0FFFFC5EF17F0FFFF0A50800A970F2B
:102F5E00D8B0B4EF17F0B7EF17F0FFFFBAEF17F0D6
:102F6E00FFFF75EF17F0FFFFD890043203320232E5
:102F7E0001320A3EBAEF17F0E3EF17F0FFFF1F0E14
:102F8E000A64CCEF17F0CFEF17F0FFFFD9EF17F071
:102F9E00FFFF75EF17F0FFFFD890013602360336AC
:102FAE0004360A06FFFF0A50D8A4E0EF17F0E3EF4D
:102FBE0017F0FFFFD2EF17F0FFFF0950D8B4EAEF7A
:102FCE0017F0EDEF17F0FFFFF6EF17F0FFFF041EFF
:102FDE00031E021E016C000E022203220422FFFFBA
:102FEE0001C001F002C002F003C003F004C004F0FF
:102FFE00FFFF1200FFFFFFFF000E1A14226E000EDD
:10300E001B14236E800E1C14246E7F0E1D14256E51
:10301E002250231024102510D8A418EF18F01BEFFF
:10302E0018F0FFFF24EF18F0FFFF000E1A6E000ECF
:10303E001B6E000E1C6E000E1D6EFFFF000E1E148A
:10304E00226E000E1F14236E800E2014246E7F0E2F
:10305E002114256E2250231024102510D8A43AEFE7
:10306E0018F03DEF18F0FFFF46EF18F0FFFF000ECF
:10307E001E6E000E1F6E000E206E000E216EFFFFE4
:10308E001DAE4CEF18F04FEF18F0FFFF59EF18F090
:10309E00FFFF1A6C1B1ED8B01B2A1C1ED8B01C2A90
:1030AE00800E1D56FFFF21AE5FEF18F062EF18F095
:1030BE00FFFF6CEF18F0FFFF1E6C1F1ED8B01F2A0B
:1030CE00201ED8B0202A800E2156FFFF000E1A1A9D
:1030DE00000E1B1A000E1C1A800E1D1A000E1E1A50
:1030EE00000E1F1A000E201A800E211A1E501A5C96
:1030FE001F501B5820501C5821501D58D8B08AEF15
:10310E0018F08DEF18F0FFFF91EF18F0FFFFD89039
:10311E0093EF18F0FFFFD880FFFF1200FFFFFFFFB5
:10312E0038C040F039C041F041A6A0EF18F0A3EF2F
:10313E0018F0FFFFDFEF18F0FFFFFF0E4016070E2F
:10314E004116000E136EC00E146EFF0E156EC40ED9
:10315E00166E40C001F041C002F0036A046A000E10
:10316E00B0EC14F001C00FF002C010F003C011F06B
:10317E0004C012F0E5EC09F00FC01FF010C020F0F3
:10318E0011C021F012C022F0000E236E000E246E2C
:10319E00800E256E450E266E6FEC11F01FC03CF0B2
:1031AE0020C03DF021C03EF022C03FF003EF19F0E9
:1031BE00FFFF40C001F041C002F0036A046A000E36
:1031CE00B0EC14F001C01FF002C020F003C021F0DB
:1031DE0004C022F0000E236E000E246E800E256EAB
:1031EE00450E266E6FEC11F01FC03CF020C03DF076
:1031FE0021C03EF022C03FF0FFFF3CC001F03DC0B9
:10320E0002F03EC003F03FC004F0C30E056EF50E93
:10321E00066E1C0E076E410E086E1DEC0FF001C0FF
:10322E003CF002C03DF003C03EF004C03FF03CC095
:10323E0038F03DC039F03EC03AF03FC03BF01200CE
:10324E00FFFFFFFFD2C00BF0D3C00CF0D4C00DF0C7
:10325E00D5C00EF001C00BF002C00CF003C00DF093
:10326E0004C00EF00BC005F00CC006F00DC007F048
:10327E000EC008F0180E4AEF19F0FFFFD890083272
:10328E00073206320532FFFFE82E44EF19F00550E3
:10329E00096E0A6A09500A10D8A458EF19F05BEFAC
:1032AE0019F0FFFF7FEF19F0FFFFD8900B34056E7A
:1032BE000C34066E0D34076E0E34086E0550061073
:1032CE0007100810D8A46EEF19F071EF19F0FFFF78
:1032DE0078EF19F0FFFF000E026E020E016EB6EFD0
:1032EE0019F0FFFF000E026E030E016EB6EF19F01D
:1032FE00FFFF09280A10D8A487EF19F08AEF19F0FA
:10330E00FFFFB1EF19F0FFFF0BC005F00CC006F088
:10331E000DC007F00EC008F0090EFFFFD89005365D
:10332E00063607360836E82E94EF19F005500610CB
:10333E0007100810D8B4A6EF19F0AAEF19F0FFFF86
:10334E00010EACEF19F0FFFF000EFFFF016E026AD7
:10335E00B6EF19F0FFFF000E026E040E016EFFFFB6
:10336E001200FFFFFFFF01C008F002C009F003C00A
:10337E000AF004C00BF00506D8A00606052806E1E3
:10338E000628D8A4CDEF19F0D0EF19F0FFFFDFEF2C
:10339E0019F0FFFF000E026E000E016E33EF1AF0F1
:1033AE00FFFF084A092A0A4A0B2A0506D8A0060674
:1033BE00FFFF08C0D9FF09C0DAFFDF50D8B4EAEF2B
:1033CE0019F0EDEF19F0FFFF20EF1AF0FFFF0AC022
:1033DE00F6FF0BC0F7FF0800FFFFF5500009D8B449
:1033EE00FBEF19F0FEEF19F0FFFF20EF1AF0FFFFD1
:1033FE0005500610D8B406EF1AF009EF1AF0FFFFC9
:10340E0020EF1AF0FFFF08C0D9FF09C0DAFFDF5026
:10341E00076E0AC0F6FF0BC0F7FF0800FFFFF5505E
:10342E000718D8B41DEF1AF020EF1AF0FFFFD7EFF0
:10343E0019F0FFFF08C0D9FF09C0DAFFDF50076E91
:10344E000AC0F6FF0BC0F7FF0800FFFFF550075C40
:10345E00016E026AD8A00206FFFF1200FFFFFFFFF7
:10346E00000E066E04BE41EF1AF03EEF1AF0FFFF9B
:10347E0048EF1AF0FFFF036C041ED8B0042A010EA9
:10348E00066EFFFF02BE51EF1AF04EEF1AF0FFFF6D
:10349E0058EF1AF0FFFF016C021ED8B0022A010E7F
:1034AE00061AFFFF000E086E000E076E0350041082
:1034BE00D8B464EF1AF067EF1AF0FFFF98EF1AF026
:1034CE00FFFF010E056E71EF1AF0FFFFD890033665
:1034DE000436052AFFFF04AE77EF1AF07AEF1AF0E2
:1034EE00FFFF6CEF1AF0FFFFFFFFD890073608368C
:1034FE000350015C04500258D8A088EF1AF08BEFED
:10350E001AF0FFFF91EF1AF0FFFF0350015E045017
:10351E00025A0780FFFFD89004320332052E7BEF4C
:10352E001AF0FFFF0650D8B49FEF1AF0A2EF1AF070
:10353E00FFFFA7EF1AF0FFFF076C081ED8B0082A8E
:10354E00FFFF07C001F008C002F01200FFFFFFFFEF
:10355E007EA0B4EF1AF0B7EF1AF0FFFFC2EF1AF029
:10356E00FFFF13C00AF014C00BF011C00CF012C014
:10357E000DF059EC1EF0FFFF16BEC8EF1AF0CBEFA0
:10358E001AF0FFFFD2EF1AF0FFFF15C01AF016C0A7
:10359E001BF0D7EF1AF0FFFF000E1B6E000E1A6E17
:1035AE00FFFF000E196E000E186EEBEF1AF0FFFF04
:1035BE00000E026E200E016E11C003F012C004F058
:1035CE001FEC1BF0184A192AFFFF1A50185C1950ED
:1035DE00800A176E1B50800A1758D8A0F9EF1AF000
:1035EE00FCEF1AF0FFFFDEEF1AF0FFFF7EB002EFE6
:1035FE001BF005EF1BF0FFFF10EF1BF0FFFF13C0DA
:10360E000AF014C00BF011C00CF012C00DF059EC02
:10361E001EF0FFFF13C001F014C002F0EEEC1EF01E
:10362E001A500124116E1B500220126E1200FFFF61
:10363E00FFFF03500410D8B427EF1BF02AEF1BF046
:10364E00FFFF35EF1BF0FFFF03500410D8A432EF3D
:10365E001BF035EF1BF0FFFF3BEF1BF0FFFF0150A0
:10366E00FBEC1FF08DEF1BF0FFFF20EE04F003507C
:10367E00D9260450DA22DE50DE10D8B449EF1BF002
:10368E004CEF1BF0FFFF69EF1BF0FFFF20EE04F085
:10369E000350D9260450DA2210EE02F00350E12630
:1036AE000450E222DE50E65CE650800A096EDE50DF
:1036BE00800A0958D8B066EF1BF069EF1BF0FFFFC8
:1036CE008DEF1BF0FFFF20EE02F00350D9260450C1
:1036DE00DA22DECF05F0DDCF06F003C0D9FF04C03D
:1036EE00DAFFDECF07F0DDCF08F005500724D96EE4
:1036FE0006500820DA6E01C0DFFF20EE02F0035004
:10370E00D9260450DA22DE2A000EDD22FFFF120037
:10371E00FFFFFFFF000E066E02BE9BEF1BF098EF41
:10372E001BF0FFFFA2EF1BF0FFFF016C021ED8B0D3
:10373E00022A010E066EFFFF04BEABEF1BF0A8EFD0
:10374E001BF0FFFFB0EF1BF0FFFF036C041ED8B0A1
:10375E00042AFFFF03500410D8B4B8EF1BF0BBEFE0
:10376E001BF0FFFFE8EF1BF0FFFF010E056EC5EF2C
:10377E001BF0FFFFD89003360436052AFFFF04AE78
:10378E00CBEF1BF0CEEF1BF0FFFFC0EF1BF0FFFFE8
:10379E00FFFF0350015C04500258D8A0D9EF1BF074
:1037AE00DCEF1BF0FFFFE1EF1BF0FFFF0350015EAC
:1037BE000450025AFFFFD89004320332052ECFEF89
:1037CE001BF0FFFF0650D8B4EFEF1BF0F2EF1BF02B
:1037DE00FFFFF7EF1BF0FFFF016C021ED8B0022AAD
:1037EE00FFFF01C001F002C002F01200FFFFFFFF59
:1037FE00000E0114096E000E02140A6E800E0314E0
:10380E000B6E7F0E04140C6E09500A100B100C1068
:10381E00D8A414EF1CF017EF1CF0FFFF20EF1CF0E4
:10382E00FFFF000E016E000E026E000E036E000E04
:10383E00046EFFFF000E0514096E000E06140A6ECC
:10384E00800E07140B6E7F0E08140C6E09500A10B2
:10385E000B100C10D8A436EF1CF039EF1CF0FFFF44
:10386E0042EF1CF0FFFF000E056E000E066E000EFE
:10387E00076E000E086EFFFF0550011810E106508E
:10388E0002180DE1075003180AE108500418D8B4C5
:10389E0053EF1CF056EF1CF0FFFF5AEF1CF0FFFF2A
:1038AE00D8905CEF1CF0FFFFD880FFFF1200FFFFE7
:1038BE00FFFF000E096E000E0A6E000E0B6E000E5C
:1038CE000C6E0550061007100810D8B471EF1CF0DE
:1038DE0074EF1CF0FFFFB3EF1CF0FFFF010E0D6E37
:1038EE0080EF1CF0FFFFD8900536063607360836F7
:1038FE000D2AFFFF08AE86EF1CF089EF1CF0FFFFCC
:10390E0079EF1CF0FFFFFFFFD89009360A360B3611
:10391E000C360550015C06500258075003580850EB
:10392E000458D8A09DEF1CF0A0EF1CF0FFFFAAEFEB
:10393E001CF0FFFF0550015E0650025A0750035A55
:10394E000850045A0980FFFFD89008320732063219
:10395E0005320D2E8AEF1CF0FFFF09C001F00AC0E0
:10396E0002F00BC003F00CC004F01200FFFFFFFFCB
:10397E00086E000E0C6E000E0A6E000E096EDDEC67
:10398E001FF0380EE6EC02F00850EDEC02F0ECEC15
:10399E001FF0390EE6EC02F0010EFFEC1DF00B6E7F
:1039AE00000EFFEC1DF00C6EBCEC1FF00B50056E04
:1039BE00066A053A063AF00E061605500F0B061269
:1039CE00F00E05160CC007F0073A0F0E071607503B
:1039DE000510096E06500A6E09C003F00AC004F005
:1039EE001200FFFFFFFFBF0E096EFF0E0A6E07C02B
:1039FE000BF008C00CF009500B260A500C220C508C
:103A0E000BE11A0E0B5CD8A00FEF1DF013EF1DF09B
:103A1E00FFFF010E15EF1DF0FFFF000EFFFF0D6EF5
:103A2E000E6A0D500E10D8B41FEF1DF022EF1DF0D0
:103A3E00FFFF2AEF1DF0FFFF200E0710076E085044
:103A4E00086E2FEF1DF0FFFF07C007F008C008F04B
:103A5E00FFFF1200FFFFFFFFBAC06EF0BBC06FF09A
:103A6E00000E0001D76F000ED66F52EF1DF0FFFF54
:103A7E00B8C058F0B9C059F06E0E5A6E000E5B6E9B
:103A8E00BCC05CF0BDC05DF0B9EC0CF0585000014C
:103A9E00D6275950D723FFFF6EC0F6FF6FC0F7FF32
:103AAE000800FFFFF5500009D8A460EF1DF063EF8A
:103ABE001DF0FFFF3EEF1DF0FFFFD6C0B8F0D7C0E0
:103ACE00B9F01200FFFFFFFF03C007F004C008F0BB
:103ADE0001C009F002C00AF0FFFF0750056E085042
:103AEE00066E074A082A05C0F6FF06C0F7FFF86AF9
:103AFE0009C0D9FF0AC0DAFF094A0A2A050EF7647F
:103B0E0004D00800FFFFF55005D0F6CFE1FFF7CF48
:103B1E00E2FFE750DF6EDF50D8A498EF1DF09BEF69
:103B2E001DF0FFFF73EF1DF0FFFF1200FFFFFFFF01
:103B3E0094869488800EC76E280EC66E000EC56ED3
:103B4E00000E016E240E026EF40E036E000E046E55
:103B5E000EC012F00FC013F010C014F011C015F00B
:103B6E00020EFFFFD8901236133614361536E82E95
:103B7E00B8EF1DF012C005F013C006F014C007F028
:103B8E0015C008F05FEC1CF00104C86E1200FFFFB8
:103B9E00FFFF010E076E200E01180210D8B4DAEFE7
:103BAE001DF0DDEF1DF0FFFFF9EF1DF0FFFFF70E2B
:103BBE00036EFF0E046E01C005F002C006F0035046
:103BCE0005260450062206500AE1050E055CD8A013
:103BDE00F3EF1DF0F6EF1DF0FFFFF9EF1DF0FFFF05
:103BEE00000E076EFFFF07C001F0026A1200FFFF12
:103BFE00FFFF016EC586FFFFC7A008EF1EF00BEF9B
:103C0E001EF0FFFF02EF1EF0FFFFC9CF02F001040E
:103C1E00D8A414EF1EF017EF1EF0FFFF1CEF1EF0DE
:103C2E00FFFFC59AC5881FEF1EF0FFFFC58AC58826
:103C3E00FFFFC5B825EF1EF028EF1EF0FFFF1FEFA8
:103C4E001EF0FFFF7FEC1FF002501200FFFFFFFF80
:103C5E00C20E706E000E716EBEC072F0BFC073F0F9
:103C6E00000E756E000E746E000E776E000E766E80
:103C7E00720E0001B86F000EB96FC0C0BAF0C1C0AD
:103C8E00BBF0700EBC6F000EBD6F32EC1DF07450A9
:103C9E000001BE25D96E7550BF21DA6E000EDF6EA3
:103CAE001200FFFFFFFF000E106E000E0F6E6CEF86
:103CBE001EF0FFFF0EC001F0026A0CC003F00DC033
:103CCE0004F01FEC1BF00F4A102AFFFF0F500A24BE
:103CDE00D96E10500B20DA6EDF500E6E0E50D8A437
:103CEE007BEF1EF07EEF1EF0FFFF60EF1EF0FFFF7A
:103CFE001200FFFFFFFF000E056E91EF1EF0FFFF9B
:103D0E0005500224D96E000E0320DA6EDF50CDEC82
:103D1E001FF0052AFFFF05500224D96E000E032066
:103D2E00DA6E0A0EDE18D8A49FEF1EF0A2EF1EF078
:103D3E00FFFF86EF1EF0FFFF0A0ECDEC1FF0120004
:103D4E00FFFFFFFF000E231A000E241A000E251A85
:103D5E00800E261A1FC00FF020C010F021C011F0E7
:103D6E0022C012F023C013F024C014F025C015F0A9
:103D7E0026C016F0E5EC09F00FC01FF010C020F0C1
:103D8E0011C021F012C022F01200FFFFFFFFBF0E84
:103D9E00036EFF0E046E01C005F002C006F0035064
:103DAE0005260450062206500BE11A0E055CD8A01B
:103DBE00E3EF1EF0E7EF1EF0FFFF010EE9EF1EF03E
:103DCE00FFFF000EFFFF016E026A1200FFFFFFFFF2
:103DDE0001C003F002C004F0F8EF1EF0FFFF014A2D
:103DEE00022AFFFF01C0D9FF02C0DAFFDF50D8A4BC
:103DFE0003EF1FF006EF1FF0FFFFF5EF1EF0FFFFC2
:103E0E000350015C016E04500258026E1200FFFF57
:103E1E00FFFF0150021003100410D8B419EF1FF069
:103E2E001CEF1FF0FFFF25EF1FF0FFFF000E011A22
:103E3E00000E021A000E031A800E041AFFFF01C0B4
:103E4E0001F002C002F003C003F004C004F012003F
:103E5E00FFFFFFFFD00E036EFF0E046E01C005F0D4
:103E6E0002C006F0035005260450062206500BE150
:103E7E000A0E055CD8A046EF1FF04AEF1FF0FFFFB9
:103E8E00010E4CEF1FF0FFFF000EFFFF016E026AE6
:103E9E001200FFFF01EE76F0500EEE6AE806FDE12D
:103EAE0000EECEF00A0EEE6AE806FDE17F6A7E6A4B
:103EBE007D6A7C6A7B6A7A6A000EF86E000193EF67
:103ECE0016F0FFFFDDEC1FF0380EE6EC02F0000EF0
:103EDE00EDEC02F0ECEC1FF0390EE6EC02F0000E09
:103EEE00FFEC1DF0036EBCEC1FF003501200FFFF41
:103EFE00FFFFFFFFC7B086EF1FF089EF1FF0FFFF38
:103F0E0080EF1FF0FFFFC7B48FEF1FF092EF1FF08F
:103F1E00FFFF80EF1FF0FFFF9E961200FFFFFFFFD7
:103F2E0001500302F3CF05F0F4CF06F00150040266
:103F3E00F350062602500302F350062605C001F088
:103F4E0006C002F01200FFFFFFFF046EDDEC1FF053
:103F5E00380EE6EC02F00450EDEC02F00350EDECFE
:103F6E0002F0BCEC1FF01200FFFFFFFF7FEC1FF012
:103F7E00C584FFFFC5B4C6EF1FF0C9EF1FF0FFFFEA
:103F8E00C0EF1FF0FFFF9E961200FFFFFFFF016EB6
:103F9E0001C0ADFFFFFFACA2D7EF1FF0DAEF1FF0AD
:103FAE00FFFFD1EF1FF0FFFF1200FFFFFFFFC580E5
:103FBE00FFFFC5B0E5EF1FF0E8EF1FF0FFFFDFEFEB
:103FCE001FF0FFFF9E961200FFFFFFFFC582FFFF4F
:103FDE00C5B2F4EF1FF0F7EF1FF0FFFFEEEF1FF08B
:103FEE00FFFF9E961200FFFFFFFF1200FFFFFFFF75
:020000040020DA
:08000000FFFFFFFFFFFFFFFF00
:020000040030CA
:0E000000FF260E0EFF0181FF0FC00FE00F4024
:00000001FF
