:0600000000F081EF1FF08B
:1005FA00FFFF1200FFFF00002A0E06050403020196
:10060A000000804538252E33662C252E33662C258E
:10061A002E33660A00494E46004E414E00696E6608
:09062A00006E616E006C660000B8
:10063400FFFF000E00019B6F000E9A6F4EC0ACF0DE
:100644004FC0ADF050C0AEF051C0AFF0AFBF30EF0F
:1006540003F02DEF03F0FFFF47EF03F0FFFF000E61
:100664009B6F010E9A6FACC001F0ADC002F0AEC03A
:1006740003F0AFC004F0FCEC1EF001C0ACF002C00B
:10068400ADF003C0AEF004C0AFF0FFFF000E0001F8
:10069400B36F000EB26F7AC09EF07BC09FF09A5188
:1006A4009B11D8A458EF03F05BEF03F0FFFF64EF56
:1006B40003F0FFFF7EA461EF03F064EF03F0FFFF9C
:1006C40083EF03F0FFFF9A519B11D8A46CEF03F062
:1006D4006FEF03F0FFFF76EF03F0FFFF000E816F73
:1006E4002B0E806F7BEF03F0FFFF000E816F2D0E4A
:1006F400806FFFFF80C008F1B24BB32B9E07D8A0D8
:100704009F07FFFFACC001F0ADC002F0AEC003F024
:10071400AFC004F087EC18F001040210D8A495EFE0
:1007240003F098EF03F0FFFFF8EF03F0FFFFBF0EB5
:10073400536EFF0E546E5250556E566A53505526E2
:100744005450562256500BE11A0E555CD8A0ADEF0A
:1007540003F0B1EF03F0FFFF010EB3EF03F0FFFF6F
:10076400000EFFFF0001826F836B82518311D8B4A6
:10077400BEEF03F0C1EF03F0FFFFD0EF03F0FFFF84
:10078400080EB225016E010EB321026E1F0E036E18
:10079400060E046E57EC1DF0DDEF03F0FFFF080EAC
:1007A400B225016E010EB321026E270E036E060EF2
:1007B400046E57EC1DF0FFFF0001FD0E9E27FF0E97
:1007C4009F23FFFF4CC011F04DC012F0080E136EB2
:1007D400010E146E9EC015F09FC016F09BEC1AF02B
:1007E40011C04CF012C04DF0DDEF09F0FFFFACC0BA
:1007F40001F0ADC002F0AEC003F0AFC004F087EC6E
:1008040018F001500210D8A40AEF04F00DEF04F020
:10081400FFFF54EF04F0FFFFBF0E536EFF0E546E44
:100824005250556E566A53505526545056225650BF
:100834000BE11A0E555CD8A022EF04F026EF04F069
:10084400FFFF010E28EF04F0FFFF000EFFFF000181
:10085400846F856B84518511D8B433EF04F036EF7F
:1008640004F0FFFF45EF04F0FFFF080EB225016E10
:10087400010EB321026E230E036E060E046E57ECB6
:100884001DF0DDEF03F0FFFF080EB225016E010E2F
:10089400B321026E2B0E036E060E046E57EC1DF090
:1008A400DDEF03F0FFFF000E0001B46F000EB56F23
:1008B400800EB66F3F0EB76F000EB16F000EB06FB3
:1008C400ACC001F0ADC002F0AEC003F0AFC004F0A4
:1008D400000E056E000E066E000E076E000E086E0A
:1008E400EBEC1BF0D8B079EF04F07CEF04F0FFFFE1
:1008F40007EF05F0FFFF9DEF04F0FFFFB4C001F028
:10090400B5C002F0B6C003F0B7C004F0000E056E27
:10091400000E066E200E076E410E086E18EC0FF0E6
:1009240001C0B4F002C0B5F003C0B6F004C0B7F023
:100934000001B04BB12BFFFFACC01AF0ADC01BF0EF
:10094400AEC01CF0AFC01DF0000E056E000E066EAA
:10095400200E076E410E086EB4C001F0B5C002F05F
:10096400B6C003F0B7C004F018EC0FF001C01EF0DD
:1009740002C01FF003C020F004C021F0F3EC17F014
:10098400D8B0C7EF04F0CAEF04F0FFFF7FEF04F024
:10099400FFFFECEF04F0FFFFB4C01FF0B5C020F080
:1009A400B6C021F0B7C022F0000E236E000E246EF4
:1009B400200E256E410E266E6AEC11F01FC0B4F0B5
:1009C40020C0B5F021C0B6F022C0B7F00001B007D6
:1009D400D8A0B107FFFFACC01AF0ADC01BF0AEC089
:1009E4001CF0AFC01DF0B4C01EF0B5C01FF0B6C0FF
:1009F40020F0B7C021F0F3EC17F0D8A004EF05F015
:100A040007EF05F0FFFFCDEF04F0FFFF52C007F042
:100A1400086AE6EC1CF007500001A16FA1C0A0F029
:100A2400670EA119D8A419EF05F01CEF05F0FFFF1C
:100A34004AEF05F0FFFF7C507D10D8A424EF05F0A9
:100A440027EF05F0FFFF2CEF05F0FFFF000E7D6E92
:100A5400010E7C6EFFFF7DBE3BEF05F07D5006E18D
:100A64007C04D8B038EF05F03BEF05F0FFFF43EF0F
:100A740005F0FFFFFFFF000E9D6F060E9C6F56EF03
:100A840005F0FFFF7CC09CF07DC09DF056EF05F0A3
:100A9400FFFF7DBE50EF05F053EF05F0FFFF3CEF85
:100AA40005F0FFFF43EF05F0FFFF670EA119D8A47F
:100AB4005EEF05F061EF05F0FFFF96EF05F0FFFF35
:100AC400B1AF71EF05F0FC0EB05DFF0EB159D8A0C7
:100AD4006EEF05F071EF05F0FFFF93EF05F0FFFFF8
:100AE400FF0E536EFF0E546E9CC055F09DC056F021
:100AF4005350552654505622B051555C5650800AD6
:100B0400576EB151800A5758D8A08BEF05F08EEF7D
:100B140005F0FFFF93EF05F0FFFF660EA06F96EF61
:100B240005F0FFFF650EA06FFFFF9CC092F09DC013
:100B340093F0670EA119D8A4A2EF05F0A5EF05F074
:100B4400FFFFB9EF05F0FFFF660EA019D8A4ADEFC3
:100B540005F0B0EF05F0FFFFBCEF05F0FFFFB1BFFC
:100B6400B9EF05F0B6EF05F0FFFFBCEF05F0FFFFAE
:100B7400924B932BFFFF660EA019D8A4C4EF05F087
:100B8400C7EF05F0FFFFEDEF05F0FFFFB1BFD0EFBA
:100B940005F0CDEF05F0FFFFDDEF05F0FFFF000EE0
:100BA400B46F000EB56F800EB66F3F0EB76F000EB8
:100BB400B16F000EB06FFFFF670EA119D8B4E5EF57
:100BC40005F0E8EF05F0FFFFEDEF05F0FFFFB05192
:100BD4009227B1519323FFFF000EAB6F000EAA6F53
:100BE400ACC0A2F0ADC0A3F0AEC0A4F0AFC0A5F0FD
:100BF400B4C094F0B5C095F0B6C096F0B7C097F005
:100C040080EF06F0FFFFA2C01FF0A3C020F0A4C035
:100C140021F0A5C022F0B4C023F0B5C024F0B6C0C2
:100C240025F0B7C026F06AEC11F01FC038F020C0E0
:100C340039F021C03AF022C03BF083EC13F038C005
:100C4400A6F039C0A7F03AC0A8F03BC0A9F0A6C0EE
:100C540001F0A7C002F0A8C003F0A9C004F058EC4A
:100C640017F001C098F002C099F0A2C01FF0A3C011
:100C740020F0A4C021F0A5C022F0B4C005F0B5C096
:100C840006F0B6C007F0B7C008F0A6C001F0A7C0D0
:100C940002F0A8C003F0A9C004F018EC0FF001C0E2
:100CA40023F002C024F003C025F004C026F095EC24
:100CB4001EF01FC0A2F020C0A3F021C0A4F022C0E7
:100CC400A5F0B4C01FF0B5C020F0B6C021F0B7C085
:100CD40022F0000E236E000E246E200E256E410EAF
:100CE400266E6AEC11F01FC0B4F020C0B5F021C02C
:100CF400B6F022C0B7F00001AA4BAB2BFFFF925114
:100D0400AA5DAB51800A536E9351800A5358D8A000
:100D14008EEF06F091EF06F0FFFF04EF06F0FFFF01
:100D2400B4C001F0B5C002F0B6C003F0B7C004F01F
:100D3400000E056E000E066EA00E076E400E086EC5
:100D440018EC0FF001C0A6F002C0A7F003C0A8F091
:100D540004C0A9F0A2C01AF0A3C01BF0A4C01CF0E8
:100D6400A5C01DF0A6C01EF0A7C01FF0A8C020F0AB
:100D7400A9C021F0F3EC17F0D8B0C3EF06F0C6EF2A
:100D840006F0FFFFD2EF06F0FFFF000E0001A66F92
:100D9400000EA76F000EA86F000EA96F00EF07F0FA
:100DA400FFFFA2C001F0A3C002F0A4C003F0A5C0DD
:100DB40004F0A6C005F0A7C006F0A8C007F0A9C0BB
:100DC40008F0EBEC1BF0D8A0EAEF06F0EDEF06F02C
:100DD400FFFF00EF07F0FFFF000198B1F4EF06F00A
:100DE400F7EF06F0FFFF00EF07F0FFFF000EA66F1E
:100DF400000EA76F000EA86F000EA96FFFFFACC016
:100E04000FF0ADC010F0AEC011F0AFC012F0A6C02C
:100E140013F0A7C014F0A8C015F0A9C016F0E0ECB8
:100E240009F00FC0A2F010C0A3F011C0A4F012C0CA
:100E3400A5F0A2C01AF0A3C01BF0A4C01CF0A5C06A
:100E44001DF0000E056E000E066E200E076E410E9C
:100E5400086E94C001F095C002F096C003F097C0EC
:100E640004F018EC0FF001C01EF002C01FF003C024
:100E740020F004C021F0F3EC17F0D8A044EF07F001
:100E840047EF07F0FFFF73EF07F0FFFF0001B04BE0
:100E9400B12B94C001F095C002F096C003F097C046
:100EA40004F0000E056E000E066E200E076E410E55
:100EB400086E18EC0FF001C094F002C095F003C066
:100EC40096F004C097F0660E0001A019D8A46DEF47
:100ED40007F070EF07F0FFFF73EF07F0FFFF924B8F
:100EE400932BFFFF94C0B4F095C0B5F096C0B6F054
:100EF40097C0B7F0650E0001A019D8B484EF07F0CD
:100F040087EF07F0FFFF8EEF07F0FFFFB0C090F010
:100F1400B1C091F093EF07F0FFFF000E916F000E48
:100F2400906FFFFF000E8F6F000E8E6F000E8D6F9F
:100F3400000E8C6F000EAB6F000EAA6FA3EF08F0CB
:100F4400FFFFA2C01FF0A3C020F0A4C021F0A5C0E1
:100F540022F0B4C023F0B5C024F0B6C025F0B7C069
:100F640026F06AEC11F01FC038F020C039F021C01F
:100F74003AF022C03BF083EC13F038C0A6F039C03D
:100F8400A7F03AC0A8F03BC0A9F0A6C001F0A7C0E2
:100F940002F0A8C003F0A9C004F058EC17F001C097
:100FA40098F002C099F07EB8DAEF07F0DDEF07F0B1
:100FB400FFFF02EF08F0FFFF000198519911D8A438
:100FC400E6EF07F0E9EF07F0FFFF02EF08F0FFFF9D
:100FD400670EA119D8A4F1EF07F0F4EF07F0FFFFB3
:100FE40002EF08F0FFFF91BFFDEF07F0FAEF07F003
:100FF400FFFF02EF08F0FFFF8C4B8D2B56EF08F03C
:10100400FFFF00018E518F11D8A40BEF08F00EEFF3
:1010140008F0FFFF3CEF08F0FFFF91BF17EF08F067
:1010240014EF08F0FFFF3CEF08F0FFFF080EB225B5
:10103400D96E010EB321DA6E2E0EDF6EB24BB32BD6
:101044009E07D8A09F07000E8F6F010E8E6F3CEF96
:1010540008F0FFFF080EB225D96E010EB321DA6E37
:10106400300EDF6EB24BB32B9E07D8A09F078C07C0
:10107400D8A08D07FFFF8C518D11D8A444EF08F040
:1010840047EF08F0FFFF2BEF08F0FFFF080EB22533
:10109400D96E010EB321DA6E9851300FDF6EB24B68
:1010A400B32B9E07D8A09F07FFFFA2C01FF0A3C0C9
:1010B40020F0A4C021F0A5C022F0B4C005F0B5C052
:1010C40006F0B6C007F0B7C008F0A6C001F0A7C08C
:1010D40002F0A8C003F0A9C004F018EC0FF001C09E
:1010E40023F002C024F003C025F004C026F095ECE0
:1010F4001EF01FC0A2F020C0A3F021C0A4F022C0A3
:10110400A5F0B4C01FF0B5C020F0B6C021F0B7C040
:1011140022F0000E236E000E246E200E256E410E6A
:10112400266E6AEC11F01FC0B4F020C0B5F021C0E7
:10113400B6F022C0B7F000019007D8A09107AA4BDF
:10114400AB2BFFFF9251AA5DAB51800A536E9351B2
:10115400800A5358D8B0B1EF08F0B4EF08F0FFFF9D
:10116400C4EF08F0FFFFB3BFC1EF08F0B3510AE1C9
:101174004B0EB25DD8A0C1EF08F0C4EF08F0FFFF3A
:10118400A2EF07F0FFFF8E518F11D8A4CCEF08F027
:10119400CFEF08F0FFFFE3EF08F0FFFF7EA8D5EFE5
:1011A40008F0D8EF08F0FFFFE3EF08F0FFFF080EA8
:1011B400B225D96E010EB321DA6E2E0EDF6EB24B5C
:1011C400B32BFFFF080EB225D96E010EB321DA6EE0
:1011D400000EDF6E650EA019D8A4F3EF08F0F6EF49
:1011E40008F0FFFFE3EF03F0FFFF000EAB6F4F0EBD
:1011F400AA6F080EAA25D96E010EAB21DA6E000E75
:10120400DF6E000E9B6F000E9A6FB1BF0FEF09F0F7
:101214000CEF09F0FFFF18EF09F0FFFF000E9B6FC2
:10122400010E9A6FB06DB11FD8B0B12BFFFF000E45
:101234009D6F020E9C6F4BEF09F0FFFFAA07D8A029
:10124400AB07080EAA25D96E010EAB21DA6EB0C029
:1012540001F0B1C002F0000E046E0A0E036E7DECC4
:101264001BF00150300FDF6EB0C001F0B1C002F0CE
:10127400000E046E0A0E036E23EC1AF001C0B0F0E7
:1012840002C0B1F000019C07D8A09D079E07D8A01A
:101294009F07FFFFB051B111D8A453EF09F056EFE7
:1012A40009F0FFFF1FEF09F0FFFF9DBF65EF09F095
:1012B4009D5106E19C05D8B062EF09F065EF09F095
:1012C400FFFF1FEF09F0FFFFAA07D8A0AB079A5151
:1012D4009B11D8A470EF09F073EF09F0FFFF7AEFC8
:1012E40009F0FFFF000E876F2B0E866F7FEF09F06A
:1012F400FFFF000E876F2D0E866FFFFF080EAA25D5
:10130400D96E010EAB21DA6E86C0DFFF9E07D8A02E
:101314009F07AA07D8A0AB07BF0E536EFF0E546EEB
:101324005250556E566A53505526545056225650B4
:101334000BE11A0E555CD8A0A2EF09F0A6EF09F054
:10134400FFFF010EA8EF09F0FFFF000EFFFF8A6FF9
:101354008B6B8A518B11D8A4B2EF09F0B5EF09F069
:10136400FFFFBCEF09F0FFFF000E896F650E886F69
:10137400C1EF09F0FFFF000E896F450E886FFFFF74
:10138400080EAA25D96E010EAB21DA6E88C0DFFFE4
:101394009E07D8A09F07080EB225016E010EB32147
:1013A400026E080EAA25036E010EAB21046E57ECE3
:1013B4001DF0E3EF03F0FFFF1200FFFFFFFF1250E9
:1013C400800B1B6E125012241D6E11AEECEF09F04F
:1013D400EFEF09F0FFFFF1EF09F0FFFF1D80FFFFC2
:1013E4001D50D8B4F8EF09F0FBEF09F0FFFF14EF3C
:1013F4000AF0FFFF1D28D8A402EF0AF005EF0AF057
:10140400FFFF0EEF0AF0FFFF000E0F6E000E106ECE
:10141400000E116E000E126EFFFF118E000E126E82
:101424001DEF0AF0FFFF000E0F6E000E106E000E8F
:10143400116E000E126EFFFF1650800B1C6E1B50B7
:101444001C18D8B428EF0AF02BEF0AF0FFFF2DEF99
:101454000AF0FFFF1B8CFFFF165016241C6E15AEFE
:1014640036EF0AF039EF0AF0FFFF3BEF0AF0FFFF17
:101474001C80FFFF1C50D8B442EF0AF045EF0AF07D
:10148400FFFF5EEF0AF0FFFF1C28D8A44CEF0AF020
:101494004FEF0AF0FFFF58EF0AF0FFFF000E136E44
:1014A400000E146E000E156E000E166EFFFF158EE4
:1014B400000E166E67EF0AF0FFFF000E136E000EAB
:1014C400146E000E156E000E166EFFFF1D501C5C90
:1014D400D8B06FEF0AF072EF0AF0FFFF9DEF0AF049
:1014E400FFFF1BAC78EF0AF07BEF0AF0FFFF7EEF03
:1014F4000AF0FFFF800E1B1AFFFF1DC01EF01CC068
:101504001DF01EC01CF00FC01EF013C00FF01EC053
:1015140013F010C01EF014C010F01EC014F011C05F
:101524001EF015C011F01EC015F012C01EF016C03A
:1015340012F01EC016F0FFFF000E1E6E1D501CC0E0
:1015440017F0186A175E000E185A18BEB3EF0AF0A7
:1015540018500AE11A0E175CD8A0B3EF0AF0B6EFE0
:101564000AF0FFFFF9EF0AF0FFFF0F5010101110FF
:101574001210D8A4C0EF0AF0C4EF0AF0FFFF010E66
:10158400C6EF0AF0FFFF000EFFFF1E6E000E0F6E87
:10159400000E106E000E116E000E126E1CC01DF0B7
:1015A40004EF0BF0FFFF1EA0DAEF0AF0DDEF0AF004
:1015B400FFFFE4EF0AF0FFFFD8901E3001091E6E12
:1015C400E7EF0AF0FFFFD8901E32FFFF0FA0EDEF08
:1015D4000AF0F0EF0AF0FFFFF2EF0AF0FFFF1E8EB1
:1015E400FFFF12341232113210320F321D2AFFFF64
:1015F4001C501D5CD8A001EF0BF004EF0BF0FFFFB3
:10160400D4EF0AF0FFFF1BBC0AEF0BF00DEF0BF059
:10161400FFFF5AEF0BF0FFFF1D50D8A414EF0BF09F
:1016240017EF0BF0FFFF22EF0BF0FFFF000E0F6E22
:10163400000E106E000E116E000E126EB1EF0CF063
:10164400FFFF13500F26145010221550112216506C
:10165400122212A030EF0BF033EF0BF0FFFFFEEF7E
:101664000BF0FFFF1EA039EF0BF03CEF0BF0FFFF78
:1016740043EF0BF0FFFFD8901E3001091E6E46EFBA
:101684000BF0FFFFD8901E32FFFF0FA04CEF0BF0C2
:101694004FEF0BF0FFFF51EF0BF0FFFF1E8EFFFF2C
:1016A40012341232113210320F321D2AFEEF0BF0B7
:1016B400FFFF13500F5C145010581550115812505E
:1016C400800A176E1650800A1758D8B06CEF0BF0CA
:1016D4006FEF0BF0FFFF9DEF0BF0FFFF0F50135C5C
:1016E400176E10501458186E11501558196E125068
:1016F40016581A6EFF0E17240F6EFF0E1820106E68
:10170400FF0E1920116EFF0E1A20126E800E1B1A86
:101714001E6C1E50D8A491EF0BF094EF0BF0FFFF5A
:10172400A6EF0BF0FFFF010E0F26000E1022112270
:101734001222A6EF0BF0FFFF13500F5E1450105A45
:101744001550115A1650125AFFFF0F501010111055
:101754001210D8A4B0EF0BF0B3EF0BF0FFFFF5EFCE
:101764000BF0FFFF1E50D8A4BAEF0BF0BDEF0BF047
:10177400FFFFF5EF0BF0FFFF000E0F6E000E106E73
:10178400000E116E000E126EB1EF0CF0FFFFD89038
:101794000F361036113612361EAED3EF0BF0D6EFDD
:1017A4000BF0FFFFD8EF0BF0FFFF0F80FFFF1EA031
:1017B400DEEF0BF0E1EF0BF0FFFFE6EF0BF0FFFFC6
:1017C400D8801E36E9EF0BF0FFFFD8901E36FFFFDE
:1017D4001D50D8B4F0EF0BF0F3EF0BF0FFFFF5EF73
:1017E4000BF0FFFF1D06FFFF11AEFBEF0BF0FEEF4A
:1017F4000BF0FFFFC8EF0BF0FFFF000E1C6E1EAED8
:1018040006EF0CF009EF0CF0FFFF28EF0CF0FFFFE0
:101814001EC017F07F0E1716D8B413EF0CF016EF96
:101824000CF0FFFF1CEF0CF0FFFFFFFF010E1C6E1E
:1018340028EF0CF0FFFF0FA022EF0CF025EF0CF0C7
:10184400FFFF28EF0CF0FFFF17EF0CF0FFFF1C5019
:10185400D8B42FEF0CF032EF0CF0FFFF62EF0CF076
:10186400FFFF010E0F26000E10221122122212A0D9
:101874003EEF0CF041EF0CF0FFFF62EF0CF0FFFFC6
:101884000FC017F010C018F011C019F012C01AF0F0
:101894001A341A3219321832173217C00FF018C01E
:1018A40010F019C011F01AC012F01D28D8B45DEF61
:1018B4000CF060EF0CF0FFFF62EF0CF0FFFF1D2A4D
:1018C400FFFF1D28D8B469EF0CF06CEF0CF0FFFF9C
:1018D40076EF0CF0FFFF1D50D8A473EF0CF076EFF9
:1018E4000CF0FFFF8BEF0CF0FFFF000E0F6E000EED
:1018F400106E000E116E000E126E1D50D8A485EFEE
:101904000CF088EF0CF0FFFF8BEF0CF0FFFF000EE4
:101914001B6EFFFF1DA091EF0CF094EF0CF0FFFF86
:1019240098EF0CF0FFFF118E9AEF0CF0FFFF119E61
:10193400FFFFD8901D30126E1BAEA3EF0CF0A6EF84
:101944000CF0FFFFA8EF0CF0FFFF128EFFFF0FC09B
:101954000FF010C010F011C011F012C012F0FFFF10
:101964001200FFFFFFFF5AC0D9FF5BC0DAFFDECFD2
:10197400F6FFDDCFF7FF0800FFFFF550250AD8A4D6
:10198400C6EF0CF0C9EF0CF0FFFFF8EF0EF0FFFF0D
:101994005AC0D9FF5BC0DAFFDE2A000EDD22000E3A
:1019A4007B6E000E7A6E7AC07EF07BC07FF07C681E
:1019B4007D685AC0D9FF5BC0DAFFDECFF6FFDDCF0A
:1019C400F7FF0800FFFFF5502E0AD8A4ECEF0CF047
:1019D400EFEF0CF0FFFF78EF0DF0FFFF000E7D6ED0
:1019E400000E7C6E5AC0D9FF5BC0DAFFDE2A000EFF
:1019F400DD225AC0D9FF5BC0DAFFDECFF6FFDDCFB0
:101A0400F7FF0800FFFFF5502A0AD8A40CEF0DF0E9
:101A14000FEF0DF0FFFF2DEF0DF0FFFF5AC0D9FFC0
:101A24005BC0DAFFDE2A000EDD225CC0D9FF5DC098
:101A3400DAFFDFCF5EF0020EDE26DFCF5FF0000EAE
:101A4400DD225EC0D9FF5FC0DAFFDECF7CF0DDCFE0
:101A54007DF078EF0DF0FFFF5AC0D9FF5BC0DAFFCD
:101A6400DECF08F0DDCF09F0A7EC15F008C07CF05C
:101A740009C07DF046EF0DF0FFFF5AC0D9FF5BC0EF
:101A8400DAFFDE2A000EDD22FFFFD00E5E6EFF0EAF
:101A94005F6E5AC0D9FF5BC0DAFFDECFF6FFDDCF41
:101AA400F7FF0800FFFFF550606E616A5E50602624
:101AB4005F50612261500BE10A0E605CD8A065EFB3
:101AC4000DF069EF0DF0FFFF010E6BEF0DF0FFFF5E
:101AD400000EFFFF626E636A62506310D8A475EF54
:101AE4000DF078EF0DF0FFFF3EEF0DF0FFFF5AC051
:101AF400D9FF5BC0DAFFDECFF6FFDDCFF7FF0800CA
:101B0400FFFFF550076E086AE6EC1CF007506A6E9A
:101B14006A50D8B490EF0DF093EF0DF0FFFFD0EFC3
:101B24000DF0FFFF5AC0D9FF5BC0DAFFDECF5EF0D5
:101B3400DDCF5FF0010E5E26000E5F225EC0F6FF71
:101B44005FC0F7FF0800FFFFF550076E086AE6EC78
:101B54001CF007506B6E6B50D8B4B3EF0DF0B6EFBA
:101B64000DF0FFFFD0EF0DF0FFFF5AC0D9FF5BC0AF
:101B7400DAFFDECF5EF0DDCF5FF0020E5E26000EF0
:101B84005F225EC0F6FF5FC0F7FF0800FFFFF5505D
:101B9400076E086AE6EC1CF007506C6EFFFF660ED9
:101BA4006A18D8A4D8EF0DF0DBEF0DF0FFFF1EEF9D
:101BB4000EF0FFFF5AC0D9FF5BC0DAFFDECFF6FF9D
:101BC400DDCFF7FF0800FFFFF5CF6DF05AC0D9FF56
:101BD4005BC0DAFFDE2A000EDD225CC0D9FF5DC0E7
:101BE400DAFFDFCF5EF0040EDE26DFCF5FF0000EFB
:101BF400DD225EC0D9FF5FC0DAFFDECF66F0DECF44
:101C040067F0DECF68F0DECF69F0FFFF58C04CF01C
:101C140059C04DF066C04EF067C04FF068C050F038
:101C240069C051F06DC052F01AEC03F04CC058F08A
:101C34004DC059F015EF0FF0FFFF6A0E016E000E54
:101C4400026E2F0E036E060E046E000E066E020E5A
:101C5400056EA6EC19F001500210D8A434EF0EF072
:101C640037EF0EF0FFFFBCEF0EF0FFFF5AC0D9FFB5
:101C74005BC0DAFFDECF5EF0DDCF5FF0010E5E26E3
:101C8400000E5F225EC0F6FF5FC0F7FF0800FFFF93
:101C9400F5CF6DF0BF0E5E6EFF0E5F6E5AC0D9FFBA
:101CA4005BC0DAFFDECFF6FFDDCFF7FF0800FFFFF2
:101CB400F550606E616A5E5060265F50612261502B
:101CC4000BE11A0E605CD8A06AEF0EF06EEF0EF016
:101CD400FFFF010E70EF0EF0FFFF000EFFFF646EBA
:101CE400656A64506510D8B47AEF0EF07DEF0EF09B
:101CF400FFFF98EF0EF0FFFF5CC0D9FF5DC0DAFF75
:101D0400DFCF5EF0040EDE26DFCF5FF0000EDD22B3
:101D14005EC0D9FF5FC0DAFFDECF66F0DECF67F0CA
:101D2400DECF68F0DECF69F0B1EF0EF0FFFF5CC0EC
:101D3400D9FF5DC0DAFFDFCF5EF0040EDE26DFCF11
:101D44005FF0000EDD225EC0D9FF5FC0DAFFDECF98
:101D540066F0DECF67F0DECF68F0DECF69F0FFFF1C
:101D6400020E5AC0D9FF5BC0DAFFDE26000EDD2268
:101D740007EF0EF0FFFF5AC0D9FF5BC0DAFFDECFDA
:101D8400F6FFDDCFF7FF0800FFFFF550250AD8A4C2
:101D9400CEEF0EF0D1EF0EF0FFFFEAEF0EF0FFFFF3
:101DA4005AC0D9FF5BC0DAFFDE2A000EDD22000E26
:101DB400026E250E016E58C003F059C004F00CECFD
:101DC4001BF0FFFF000E596E010E586E15EF0FF059
:101DD400FFFF5AC0D9FF5BC0DAFFDE2A000EDD2206
:101DE400000E596E000E586E15EF0FF0FFFF5AC02B
:101DF400D9FF5BC0DAFFDECFF6FFDDCFF7FF0800C7
:101E0400FFFFF550016E026A58C003F059C004F098
:101E14000CEC1BF05AC0D9FF5BC0DAFFDE2A000EBF
:101E2400DD22E3EF0EF0FFFF1200FFFFFFFF04507F
:101E3400800B0D6E04500424136E03AE24EF0FF0D8
:101E440027EF0FF0FFFF29EF0FF0FFFF1380FFFFD5
:101E54001350D8B430EF0FF033EF0FF0FFFF4AEF19
:101E64000FF0FFFF1328D8A43AEF0FF03DEF0FF067
:101E7400FFFF46EF0FF0FFFF000E016E000E026E33
:101E8400000E036E000E046EFFFF038E53EF0FF07F
:101E9400FFFF000E016E000E026E000E036E000EB8
:101EA400046EFFFF0850800B0D1A08500824126EB0
:101EB40007AE5FEF0FF062EF0FF0FFFF64EF0FF07C
:101EC400FFFF1280FFFF1250D8B46BEF0FF06EEFDC
:101ED4000FF0FFFF85EF0FF0FFFF1228D8A475EF76
:101EE4000FF078EF0FF0FFFF81EF0FF0FFFF000E10
:101EF400056E000E066E000E076E000E086EFFFFE4
:101F0400078E8EEF0FF0FFFF000E056E000E066EBB
:101F1400000E076E000E086EFFFF1250D8B495EF46
:101F24000FF098EF0FF0FFFFA2EF0FF0FFFF135039
:101F3400D8A49FEF0FF0A2EF0FF0FFFFADEF0FF06B
:101F4400FFFF000E016E000E026E000E036E000E07
:101F5400046E67EF11F0FFFF07500102F3CF18F092
:101F6400F4CF19F018500E6E0F6A106A116A1950E6
:101F7400146E156A166A176A06500202F3CF18F037
:101F8400F4CF19F018500E26000E0F221022112241
:101F940019501426000E152216221722055003028A
:101FA400F3CF18F0F4CF19F018500E26000E0F22BC
:101FB4001022112219501426000E1522162217225F
:101FC40010C011F00FC010F00EC00FF00E6A0550D3
:101FD4000202F3CF18F0F4CF19F018500E2619505E
:101FE4000F22000E1022000E112206500102F3CF20
:101FF40018F0F4CF19F018500E2619500F22000EC5
:102004001022000E112210C011F00FC010F00EC0EB
:102014000FF00E6A05500102F3CF18F0F4CF19F057
:1020240018500E2619500F22000E1022000E1122F5
:1020340007500202F3CF18F0F4CF19F01850142609
:1020440019501522000E1622000E17220650030204
:10205400F3CF18F0F4CF19F01850142619501522A4
:10206400000E1622000E172207500302F3CF18F0B9
:10207400F4CF19F01850096E19500A6E0B6A0C6AE5
:102084000BC00CF00AC00BF009C00AF0096A095031
:1020940014260A5015220B5016220C5017220EC07B
:1020A40009F00FC00AF010C00BF011C00CF0190EAB
:1020B40062EF10F0FFFFD8900C320B320A32093273
:1020C400FFFFE82E5CEF10F0095014260A50152289
:1020D4000B5016220C50172210C011F00FC010F034
:1020E4000EC00FF00E6A125013C009F00A6A0926D6
:1020F400000E0A22820E0924186EFF0E0A20196EA1
:102104009DEF10F0FFFFD8901436153616361736AB
:1021140011AE8FEF10F092EF10F0FFFF94EF10F07C
:10212400FFFF1480FFFFD8900E360F36103611369D
:102134001806D8A01906FFFF16AEA3EF10F0A6EFFD
:1021440010F0FFFF84EF10F0FFFF000E126E11AECF
:10215400AEEF10F0B1EF10F0FFFFDCEF10F0FFFF77
:10216400FF0E0E14096EFF0E0F140A6EFF0E1014EC
:102174000B6E7F0E11140C6E09500A100B100C100C
:10218400D8B4C7EF10F0CAEF10F0FFFFD0EF10F093
:10219400FFFFFFFF010E126EDCEF10F0FFFF14A033
:1021A400D6EF10F0D9EF10F0FFFFDCEF10F0FFFFD7
:1021B400CBEF10F0FFFF1250D8B4E3EF10F0E6EFCE
:1021C40010F0FFFF0DEF11F0FFFF010E1426000EBB
:1021D40015221622172217A0F2EF10F0F5EF10F0D7
:1021E400FFFF0DEF11F0FFFF14C009F015C00AF056
:1021F40016C00BF017C00CF00C340C320B320A3240
:10220400093209C014F00AC015F00BC016F00CC056
:1022140017F0184A192AFFFF19BE19EF11F01950C7
:1022240009E11828D8A019EF11F01CEF11F0FFFFF5
:1022340027EF11F0FFFF000E146E000E156E800ED6
:10224400166E7F0E176E5CEF11F0FFFF19BE36EFAE
:1022540011F0195006E11804D8B033EF11F036EF3D
:1022640011F0FFFF43EF11F0FFFF000E146E000E9C
:10227400156E000E166E000E176E000E0D6E5CEFDE
:1022840011F0FFFF18C013F0FF0E1416FF0E151601
:102294007F0E1616000E171613A053EF11F056EF0B
:1022A40011F0FFFF58EF11F0FFFF168EFFFFD890DB
:1022B4001330176EFFFF0D50171214C001F015C034
:1022C40002F016C003F017C004F0FFFF1200FFFF76
:1022D400FFFF2250800B2F6E22502224366E21AE37
:1022E40076EF11F079EF11F0FFFF7BEF11F0FFFFB4
:1022F4003680FFFF3650D8B482EF11F085EF11F02D
:10230400FFFF9EEF11F0FFFF3628D8A48CEF11F0E9
:102314008FEF11F0FFFF98EF11F0FFFF000E1F6E1B
:10232400000E206E000E216E000E226EFFFF218E25
:10233400000E226EA7EF11F0FFFF000E1F6E000EBD
:10234400206E000E216E000E226EFFFF2650800BC1
:102354002F1A26502624376E25AEB3EF11F0B6EFB0
:1023640011F0FFFFB8EF11F0FFFF3780FFFF375088
:10237400D8B4BFEF11F0C2EF11F0FFFFDBEF11F0A3
:10238400FFFF3728D8A4C9EF11F0CCEF11F0FFFFFD
:10239400D5EF11F0FFFF000E236E000E246E000E29
:1023A400256E000E266EFFFF258E000E266EE4EFCE
:1023B40011F0FFFF000E236E000E246E000E256E3A
:1023C400000E266EFFFF2350241025102610D8A4DB
:1023D400EEEF11F0F1EF11F0FFFF0BEF12F0FFFF42
:1023E400000E1F6E000E206E000E216E000E226E77
:1023F400800E21127F0E2212FFFF2F5022121FC0C7
:102404001FF020C020F021C021F022C022F080EF74
:1024140013F0FFFF3650D8A412EF12F015EF12F0AC
:10242400FFFF20EF12F0FFFF000E1F6E000E206E64
:10243400000E216E000E226E80EF13F0FFFF375066
:1024440036C027F0286A275E000E285A7F0E2724FC
:10245400306E000E2820316E1FC02BF020C02CF0EF
:1024640021C02DF022C02EF0000E1F6E000E206E33
:10247400000E216E000E226E000E326E000E336EC0
:10248400000E346E000E356E000E376E8CEF12F0B7
:10249400FFFF3750D8B451EF12F054EF12F0FFFFA2
:1024A4006FEF12F0FFFFD8902B362C362D362E36D8
:1024B400D8901F3620362136223635AE64EF12F01E
:1024C40067EF12F0FFFF69EF12F0FFFF1F80FFFFBD
:1024D400D8903236333634363536FFFF23502B5CF2
:1024E40024502C5825502D5826502E58D8A07DEF16
:1024F40012F080EF12F0FFFF8AEF12F0FFFF358C2D
:1025040023502B5E24502C5A25502D5A26502E5AD7
:10251400FFFF372AFFFF190E376493EF12F096EF8F
:1025240012F0FFFF4AEF12F0FFFF2B502C102D107A
:102534002E10D8B4A0EF12F0A3EF12F0FFFFC0EFFB
:1025440012F0FFFF3280C0EF12F0FFFFD8901F3669
:1025540020362136223635AEB2EF12F0B5EF12F046
:10256400FFFFB7EF12F0FFFF1F80FFFFD890323656
:102574003336343635363006D8A03106FFFF21AE67
:10258400C6EF12F0C9EF12F0FFFFA7EF12F0FFFF42
:10259400000E376E35AED1EF12F0D4EF12F0FFFF1C
:1025A400FFEF12F0FFFFFF0E3214276EFF0E3314FD
:1025B400286EFF0E3414296E7F0E35142A6E2750B0
:1025C400281029102A10D8B4EAEF12F0EDEF12F017
:1025D400FFFFF3EF12F0FFFFFFFF010E376EFFEF77
:1025E40012F0FFFF1FA0F9EF12F0FCEF12F0FFFF53
:1025F400FFEF12F0FFFFEEEF12F0FFFF3750D8B4F9
:1026040006EF13F009EF13F0FFFF30EF13F0FFFFB5
:10261400010E1F26000E20222122222222A015EFC5
:1026240013F018EF13F0FFFF30EF13F0FFFF1FC09C
:1026340027F020C028F021C029F022C02AF02A3433
:102644002A3229322832273227C01FF028C020F02E
:1026540029C021F02AC022F0304A312AFFFF31BEBE
:102664003CEF13F0315009E13028D8A03CEF13F0CF
:102674003FEF13F0FFFF4BEF13F0FFFF000E316E3F
:102684003068000E1F6E000E206E000E216E000ECC
:10269400226EFFFF31BE5AEF13F0315006E13004D1
:1026A400D8B057EF13F05AEF13F0FFFF69EF13F0B0
:1026B400FFFF000E316E000E306E000E1F6E000E16
:1026C400206E000E216E000E226E000E2F6EFFFF94
:1026D40030C036F036A071EF13F074EF13F0FFFF43
:1026E40078EF13F0FFFF218E7AEF13F0FFFF219EA6
:1026F400FFFFD8903630226EFEEF11F0FFFF12007C
:10270400FFFFFFFF00C148F001C149F002C14AF0D8
:1027140003C14BF038C048F039C049F03AC04AF020
:102724003BC04BF0810E3C6EFF0E3D6E48C03EF048
:1027340049C03FF04AC040F04BC041F0180EA9EF29
:1027440013F0FFFFD890413240323F323E32FFFF58
:10275400E82EA3EF13F03E503C24466E000E3D20BD
:10276400476E47BEBFEF13F047500AE1170E465CB1
:10277400D8A0BFEF13F0C2EF13F0FFFFCEEF13F0BA
:10278400FFFFFFFF38C038F039C039F03AC03AF0E3
:102794003BC03BF0A8EF14F0FFFF47BED4EF13F0AB
:1027A400D7EF13F0FFFF53EF14F0FFFF46C03CF0E8
:1027B400FF0E3D6EFF0E3E6E7F0E3F6E000E406EAE
:1027C400FFFF3C66E8EF13F0F1EF13F0FFFF403436
:1027D40040323F323E323D323C2EE2EF13F0FFFFF7
:1027E4003DC042F03EC043F03FC044F040C045F01D
:1027F400425048143C6E435049143D6E44504A14B0
:102804003E6E45504B143F6E3C503D103E103F1001
:10281400D8A40FEF14F012EF14F0FFFF15EF14F02B
:10282400FFFFC3EF13F0FFFF48C03CF049C03DF089
:102834004AC03EF04BC03FF0200E27EF14F0FFFFDC
:10284400D8903F323E323D323C32FFFFE82E21EF3A
:1028540014F03C503D103E103F10D8B434EF14F047
:1028640037EF14F0FFFF40EF14F0FFFF425048260B
:102874004350492244504A2245504B22FFFF421CF8
:102884003C6E431C3D6E441C3E6E451C3F6E3C50EA
:1028940048163D5049163E504A163F504B169FEF7E
:1028A40014F0FFFF48C03CF049C03DF04AC03EF080
:1028B4004BC03FF0200E65EF14F0FFFFD8903F327D
:1028C4003E323D323C32FFFFE82E5FEF14F03C50C5
:1028D4003D103E103F10D8A472EF14F075EF14F0C1
:1028E400FFFF80EF14F0FFFF000E486E000E496EEC
:1028F400000E4A6E000E4B6E9FEF14F0FFFFD8904F
:1029040048343C6E49343D6E4A343E6E4B343F6E1F
:102914003C503D103E103F10D8B493EF14F096EFA6
:1029240014F0FFFF9FEF14F0FFFF000E486E000E3F
:10293400496E800E4A6EBF0E4B6EFFFF48C038F0E2
:1029440049C039F04AC03AF04BC03BF0FFFF1200D7
:10295400FFFFFFFF096E0950D8B4B3EF14F0B6EFD0
:1029640014F0FFFFDBEF14F0FFFF04BEBFEF14F021
:10297400BCEF14F0FFFFDBEF14F0FFFF01C005F024
:1029840002C006F003C007F004C008F0051E061ECE
:10299400071E081E052A000E06220722082205C06B
:1029A4000BF006C00CF007C00DF008C00EF0E4EF09
:1029B40014F0FFFF01C00BF002C00CF003C00DF0D7
:1029C40004C00EF0FFFF0150021003100410D8A43D
:1029D400EEEF14F0F1EF14F0FFFFFCEF14F0FFFF43
:1029E400000E016E000E026E000E036E000E046EE9
:1029F400A4EF15F0FFFF960E0A6E08EF15F0FFFF27
:102A04000A2AD8900E320D320C320B32FFFF000E20
:102A14000B14056E000E0C14066E000E0D14076EDA
:102A2400FE0E0E14086E0550061007100810D8A4E8
:102A34001EEF15F021EF15F0FFFF01EF15F0FFFF7A
:102A440031EF15F0FFFF0A2A010E0B26000E0C22AF
:102A54000D220E22D8900E320D320C320B32FFFFB3
:102A6400000E0B14056E000E0C14066E000E0D14F1
:102A7400076EFF0E0E14086E05500610071008109E
:102A8400D8A447EF15F04AEF15F0FFFF24EF15F037
:102A9400FFFF54EF15F0FFFF0A06D8900B360C36F3
:102AA4000D360E36FFFF0DBE5AEF15F05DEF15F033
:102AB400FFFF67EF15F0FFFF020E0A6064EF15F0E9
:102AC40067EF15F0FFFF4DEF15F0FFFF0AB06DEF54
:102AD40015F070EF15F0FFFF72EF15F0FFFF0D9E7C
:102AE400FFFFD8900A320AC005F0066A076A086A2E
:102AF40005C008F0076A066A056A05500B120650FD
:102B04000C1207500D1208500E120950D8B48DEF54
:102B140015F090EF15F0FFFF9BEF15F0FFFF04BEDB
:102B240099EF15F096EF15F0FFFF9BEF15F0FFFFFF
:102B34000E8EFFFF0BC001F00CC002F00DC003F0BD
:102B44000EC004F0FFFF1200FFFFFFFF000E166E21
:102B5400000E156E000E0F6E000E0E6EB5EF15F022
:102B6400FFFF084A092AFFFF010E146E08C0F6FF92
:102B740009C0F7FF0800FFFFF550200AD8B4C5EFDD
:102B840015F0C8EF15F0FFFFE9EF15F0FFFFF70EA2
:102B94000A6EFF0E0B6E08C0F6FF09C0F7FF0800AF
:102BA400FFFFF5500C6E0D6A0A500C260B500D22D7
:102BB4000D500AE1050E0C5CD8A0E3EF15F0E6EF2A
:102BC40015F0FFFFE9EF15F0FFFF000E146EFFFF95
:102BD40014C010F0116A10501110D8A4F4EF15F0BD
:102BE400F7EF15F0FFFFB2EF15F0FFFF04EF16F05B
:102BF400FFFF000E0F6E010E0E6EFFFF084A092A3A
:102C04003EEF16F0FFFF08C0F6FF09C0F7FF08000B
:102C1400FFFFF5500A6E0B6A0B50000AD8B415EF8B
:102C240016F03EEF16F0FFFF0A502B0AD8B4FFEF60
:102C340015F0060AD8B4FAEF15F03EEF16F0FFFFD0
:102C440015C001F016C002F0000E046E0A0E036EE9
:102C54006CEC1FF008C0F6FF09C0F7FF0800FFFF87
:102C6400F550015E000E025A300E0124156E000E5E
:102C74000220166EFFEF15F0FFFFD00E0A6EFF0E56
:102C84000B6E08C0F6FF09C0F7FF0800FFFFF55000
:102C94000C6E0D6A0A500C260B500D220D500BE1E0
:102CA4000A0E0C5CD8A059EF16F05DEF16F0FFFF8A
:102CB400010E5FEF16F0FFFF000EFFFF126E136AA6
:102CC40012501310D8A469EF16F06CEF16F0FFFF42
:102CD40021EF16F0FFFF0E500F10D8A474EF16F07A
:102CE40077EF16F0FFFF86EF16F0FFFF15C00AF02E
:102CF40016C00BF00A1E0B1E0A4A0B2A0AC008F063
:102D04000BC009F08BEF16F0FFFF15C008F016C0DA
:102D140009F0FFFF1200FFFFFFFF000E0001F96F33
:102D2400000EFA6F000EEC6F000EED6F000EEE6FEA
:102D3400000EEF6F000EF06F000EF16F000EF26FD9
:102D4400000EF36F000EF46F000EF56F000EF66FB9
:102D5400000EF76F000E926E000E936E000E946ECE
:102D6400E5EC1FF0A00E0E6E860E0F6E010E106EB7
:102D7400000E116E8BEC1DF0020E796E860E786ECD
:102D8400DB0EFFFFE82EFDD7782EFBD7792EF9D77F
:102D9400000E036E2A0E95EC1FF0000E036E0E0E4D
:102DA40095EC1FF0010E036E2A0E95EC1FF0000E39
:102DB400036E2A0E95EC1FF0190E036E2A0E95EC85
:102DC4001FF0FFFF3EEC1FF0786E070E7816D8B4A4
:102DD400EEEF16F0F1EF16F0FFFFE3EF16F0FFFF52
:102DE400010EABEC1CF003500001F86F030EABECCA
:102DF4001CF003500001F96F050EABEC1CF00350FE
:102E04000001FA6FF8C038F0396A18EC19F038C0CC
:102E1400ECF039C0EDF03AC0EEF03BC0EFF0F9C091
:102E240038F0396A18EC19F038C0F0F039C0F1F014
:102E34003AC0F2F03BC0F3F0FAC038F0396A18EC4B
:102E440019F038C0F4F039C0F5F03AC0F6F03BC0E0
:102E5400F7F0CE0E0001BE6F000EBF6F0F0EC06FF5
:102E6400060EC16FECC0C2F0EDC0C3F0EEC0C4F0FA
:102E7400EFC0C5F0F0C0C6F0F1C0C7F0F2C0C8F0B2
:102E8400F3C0C9F0F4C0CAF0F5C0CBF0F6C0CCF082
:102E9400F7C0CDF01BEC1EF0CE0E026E000E036EDA
:102EA4006EEC1EF0E3EF16F001EF00F0FFFF0334C9
:102EB40004340A6E0A50D8A462EF17F065EF17F0D5
:102EC400FFFF71EF17F0FFFFFFFF000E016E000E12
:102ED400026E000E036E000E046EF0EF17F0FFFF9B
:102EE40001C005F002C006F003C007F004C008F0FA
:102EF400200E83EF17F0FFFFD89008320732063216
:102F04000532FFFFE82E7DEF17F00550096E038EA2
:102F1400FF0E0116FF0E0216FF0E0316000E041616
:102F2400960E0A5E0ABE9CEF17F099EF17F0FFFFAA
:102F3400B6EF17F0FFFF0A50800A970FD8B0A5EF3D
:102F440017F0A8EF17F0FFFFABEF17F0FFFF66EFE6
:102F540017F0FFFFD89004320332023201320A3EE6
:102F6400ABEF17F0D4EF17F0FFFF1F0E0A64BDEFAD
:102F740017F0C0EF17F0FFFFCAEF17F0FFFF66EF7F
:102F840017F0FFFFD89001360236033604360A06DE
:102F9400FFFF0A50D8A4D1EF17F0D4EF17F0FFFFCA
:102FA400C3EF17F0FFFF0950D8B4DBEF17F0DEEFE3
:102FB40017F0FFFFE7EF17F0FFFF041E031E021ECA
:102FC400016C000E022203220422FFFF01C001F063
:102FD40002C002F003C003F004C004F0FFFF1200BB
:102FE400FFFFFFFF000E1A14226E000E1B14236E47
:102FF400800E1C14246E7F0E1D14256E2250231087
:1030040024102510D8A409EF18F00CEF18F0FFFFD6
:1030140015EF18F0FFFF000E1A6E000E1B6E000E67
:103024001C6E000E1D6EFFFF000E1E14226E000E9D
:103034001F14236E800E2014246E7F0E2114256E1F
:103044002250231024102510D8A42BEF18F02EEFB3
:1030540018F0FFFF37EF18F0FFFF000E1E6E000E92
:103064001F6E000E206E000E216EFFFF1DAE3DEFA1
:1030740018F040EF18F0FFFF4AEF18F0FFFF1A6C4A
:103084001B1ED8B01B2A1C1ED8B01C2A800E1D562D
:10309400FFFF21AE50EF18F053EF18F0FFFF5DEF84
:1030A40018F0FFFF1E6C1F1ED8B01F2A201ED8B0B8
:1030B400202A800E2156FFFF000E1A1A000E1B1A3A
:1030C400000E1C1A800E1D1A000E1E1A000E1F1A66
:1030D400000E201A800E211A1E501A5C1F501B5815
:1030E40020501C5821501D58D8B07BEF18F07EEFAB
:1030F40018F0FFFF82EF18F0FFFFD89084EF18F06C
:10310400FFFFD880FFFF1200FFFFFFFF04C10BF099
:1031140005C10CF006C10DF007C10EF001C00BF0A3
:1031240002C00CF003C00DF004C00EF00BC005F09B
:103134000CC006F00DC007F00EC008F0180EA9EF81
:1031440018F0FFFFD8900832073206320532FFFF2D
:10315400E82EA3EF18F00550096E0A6A09500A1008
:10316400D8A4B7EF18F0BAEF18F0FFFFDEEF18F0AD
:10317400FFFFD8900B34056E0C34066E0D34076EC9
:103184000E34086E0550061007100810D8A4CDEFB1
:1031940018F0D0EF18F0FFFFD7EF18F0FFFF000E84
:1031A400026E020E016E15EF19F0FFFF000E026EA3
:1031B400030E016E15EF19F0FFFF09280A10D8A4B9
:1031C400E6EF18F0E9EF18F0FFFF10EF19F0FFFF3A
:1031D4000BC005F00CC006F00DC007F00EC008F0DF
:1031E400090EFFFFD8900536063607360836E82E56
:1031F400F3EF18F00550061007100810D8B405EFC7
:1032040019F009EF19F0FFFF010E0BEF19F0FFFFA2
:10321400000EFFFF016E026A15EF19F0FFFF000EAA
:10322400026E040E016EFFFF1200FFFFFFFF39AABA
:103234001EEF19F021EF19F0FFFF5DEF19F0FFFF0A
:10324400FF0E38161F0E3916000E136E000E146E84
:10325400000E156EC60E166E38C001F039C002F0AD
:10326400036A046A000EABEC14F001C00FF002C054
:1032740010F003C011F004C012F0E0EC09F00FC02C
:103284001FF010C020F011C021F012C022F0000E77
:10329400236E000E246E800E256E450E266E6AEC9B
:1032A40011F01FC03CF020C03DF021C03EF022C010
:1032B4003FF081EF19F0FFFF38C001F039C002F090
:1032C400036A046A000EABEC14F001C01FF002C0E4
:1032D40020F003C021F004C022F0000E236E000E83
:1032E400246E800E256E450E266E6AEC11F01FC00A
:1032F4003CF020C03DF021C03EF022C03FF0FFFF73
:103304003CC001F03DC002F03EC003F03FC004F0F9
:10331400330E056E330E066EC40E076E420E086E33
:1033240018EC0FF001C03CF002C03DF003C03EF0C9
:1033340004C03FF03CC038F03DC039F03EC03AF024
:103344003FC03BF01200FFFFFFFF01C008F002C0C6
:1033540009F003C00AF004C00BF00506D8A0060665
:10336400052806E10628D8A4BAEF19F0BDEF19F034
:10337400FFFFCCEF19F0FFFF000E026E000E016E8E
:1033840020EF1AF0FFFF084A092A0A4A0B2A050609
:10339400D8A00606FFFF08C0D9FF09C0DAFFDF5036
:1033A400D8B4D7EF19F0DAEF19F0FFFF0DEF1AF0E8
:1033B400FFFF0AC0F6FF0BC0F7FF0800FFFFF55040
:1033C4000009D8B4E8EF19F0EBEF19F0FFFF0DEFA7
:1033D4001AF0FFFF05500610D8B4F3EF19F0F6EF1A
:1033E40019F0FFFF0DEF1AF0FFFF08C0D9FF09C065
:1033F400DAFFDF50076E0AC0F6FF0BC0F7FF0800C4
:10340400FFFFF5500718D8B40AEF1AF00DEF1AF0C1
:10341400FFFFC4EF19F0FFFF08C0D9FF09C0DAFFAE
:10342400DF50076E0AC0F6FF0BC0F7FF0800FFFF6E
:10343400F550075C016E026AD8A00206FFFF120075
:10344400FFFFFFFF000E066E04BE2EEF1AF02BEFF7
:103454001AF0FFFF35EF1AF0FFFF036C041ED8B01B
:10346400042A010E066EFFFF02BE3EEF1AF03BEF88
:103474001AF0FFFF45EF1AF0FFFF016C021ED8B0EF
:10348400022A010E061AFFFF000E086E000E076ED8
:1034940003500410D8B451EF1AF054EF1AF0FFFFA0
:1034A40085EF1AF0FFFF010E056E5EEF1AF0FFFFC5
:1034B400D89003360436052AFFFF04AE64EF1AF0F1
:1034C40067EF1AF0FFFF59EF1AF0FFFFFFFFD890E4
:1034D400073608360350015C04500258D8A075EF33
:1034E4001AF078EF1AF0FFFF7EEF1AF0FFFF035097
:1034F400015E0450025A0780FFFFD8900432033261
:10350400052E68EF1AF0FFFF0650D8B48CEF1AF0BE
:103514008FEF1AF0FFFF94EF1AF0FFFF076C081EFD
:10352400D8B0082AFFFF07C001F008C002F012005B
:10353400FFFFFFFF7EA0A1EF1AF0A4EF1AF0FFFF38
:10354400AFEF1AF0FFFF13C00AF014C00BF011C064
:103554000CF012C00DF046EC1EF0FFFF16BEB5EFE6
:103564001AF0B8EF1AF0FFFFBFEF1AF0FFFF15C013
:103574001AF016C01BF0C4EF1AF0FFFF000E1B6E0A
:10358400000E1A6EFFFF000E196E000E186ED8EFB3
:103594001AF0FFFF000E026E200E016E11C003F040
:1035A40012C004F00CEC1BF0184A192AFFFF1A5041
:1035B400185C1950800A176E1B50800A1758D8A03F
:1035C400E6EF1AF0E9EF1AF0FFFFCBEF1AF0FFFF76
:1035D4007EB0EFEF1AF0F2EF1AF0FFFFFDEF1AF0F2
:1035E400FFFF13C00AF014C00BF011C00CF012C09E
:1035F4000DF046EC1EF0FFFF13C001F014C002F002
:10360400DBEC1EF01A500124116E1B500220126EC6
:103614001200FFFFFFFF03500410D8B414EF1BF097
:1036240017EF1BF0FFFF22EF1BF0FFFF0350041006
:10363400D8A41FEF1BF022EF1BF0FFFF28EF1BF0B5
:10364400FFFF0150FDEC02F07AEF1BF0FFFF20EECC
:1036540004F00350D9260450DA22DE50DE10D8B428
:1036640036EF1BF039EF1BF0FFFF56EF1BF0FFFFA7
:1036740020EE04F00350D9260450DA2210EE02F0B2
:103684000350E1260450E222DE50E65CE650800A54
:10369400096EDE50800A0958D8B053EF1BF056EF7C
:1036A4001BF0FFFF7AEF1BF0FFFF20EE02F0035048
:1036B400D9260450DA22DECF05F0DDCF06F003C0B0
:1036C400D9FF04C0DAFFDECF07F0DDCF08F00550E4
:1036D4000724D96E06500820DA6E01C0DFFF20EE01
:1036E40002F00350D9260450DA22DE2A000EDD222D
:1036F400FFFF1200FFFFFFFF000E066E02BE88EF01
:103704001BF085EF1BF0FFFF8FEF1BF0FFFF016C39
:10371400021ED8B0022A010E066EFFFF04BE98EF07
:103724001BF095EF1BF0FFFF9DEF1BF0FFFF036CF9
:10373400041ED8B0042AFFFF03500410D8B4A5EF28
:103744001BF0A8EF1BF0FFFFD5EF1BF0FFFF010EEE
:10375400056EB2EF1BF0FFFFD89003360436052A3E
:10376400FFFF04AEB8EF1BF0BBEF1BF0FFFFADEFA4
:103774001BF0FFFFFFFF0350015C04500258D8A068
:10378400C6EF1BF0C9EF1BF0FFFFCEEF1BF0FFFFEE
:103794000350015E0450025AFFFFD89004320332F2
:1037A400052EBCEF1BF0FFFF0650D8B4DCEF1BF076
:1037B400DFEF1BF0FFFFE4EF1BF0FFFF016C021EC5
:1037C400D8B0022AFFFF01C001F002C002F01200CB
:1037D400FFFFFFFF000E0114096E000E02140A6EB3
:1037E400800E03140B6E7F0E04140C6E09500A1025
:1037F4000B100C10D8A401EF1CF004EF1CF0FFFF19
:103804000DEF1CF0FFFF000E016E000E026E000EA5
:10381400036E000E046EFFFF000E0514096E000E09
:1038240006140A6E800E07140B6E7F0E08140C6EBD
:1038340009500A100B100C10D8A423EF1CF026EF2B
:103844001CF0FFFF2FEF1CF0FFFF000E056E000EB3
:10385400066E000E076E000E086EFFFF055001187D
:1038640010E1065002180DE1075003180AE1085050
:103874000418D8B440EF1CF043EF1CF0FFFF47EFEF
:103884001CF0FFFFD89049EF1CF0FFFFD880FFFF2A
:103894001200FFFFFFFF000E096E000E0A6E000EFD
:1038A4000B6E000E0C6E0550061007100810D8B4ED
:1038B4005EEF1CF061EF1CF0FFFFA0EF1CF0FFFFB8
:1038C400010E0D6E6DEF1CF0FFFFD8900536063625
:1038D400073608360D2AFFFF08AE73EF1CF076EFAB
:1038E4001CF0FFFF66EF1CF0FFFFFFFFD8900936C6
:1038F4000A360B360C360550015C06500258075048
:10390400035808500458D8A08AEF1CF08DEF1CF01F
:10391400FFFF97EF1CF0FFFF0550015E0650025AAF
:103924000750035A0850045A0980FFFFD890083200
:103934000732063205320D2E77EF1CF0FFFF09C067
:1039440001F00AC002F00BC003F00CC004F0120036
:10395400FFFFFFFF086E000E0C6E000E0A6E000ED5
:10396400096EC7EC1FF0380EF8EC1FF00850F0ECAD
:103974001FF0D6EC1FF0390EF8EC1FF0010EECEC42
:103984001DF00B6E000EECEC1DF00C6EA6EC1FF09F
:103994000B50056E066A053A063AF00E06160550F7
:1039A4000F0B0612F00E05160CC007F0073A0F0EA7
:1039B400071607500510096E06500A6E09C003F079
:1039C4000AC004F01200FFFFFFFFBF0E096EFF0ED6
:1039D4000A6E07C00BF008C00CF009500B260A5001
:1039E4000C220C500BE11A0E0B5CD8A0FCEF1CF05F
:1039F40000EF1DF0FFFF010E02EF1DF0FFFF000EB0
:103A0400FFFF0D6E0E6A0D500E10D8B40CEF1DF0B2
:103A14000FEF1DF0FFFF17EF1DF0FFFF200E071043
:103A2400076E0850086E1CEF1DF0FFFF07C007F07B
:103A340008C008F0FFFF1200FFFFFFFFBAC06EF0DE
:103A4400BBC06FF0000E0001FC6F000EFB6F3FEF78
:103A54001DF0FFFFB8C058F0B9C059F06E0E5A6E91
:103A6400000E5B6EBCC05CF0BDC05DF0B4EC0CF04D
:103A740058500001FB275950FC23FFFF6EC0F6FF8E
:103A84006FC0F7FF0800FFFFF5500009D8A44DEF01
:103A94001DF050EF1DF0FFFF2BEF1DF0FFFFFBC0EB
:103AA400B8F0FCC0B9F01200FFFFFFFF03C007F03D
:103AB40004C008F001C009F002C00AF0FFFF07507B
:103AC400056E0850066E074A082A05C0F6FF06C0B0
:103AD400F7FFF86A09C0D9FF0AC0DAFF094A0A2ABF
:103AE400050EF76404D00800FFFFF55005D0F6CFAB
:103AF400E1FFF7CFE2FFE750DF6EDF50D8A485EF98
:103B04001DF088EF1DF0FFFF60EF1DF0FFFF1200B6
:103B1400FFFFFFFF94869488800EC76E280EC66E42
:103B2400000EC56E000E016E240E026EF40E036EBE
:103B3400000E046E0EC012F00FC013F010C014F08B
:103B440011C015F0020EFFFFD8901236133614364A
:103B54001536E82EA5EF1DF012C005F013C006F0CF
:103B640014C007F015C008F04CEC1CF00104C86E3A
:103B74001200FFFFFFFF010E076E200E0118021056
:103B8400D8B4C7EF1DF0CAEF1DF0FFFFE6EF1DF03C
:103B9400FFFFF70E036EFF0E046E01C005F002C0B6
:103BA40006F0035005260450062206500AE1050ECD
:103BB400055CD8A0E0EF1DF0E3EF1DF0FFFFE6EF9A
:103BC4001DF0FFFF000E076EFFFF07C001F0026A41
:103BD4001200FFFFFFFF016EC586FFFFC7A0F5EFD0
:103BE4001DF0F8EF1DF0FFFFEFEF1DF0FFFFC9CF51
:103BF40002F00104D8A401EF1EF004EF1EF0FFFF51
:103C040009EF1EF0FFFFC59AC5880CEF1EF0FFFFF9
:103C1400C58AC588FFFFC5B812EF1EF015EF1EF068
:103C2400FFFF0CEF1EF0FFFF55EC1FF002501200D7
:103C3400FFFFFFFFC20E706E000E716EBEC072F009
:103C4400BFC073F0000E756E000E746E000E776EBA
:103C5400000E766E720E0001B86F000EB96FC0C010
:103C6400BAF0C1C0BBF0700EBC6F000EBD6F1FEC8C
:103C74001DF074500001BE25D96E7550BF21DA6E57
:103C8400000EDF6E1200FFFFFFFF000E106E000E2D
:103C94000F6E59EF1EF0FFFF0EC001F0026A0CC058
:103CA40003F00DC004F00CEC1BF00F4A102AFFFFC8
:103CB4000F500A24D96E10500B20DA6EDF500E6EAE
:103CC4000E50D8A468EF1EF06BEF1EF0FFFF4DEF0F
:103CD4001EF0FFFF1200FFFFFFFF000E056E7EEFD8
:103CE4001EF0FFFF05500224D96E000E0320DA6E89
:103CF400DF50B7EC1FF0052AFFFF05500224D96EF0
:103D0400000E0320DA6E0A0EDE18D8A48CEF1EF023
:103D14008FEF1EF0FFFF73EF1EF0FFFF0A0EB7ECEC
:103D24001FF01200FFFFFFFF000E231A000E241ADB
:103D3400000E251A800E261A1FC00FF020C010F0A6
:103D440021C011F022C012F023C013F024C014F0DB
:103D540025C015F026C016F0E0EC09F00FC01FF0E6
:103D640010C020F011C021F012C022F01200FFFF99
:103D7400FFFFBF0E036EFF0E046E01C005F002C00C
:103D840006F0035005260450062206500BE11A0ED5
:103D9400055CD8A0D0EF1EF0D4EF1EF0FFFF010E9B
:103DA400D6EF1EF0FFFF000EFFFF016E026A120045
:103DB400FFFFFFFF01C003F002C004F0E5EF1EF0B7
:103DC400FFFF014A022AFFFF01C0D9FF02C0DAFF48
:103DD400DF50D8A4F0EF1EF0F3EF1EF0FFFFE2EF88
:103DE4001EF0FFFF0350015C016E04500258026E86
:103DF4001200FFFFFFFF0150021003100410D8B49B
:103E040006EF1FF009EF1FF0FFFF12EF1FF0FFFF97
:103E1400000E011A000E021A000E031A800E041A74
:103E2400FFFF01C001F002C002F003C003F004C0B0
:103E340004F01200FFFFFFFFD00E036EFF0E046EAE
:103E440001C005F002C006F0035005260450062206
:103E540006500BE10A0E055CD8A033EF1FF037EFD4
:103E64001FF0FFFF010E39EF1FF0FFFF000EFFFFF1
:103E7400016E026A1200FFFFFFFFC7EC1FF0380E4D
:103E8400F8EC1FF0000EF0EC1FF0D6EC1FF0390E2A
:103E9400F8EC1FF0000EECEC1DF0036EA6EC1FF026
:103EA40003501200FFFFFFFFFFFFC7B05CEF1FF0DE
:103EB4005FEF1FF0FFFF56EF1FF0FFFFC7B465EF82
:103EC4001FF068EF1FF0FFFF56EF1FF0FFFF9E96F5
:103ED4001200FFFFFFFF01500302F3CF05F0F4CF00
:103EE40006F001500402F350062602500302F35078
:103EF400062605C001F006C002F01200FFFF01EE25
:103F040000F0580EEE6AE806FDE10001FC6BFB6B65
:103F14007F6A7E6A7D6A7C6A7B6A7A6A000EF86EC2
:103F240000018EEF16F0FFFF046EC7EC1FF0380E91
:103F3400F8EC1FF00450F0EC1FF00350F0EC1FF00D
:103F4400A6EC1FF01200FFFFFFFF55EC1FF0C58425
:103F5400FFFFC5B4B0EF1FF0B3EF1FF0FFFFAAEFF0
:103F64001FF0FFFF9E961200FFFFFFFF016E01C0CE
:103F7400ADFFFFFFACA2C1EF1FF0C4EF1FF0FFFFC6
:103F8400BBEF1FF0FFFF1200FFFFFFFFC580FFFF25
:103F9400C5B0CFEF1FF0D2EF1FF0FFFFC9EF1FF046
:103FA400FFFF9E961200FFFFFFFFC582FFFFC5B211
:103FB400DEEF1FF0E1EF1FF0FFFFD8EF1FF0FFFF70
:103FC4009E961200FFFFFFFF948E949C080EAF6E26
:103FD400240EAC6E900EAB6E1200FFFFFFFF016E5D
:103FE40001C0C9FF55EC1FF01200FFFFFFFF026E76
:0C3FF4000250F0EC1FF01200FFFFFFFF76
:020000040020DA
:08000000FFFFFFFFFFFFFFFF00
:020000040030CA
:0E000000FF260E0EFF0181FF0FC00FE00F4024
:00000001FF
