:0600000000F03DEF1FF0CF
:103E7800FFFF000178EF1FF0FFFF0A0EBD6E800EF6
:103E8800CD6E819E1200FFFFFFFFFFFF818E025063
:103E9800BF6E01C0BEFF000ECF6E000ECE6ECD808D
:103EA800FFFF9EA45AEF1FF05DEF1FF0FFFF54EFD6
:103EB8001FF0FFFF9E94CD90819E0450BF6E03C0FB
:103EC800BEFF000ECF6E000ECE6ECD80FFFF9EA40B
:103ED80070EF1FF073EF1FF0FFFF6AEF1FF0FFFF97
:103EE8009E94CD901200FFFFFFFF000E0A6E010E98
:103EF800096E190E0D6E000E926E000E936E000E76
:103F0800946E4E0E066EE80E056E010E0C6EF40EE3
:103F18000B6E40EC1FF0FFFF000E086E000E076EE0
:103F2800FFFF0BC001F00CC002F005C003F006C093
:103F380004F049EC1FF0074A082A08BEADEF1FF04D
:103F480008500AE1050E075CD8A0ADEF1FF0B0EFEE
:103F58001FF0FFFF94EF1FF0FFFFF40E0B5C010E44
:103F68000C58D8B0BAEF1FF0BDEF1FF0FFFFC2EF3B
:103F78001FF0FFFF000E0A6E000E096EFFFF610EB4
:103F88000B5C090E0C58D8A0CCEF1FF0CFEF1FF038
:103F9800FFFFD4EF1FF0FFFF000E0A6E010E096E3F
:103FA800FFFF09500A10D8A4DCEF1FF0DFEF1FF065
:103FB800FFFFE8EF1FF0FFFF0D50055E000E065AE9
:103FC8000D500B26000E0C22FFFF09040A10D8A47E
:103FD800F0EF1FF0F3EF1FF0FFFF8FEF1FF0FFFF71
:103FE8000D500526000E06220D500B5E000E0C5AD1
:083FF8008FEF1FF001EF00F054
:020000040020DA
:08000000FFFFFFFFFFFFFFFF00
:020000040030CA
:0E000000FF210E0EFF0181FF0FC00FE00F4029
:00000001FF
