:0600000000F06FEF06F0B6
:100600000001000A006400E8031027706F74203DA9
:1006100020256420200A006164203D2025642020DC
:030620000A0000CD
:10062400FFFF110E146E000E156E9AD0FFFF250EFB
:100634001A18D8B409D00DC0D9FF0EC0DAFF1AC0F9
:10064400DFFF0D4A0E2A8CD0FFFF000E166E0FC07E
:10065400F6FF10C0F7FF0F4A102A0800FFFFF5CF7E
:100664001AF01A50000AD8B489D0640AD8B403D056
:100674000D0AD8A475D0FFFF14C0D9FF15C0DAFF46
:10068400DECF18F0DDCF19F0020E1426000E15226D
:1006940019AE06D0030E1612186C191ED8B0192AFA
:1006A400FFFF010E1A6EFFFF050E1A18D8B414D0FE
:1006B4001A50020D010EF324F66E060EF420F76EA6
:1006C4000900FFFFF550185C0900FFFFF5501958A9
:1006D400D8A002D01A2AE7D7FFFF16C013F0030EE2
:1006E4001316D8B408D00DC0D9FF0EC0DAFF2D0EF2
:1006F400DF6E0D4A0E2AFFFF1AC017F02CD0FFFF41
:100704001750020D010EF324F66E060EF420F76E58
:100714000900FFFFF5CF03F00A00FFFFF5CF04F057
:1007240018C001F019C002F06BEC05F001C008F02C
:1007340002C009F0000E0B6E0A0E0A6EC6EC05F03C
:100744000850300F1A6E0DC0D9FF0EC0DAFF1AC060
:10075400DFFF0D4A0E2AFFFF17061728D8A4CFD7AC
:10076400FFFF0FC0F6FF10C0F7FF0F4A102A080062
:10077400FFFFF5CF1AF01A50D8A458D7FFFF0DC0C9
:10078400D9FF0EC0DAFF000EDF6E1200FFFFFFFF7D
:10079400000E346E000E336E000E326E000E316E9B
:1007A400030E926E000E936E000E946E828468ECBB
:1007B40006F0000E9BEC05F06FEC04F0620E1B6E6D
:1007C400760EFFFFE82EFDD71B2EFBD783D0FFFF4D
:1007D400000E026E000E016EE1EC04F02EEC05F04A
:1007E40001C033F002C034F01D0E0D6E000E0E6E0B
:1007F400170E0F6E060E106E33C011F034C012F0D7
:1008040012EC03F0000E026E000E0FEC06F01D0E4B
:10081400026E000E036EEEEC05F08294FA0EFFFFFA
:10082400E82EFDD7110E59EC06F0FA0EFFFFE82E64
:10083400FDD733C01BF034C01CF0D8901C321B32DF
:10084400D8901C321B321B5059EC06F0FA0EFFFFF5
:10085400E82EFDD78284620E1B6E760EFFFFE82E13
:10086400FDD71B2EFBD700D0000E026E010E016EC9
:10087400E1EC04F02EEC05F001C031F002C032F0DE
:100884001D0E0D6E000E0E6E0B0E0F6E060E106E0C
:1008940031C011F032C012F012EC03F0000E026EFF
:1008A400010E0FEC06F01D0E026E000E036EEEEC50
:1008B40005F0620E1B6E760EFFFFE82EFDD71B2E91
:1008C400FBD700D0620E1B6E760EFFFFE82EFDD71D
:1008D4001B2EFBD7FFFF00D07AD7FFFF620E026EFC
:1008E400760EFFFFE82EFDD7022EFBD700D0620E56
:1008F400026E760EFFFFE82EFDD7022EFBD700D046
:10090400360E026E9A0EFFFFE82EFDD7022EFBD79D
:1009140000D0300E816E818600F08196310E026E19
:10092400BB0EFFFFE82EFDD7022EFBD7300E816EE3
:10093400818600F081960A0E026EBE0EFFFFE82E3D
:10094400FDD7022EFBD700D0300E816E818600F0D9
:1009540081960A0E026EBE0EFFFFE82EFDD7022E10
:10096400FBD700D0200E816E818600F081960A0E9E
:10097400026EBE0EFFFFE82EFDD7022EFBD700D07D
:10098400010E44EC06F0280E44EC06F0080E44EC8C
:1009940006F0060E44EC06F0140E44EC06F00C0EC1
:1009A40044EC06F0030E026EEC0EFFFFE82EFDD7BA
:1009B400022EFBD7280E44EC06F01200FFFFFFFFC7
:1009C40026D0FFFFC29602D0FFFFC286FFFFC29867
:1009D40003D0FFFFC29605D0FFFFC29A3AD0FFFFB3
:1009E400C286FFFFC288F8D7FFFFC29602D0FFFF7E
:1009F400C286FFFFC29803D0FFFFC29605D0FFFF57
:100A0400C28A27D0FFFFC286FFFFC288F8D7FFFF44
:100A140001C003F002C004F00450000AD8A419D0A5
:100A24000350000AD8B4CDD7010AD8B4CDD7030AED
:100A3400D8B4CFD7010AD8B4D2D7070AD8B4D4D7F8
:100A4400010AD8B4D4D7030AD8B4D6D7010AD8B483
:100A5400D9D7FFFF1200FFFFFFFFC280FA0EFFFF8E
:100A6400E82EFDD7C28402D0FFFF00F0FFFFC2B41E
:100A7400FBD7C4CF08F0096A08C003F009C004F02A
:100A8400D89003360436D8900336043603C008F0F1
:100A940004C009F0C3CF06F0076A06C003F007C01C
:100AA40004F0060E056EFFFF043404320332052EF3
:100AB400FAD703C006F004C007F006500824086EF5
:100AC40007500920096E08C001F009C002F01200A5
:100AD400FFFFFFFF000E066E000E056E03500410AC
:100AE400D8B420D0010E076E05D0FFFFD89003368E
:100AF4000436072AFFFF04AEF8D7FFFFD890053667
:100B040006360350015C04500258D8A005D00350A7
:100B1400015E0450025A0580FFFFD890043203326C
:100B2400072EEBD7FFFF05C001F006C002F012004C
:100B3400FFFFFFFF016E000EC76E300EC66E10D0B1
:100B4400FFFFC78C02D0FFFFC79CFFFFC69816D0DB
:100B5400FFFFC78C02D0FFFFC79CFFFFC6880ED0E3
:100B6400FFFF0150000AD8B4EBD7010AD8B4EBD781
:100B7400030AD8B4EDD7010AD8B4EDD7FFFF949691
:100B84009488949A1200FFFFFFFF0A500B10D8B408
:100B94001CD0010E0C6E05D0FFFFD8900A360B3620
:100BA4000C2AFFFF0BAEF8D7FFFF0A50085C0B506E
:100BB4000958D8A004D00A50085E0B50095AFFFF08
:100BC400D8900B320A320C2EEFD7FFFF08C008F082
:100BD40009C009F01200FFFFFFFF000E056E0DD0E3
:100BE400FFFF0550010DF3500224D96EF450032089
:100BF400DA6EDF502DEC06F0052AFFFF0550010DDB
:100C0400F3500224D96EF4500320DA6E0A0EDE1873
:100C1400D8B41200FFFFE4D7FFFFFFFF046EFA0E03
:100C2400FFFFE82EFDD70404D8A405D00250C00F5E
:100C340044EC06F005D0FFFF0250800F44EC06F0B0
:100C4400FFFF050E036EDF0EFFFFE82EFDD7032E18
:100C5400FBD71200FFFFFFFF016EFA0EFFFFE82E25
:100C6400FDD70150F00B816E8184818600F081965E
:100C74000138F00B816E8184818600F08196819425
:100C84001200FFFFFFFF016EFA0EFFFFE82EFDD7F3
:100C940081940150F00B816E818600F081960138B9
:100CA400F00B816E818600F081961200FFFFFFFF3A
:100CB400016E01C0C9FF61EC06F01200FFFFFFFFE7
:100CC400FFFFC7B01200FFFFFBD7FFFFFFFF800E3F
:100CD400C26E090EC16E1200FFFF000EF86E000115
:060CE400C9EF03F0FFFF61
:020000040020DA
:08000000FFFFFFFFFFFFFFFF00
:020000040030CA
:0E000000FF210E0EFF0181FF0FC00FE00F4029
:00000001FF
