:040000008A11E52F4D
:1009B200F000700883120313990083160313981C26
:1009C200E32CE42CDE2C0800831603130615861490
:1009D200C8309900B0309800803083120313980019
:1009E20008008134B734C2349234B4349834883431
:1009F200B33480349034C934C834CC34A0347E0843
:100A02008A007F0882008A1100258A118000840AE8
:100A120004087D0603190034FF0A0319FE0A042D97
:100A2200F300F401242D0230F2008630F1009930F7
:100A3200F000F00B1A2DF10B1A2DF20B1A2D0130CA
:100A4200F0007008F40773087402031C292D2A2D84
:100A5200142D0800F4018312031332088A11D924D9
:100A62008A11831203138519372D382D752D023003
:100A7200F3008630F2009930F100F10B3E2DF20BBB
:100A82003E2DF30B3E2D831203138519492D4A2D5A
:100A9200752D0130F1007108F4070A307402031C4D
:100AA200532D542D552DF4017408323E84008313C6
:100AB20000088A11D9248A1183120313851D622D1D
:100AC200632D5D2D0230F3008630F2009930F10083
:100AD200F10B692DF20B692DF30B692D83120313B0
:100AE200851D742D752D5D2D051A782D792D322DCC
:100AF2000230F3008630F2009930F100F10B7F2DC5
:100B0200F20B7F2DF30B7F2D83120313051A8A2D0F
:100B12008B2D322D051E8E2D8F2D8B2D0230F30045
:100B22008630F2009930F100F10B952DF20B952DE4
:100B3200F30B952D83120313051EA02DA12D8B2DD2
:100B420074080800F500F40174087507F1007108D3
:100B5200840083130008323E840000088A11D924DD
:100B62008A11831203138519B72DB82D282E02304E
:100B7200F3008630F2009930F100F10BBE2DF20B3A
:100B8200BE2DF30BBE2D831203138519C92DCA2D59
:100B9200282E0130F10074087507F20072088400F3
:100BA2007108831380077508840003300002031C58
:100BB200DB2DDC2DDF2D750884008001750A840091
:100BC2000A300002031CE62DE72DEA2D750A840087
:100BD20080017508023E840006300002031CF22DDB
:100BE200F32DF72D7508023E840080017508033E3F
:100BF20084000A300002031CFF2D002E042E75080B
:100C0200033E8400800174087507F10071088400B6
:100C12000008323E840000088A11D9248A11831206
:100C22000313851D152E162E102E0230F30086306A
:100C3200F2009930F100F10B1C2EF20B1C2EF30B7B
:100C42001C2E83120313851D272E282E102E051A03
:100C52002B2E2C2EB22D0230F3008630F20099306A
:100C6200F100F10B322EF20B322EF30B322E8312E5
:100C72000313051A3D2E3E2EB22D051E412E422E85
:100C82003E2E0230F3008630F2009930F100F10B73
:100C9200482EF20B482EF30B482E83120313051E27
:100CA200532E542E3E2E0130F1007108F407043009
:100CB2007402031C5D2E5E2EA52D080000308312E7
:100CC2000313B1000030B0000030AF000030AE00BE
:100CD200A301A001A2010030A7000030A60000304D
:100CE200A5000030A4000030AB000030AA000030A4
:100CF200A9000030A800A10107309F001C30831614
:100D020003138500C03086008312031386158612F2
:100D120006128A11E5248A110A308A1111258A11D4
:100D2200831203130519962E972ECA2E2E308A117E
:100D3200A3258A11831203133C088A11D9248A112C
:100D42001E308A1111258A1124308A11A3258A1195
:100D5200831203133D088A11D9248A111E308A1185
:100D620011258A1128308A11A3258A1183120313AF
:100D72003E088A11D9248A111E308A1111258A113E
:100D82008A112B258A11F600760883120313A0001C
:100D9200D22EA801A80A0230F6007608A900AA01FC
:100DA200AB0124082E02031CD72ED82EEE2E2508C6
:100DB2002F02031CDD2EDE2EEE2E26083002031C2F
:100DC200E32EE42EEE2E27083102031CE92EEA2E32
:100DD200EE2E86160612AC01F22E86120612AC0117
:100DE200AC0A8E018F010A3090000230F800863082
:100DF200F7009930F600F60BFC2EF70BFC2EF80BE1
:100E0200FC2E8312031310140C10AD0102302D06B8
:100E1200031D0C2F0D2F142F07302306031D122F35
:100E2200132F142F4B2F86152D080319192F1A2F44
:100E32001F2F2D03031D1E2F1F2F2C2F2D082E3E7B
:100E4200840083130008323E840000087F398A112F
:100E5200D9248A11392F2D082E3E840083130008CD
:100E6200323E840000088A11D9248A11392F0000E9
:100E7200831203130C1C3E2F3F2F382F0C108611A8
:100E82000130F6007608AD0704302D02031C4A2F0C
:100E92004B2F072F0130F6007608A30708302306F0
:100EA200031D542F552F062FA3010130F60076089B
:100EB200B1072C03031D5E2F5F2F632F0130F60055
:100EC2007608A2070A303106031D682F692F6E2F9C
:100ED200B1010130F6007608B00706303006031D76
:100EE200732F742F792FB0010130F6007608AF0707
:100EF2000A302F06031D7E2F7F2F842FAF01013072
:100F0200F6007608AE0702302E06031D892F8A2FBF
:100F1200942F04302F06031D8F2F902F942FAE0194
:100F2200AF01B001B10122082006031D992F9A2FAB
:100F3200AB2F2C03031D9E2F9F2FAB2FA20101303D
:100F4200F6007608A107211CA72FA82FAA2F0616A4
:100F5200AB2F06122E082406031DB02FB12FC72F68
:100F62002F082506031DB62FB72FC72F30082606D8
:100F7200031DBC2FBD2FC72F31082706031DC22F0B
:100F8200C32FC72F86160612AC01A2012E0828060F
:100F9200031DCC2FCD2F062F2F082906031DD22F7C
:100FA200D32F062F30082A06031DD82FD92F062F3C
:100FB20031082B06031DDE2FDF2F062F8612AC0110
:100FC200AC0A062F8A11002883134030FD0004303A
:100FD200FE00F230FF00323084008A1104258A11AB
:100FE200C001C101C201C301C401C501C601C701DB
:0E0FF200C801C901CA01CB0183018A115F2E1B
:08400000FF3FFF3FFF3FFF3FC0
:02400E00623F0F
:00000001FF
