:040000008A11FD2F35
:100EBE00F401F501712F8230F300DD30F200F20BF8
:100ECE00662FF30B662F6B2F0130F4070318F50A0C
:100EDE000030F50771087502031D772F7008740234
:100EEE00031C7A2F7B2F622F08000330F80000308E
:100EFE00F9006430FA000030FB0007308312031350
:100F0E009F001C3083160313850086018312031382
:100F1E00851486110A30F0000030F1008A115F2727
:100F2E008A118312031305199D2F9E2FA62F483069
:100F3E00F8003F30F900F430FA000130FB0085195B
:100F4E00A92FAA2FB22F7830F8006930F90084301B
:100F5E00FA000330FB00051AB52FB62FBE2FA830AE
:100F6E00F8009330F9004C30FA000430FB00851085
:100F7E008E018F013E30900086157B08F1007A08B5
:100F8E00F0008A115F278A118312031386118B13C7
:100F9E000B170C10831603130C1483120313101467
:100FAE00F601F701E52F63008312031386110C106F
:100FBE000130F6070318F70A0030F70779087702B1
:100FCE00031DEB2F78087602031CEE2FEF2FDA2F7E
:100FDE0086157B08F1007A08F0008A115F278A11C6
:100FEE00831203138611D72F8A11002883018A11C9
:020FFE007C2F46
:08400000FF3FFF3FFF3FFF3FC0
:02400E00213F50
:00000001FF
